{
  "contractName": "BuyBacks",
  "abi": [
    {
      "inputs": [],
      "stateMutability": "nonpayable",
      "type": "constructor"
    },
    {
      "inputs": [],
      "name": "DFT",
      "outputs": [
        {
          "internalType": "address",
          "name": "",
          "type": "address"
        }
      ],
      "stateMutability": "view",
      "type": "function"
    },
    {
      "inputs": [],
      "name": "UniswapV2Router02",
      "outputs": [
        {
          "internalType": "address",
          "name": "",
          "type": "address"
        }
      ],
      "stateMutability": "view",
      "type": "function"
    },
    {
      "inputs": [],
      "name": "WETH",
      "outputs": [
        {
          "internalType": "address",
          "name": "",
          "type": "address"
        }
      ],
      "stateMutability": "view",
      "type": "function"
    },
    {
      "inputs": [
        {
          "internalType": "uint256",
          "name": "",
          "type": "uint256"
        }
      ],
      "name": "pathE2T",
      "outputs": [
        {
          "internalType": "address",
          "name": "",
          "type": "address"
        }
      ],
      "stateMutability": "view",
      "type": "function"
    },
    {
      "inputs": [
        {
          "internalType": "uint256",
          "name": "",
          "type": "uint256"
        }
      ],
      "name": "pathT2T",
      "outputs": [
        {
          "internalType": "address",
          "name": "",
          "type": "address"
        }
      ],
      "stateMutability": "view",
      "type": "function"
    },
    {
      "inputs": [],
      "name": "second",
      "outputs": [
        {
          "internalType": "address",
          "name": "",
          "type": "address"
        }
      ],
      "stateMutability": "view",
      "type": "function"
    },
    {
      "inputs": [],
      "name": "treasury",
      "outputs": [
        {
          "internalType": "address",
          "name": "",
          "type": "address"
        }
      ],
      "stateMutability": "view",
      "type": "function"
    },
    {
      "stateMutability": "payable",
      "type": "receive"
    },
    {
      "inputs": [],
      "name": "approbveUNI",
      "outputs": [],
      "stateMutability": "nonpayable",
      "type": "function"
    },
    {
      "inputs": [],
      "name": "buyBack",
      "outputs": [],
      "stateMutability": "nonpayable",
      "type": "function"
    },
    {
      "inputs": [],
      "name": "buyBackFoT",
      "outputs": [],
      "stateMutability": "nonpayable",
      "type": "function"
    },
    {
      "inputs": [],
      "name": "buyBackETHFoT",
      "outputs": [],
      "stateMutability": "nonpayable",
      "type": "function"
    }
  ],
  "bytecode": "0x6080604052737a250d5630b4cf539739df2c5dacb4c659f2488d6000806101000a81548173ffffffffffffffffffffffffffffffffffffffff021916908373ffffffffffffffffffffffffffffffffffffffff160217905550733325f17eeb6fc4c8d8b536ff7611f9a9b25944f0600560006101000a81548173ffffffffffffffffffffffffffffffffffffffff021916908373ffffffffffffffffffffffffffffffffffffffff16021790555073bc935114084188636d7c854f49f03f0a85b8fdf1600660006101000a81548173ffffffffffffffffffffffffffffffffffffffff021916908373ffffffffffffffffffffffffffffffffffffffff16021790555034801561010e57600080fd5b5033600460006101000a81548173ffffffffffffffffffffffffffffffffffffffff021916908373ffffffffffffffffffffffffffffffffffffffff1602179055506000809054906101000a900473ffffffffffffffffffffffffffffffffffffffff1673ffffffffffffffffffffffffffffffffffffffff1663ad5c46486040518163ffffffff1660e01b815260040160206040518083038186803b1580156101b757600080fd5b505afa1580156101cb573d6000803e3d6000fd5b505050506040513d60208110156101e157600080fd5b8101908080519060200190929190505050600160006101000a81548173ffffffffffffffffffffffffffffffffffffffff021916908373ffffffffffffffffffffffffffffffffffffffff1602179055506002600560009054906101000a900473ffffffffffffffffffffffffffffffffffffffff169080600181540180825580915050600190039060005260206000200160009091909190916101000a81548173ffffffffffffffffffffffffffffffffffffffff021916908373ffffffffffffffffffffffffffffffffffffffff1602179055506002600160009054906101000a900473ffffffffffffffffffffffffffffffffffffffff169080600181540180825580915050600190039060005260206000200160009091909190916101000a81548173ffffffffffffffffffffffffffffffffffffffff021916908373ffffffffffffffffffffffffffffffffffffffff1602179055506002600660009054906101000a900473ffffffffffffffffffffffffffffffffffffffff169080600181540180825580915050600190039060005260206000200160009091909190916101000a81548173ffffffffffffffffffffffffffffffffffffffff021916908373ffffffffffffffffffffffffffffffffffffffff1602179055506003600160009054906101000a900473ffffffffffffffffffffffffffffffffffffffff169080600181540180825580915050600190039060005260206000200160009091909190916101000a81548173ffffffffffffffffffffffffffffffffffffffff021916908373ffffffffffffffffffffffffffffffffffffffff1602179055506002600660009054906101000a900473ffffffffffffffffffffffffffffffffffffffff169080600181540180825580915050600190039060005260206000200160009091909190916101000a81548173ffffffffffffffffffffffffffffffffffffffff021916908373ffffffffffffffffffffffffffffffffffffffff160217905550611011806104da6000396000f3fe6080604052600436106100a05760003560e01c80636788cb3d116100645780636788cb3d1461021f5780636ba845ba14610236578063859f5dcd1461024d578063acdf4f18146102c8578063ad5c4648146102df578063b181f7f414610336576100a7565b80630870880f146100ac5780634b3ac74e1461010357806355cb26661461011a5780635a8ac02d1461017157806361d027b3146101c8576100a7565b366100a757005b600080fd5b3480156100b857600080fd5b506100c16103b1565b604051808273ffffffffffffffffffffffffffffffffffffffff1673ffffffffffffffffffffffffffffffffffffffff16815260200191505060405180910390f35b34801561010f57600080fd5b506101186103d7565b005b34801561012657600080fd5b5061012f61057c565b604051808273ffffffffffffffffffffffffffffffffffffffff1673ffffffffffffffffffffffffffffffffffffffff16815260200191505060405180910390f35b34801561017d57600080fd5b506101866105a1565b604051808273ffffffffffffffffffffffffffffffffffffffff1673ffffffffffffffffffffffffffffffffffffffff16815260200191505060405180910390f35b3480156101d457600080fd5b506101dd6105c7565b604051808273ffffffffffffffffffffffffffffffffffffffff1673ffffffffffffffffffffffffffffffffffffffff16815260200191505060405180910390f35b34801561022b57600080fd5b506102346105ed565b005b34801561024257600080fd5b5061024b610858565b005b34801561025957600080fd5b506102866004803603602081101561027057600080fd5b8101908080359060200190929190505050610a82565b604051808273ffffffffffffffffffffffffffffffffffffffff1673ffffffffffffffffffffffffffffffffffffffff16815260200191505060405180910390f35b3480156102d457600080fd5b506102dd610abe565b005b3480156102eb57600080fd5b506102f4610de7565b604051808273ffffffffffffffffffffffffffffffffffffffff1673ffffffffffffffffffffffffffffffffffffffff16815260200191505060405180910390f35b34801561034257600080fd5b5061036f6004803603602081101561035957600080fd5b8101908080359060200190929190505050610e0d565b604051808273ffffffffffffffffffffffffffffffffffffffff1673ffffffffffffffffffffffffffffffffffffffff16815260200191505060405180910390f35b600660009054906101000a900473ffffffffffffffffffffffffffffffffffffffff1681565b60006103f46702c68af0bb14000047610e4990919063ffffffff16565b905060008090506000809054906101000a900473ffffffffffffffffffffffffffffffffffffffff1673ffffffffffffffffffffffffffffffffffffffff1663b6f9de9583836003600460009054906101000a900473ffffffffffffffffffffffffffffffffffffffff166104756201518042610e9390919063ffffffff16565b6040518663ffffffff1660e01b815260040180858152602001806020018473ffffffffffffffffffffffffffffffffffffffff1673ffffffffffffffffffffffffffffffffffffffff168152602001838152602001828103825285818154815260200191508054801561053d57602002820191906000526020600020905b8160009054906101000a900473ffffffffffffffffffffffffffffffffffffffff1673ffffffffffffffffffffffffffffffffffffffff16815260200190600101908083116104f3575b5050955050505050506000604051808303818588803b15801561055f57600080fd5b505af1158015610573573d6000803e3d6000fd5b50505050505050565b6000809054906101000a900473ffffffffffffffffffffffffffffffffffffffff1681565b600560009054906101000a900473ffffffffffffffffffffffffffffffffffffffff1681565b600460009054906101000a900473ffffffffffffffffffffffffffffffffffffffff1681565b6000600560009054906101000a900473ffffffffffffffffffffffffffffffffffffffff1673ffffffffffffffffffffffffffffffffffffffff166370a08231306040518263ffffffff1660e01b8152600401808273ffffffffffffffffffffffffffffffffffffffff1673ffffffffffffffffffffffffffffffffffffffff16815260200191505060206040518083038186803b15801561068e57600080fd5b505afa1580156106a2573d6000803e3d6000fd5b505050506040513d60208110156106b857600080fd5b8101908080519060200190929190505050905060008090506000809054906101000a900473ffffffffffffffffffffffffffffffffffffffff1673ffffffffffffffffffffffffffffffffffffffff16635c11d79583836002600460009054906101000a900473ffffffffffffffffffffffffffffffffffffffff1661074a6201518042610e9390919063ffffffff16565b6040518663ffffffff1660e01b815260040180868152602001858152602001806020018473ffffffffffffffffffffffffffffffffffffffff1673ffffffffffffffffffffffffffffffffffffffff168152602001838152602001828103825285818154815260200191508054801561081857602002820191906000526020600020905b8160009054906101000a900473ffffffffffffffffffffffffffffffffffffffff1673ffffffffffffffffffffffffffffffffffffffff16815260200190600101908083116107ce575b50509650505050505050600060405180830381600087803b15801561083c57600080fd5b505af1158015610850573d6000803e3d6000fd5b505050505050565b600073a87efbef892a5ab5b38ac7e85a8c5e4f0da6262190506000737a250d5630b4cf539739df2c5dacb4c659f2488d9050600560009054906101000a900473ffffffffffffffffffffffffffffffffffffffff1673ffffffffffffffffffffffffffffffffffffffff1663095ea7b38374446c3b15f9926687d2c40534fdb5640000000000006040518363ffffffff1660e01b8152600401808373ffffffffffffffffffffffffffffffffffffffff1673ffffffffffffffffffffffffffffffffffffffff16815260200182815260200192505050602060405180830381600087803b15801561094857600080fd5b505af115801561095c573d6000803e3d6000fd5b505050506040513d602081101561097257600080fd5b810190808051906020019092919050505050600560009054906101000a900473ffffffffffffffffffffffffffffffffffffffff1673ffffffffffffffffffffffffffffffffffffffff1663095ea7b38274446c3b15f9926687d2c40534fdb5640000000000006040518363ffffffff1660e01b8152600401808373ffffffffffffffffffffffffffffffffffffffff1673ffffffffffffffffffffffffffffffffffffffff16815260200182815260200192505050602060405180830381600087803b158015610a4257600080fd5b505af1158015610a56573d6000803e3d6000fd5b505050506040513d6020811015610a6c57600080fd5b8101908080519060200190929190505050505050565b60028181548110610a8f57fe5b906000526020600020016000915054906101000a900473ffffffffffffffffffffffffffffffffffffffff1681565b6000600560009054906101000a900473ffffffffffffffffffffffffffffffffffffffff1673ffffffffffffffffffffffffffffffffffffffff166370a08231306040518263ffffffff1660e01b8152600401808273ffffffffffffffffffffffffffffffffffffffff1673ffffffffffffffffffffffffffffffffffffffff16815260200191505060206040518083038186803b158015610b5f57600080fd5b505afa158015610b73573d6000803e3d6000fd5b505050506040513d6020811015610b8957600080fd5b8101908080519060200190929190505050905060008090506000809054906101000a900473ffffffffffffffffffffffffffffffffffffffff1673ffffffffffffffffffffffffffffffffffffffff166338ed173983836002600460009054906101000a900473ffffffffffffffffffffffffffffffffffffffff16610c1b6201518042610e9390919063ffffffff16565b6040518663ffffffff1660e01b815260040180868152602001858152602001806020018473ffffffffffffffffffffffffffffffffffffffff1673ffffffffffffffffffffffffffffffffffffffff1681526020018381526020018281038252858181548152602001915080548015610ce957602002820191906000526020600020905b8160009054906101000a900473ffffffffffffffffffffffffffffffffffffffff1673ffffffffffffffffffffffffffffffffffffffff1681526020019060010190808311610c9f575b50509650505050505050600060405180830381600087803b158015610d0d57600080fd5b505af1158015610d21573d6000803e3d6000fd5b505050506040513d6000823e3d601f19601f820116820180604052506020811015610d4b57600080fd5b8101908080516040519392919084640100000000821115610d6b57600080fd5b83820191506020820185811115610d8157600080fd5b8251866020820283011164010000000082111715610d9e57600080fd5b8083526020830192505050908051906020019060200280838360005b83811015610dd5578082015181840152602081019050610dba565b50505050905001604052505050505050565b600160009054906101000a900473ffffffffffffffffffffffffffffffffffffffff1681565b60038181548110610e1a57fe5b906000526020600020016000915054906101000a900473ffffffffffffffffffffffffffffffffffffffff1681565b6000610e8b83836040518060400160405280601e81526020017f536166654d6174683a207375627472616374696f6e206f766572666c6f770000815250610f1b565b905092915050565b600080828401905083811015610f11576040517f08c379a000000000000000000000000000000000000000000000000000000000815260040180806020018281038252601b8152602001807f536166654d6174683a206164646974696f6e206f766572666c6f77000000000081525060200191505060405180910390fd5b8091505092915050565b6000838311158290610fc8576040517f08c379a00000000000000000000000000000000000000000000000000000000081526004018080602001828103825283818151815260200191508051906020019080838360005b83811015610f8d578082015181840152602081019050610f72565b50505050905090810190601f168015610fba5780820380516001836020036101000a031916815260200191505b509250505060405180910390fd5b506000838503905080915050939250505056fea264697066735822122064738f9fa1261aa7731b8bcb48898d8a9eb0aa71d330f6e0e1b9f522926d74d464736f6c63430006060033",
  "immutableReferences": {},
  "source": "// SPDX-License-Identifier: WHO GIVES A FUCK ANYWAY??\n// but thanks a million Gwei to MIT and Zeppelin. You guys rock!!!\n\n// MAINNET VERSION.\n\npragma solidity ^0.6.6;\n\nimport \"./Libraries.sol\";\nimport \"./Interfaces.sol\";\n\n\ncontract BuyBacks {\n using SafeMath for uint;\n \naddress public UniswapV2Router02 = 0x7a250d5630B4cF539739dF2C5dAcb4c659F2488D;\naddress public WETH;\naddress[] public pathT2T;\naddress[] public pathE2T;\naddress public treasury; \naddress public second = address(0x3325f17Eeb6fC4C8D8B536FF7611f9A9b25944F0);\naddress public DFT = address(0xBC935114084188636d7C854f49f03F0A85B8FDF1);  //UNICORE on Rink\n\n constructor () public {\n\n        treasury = msg.sender; //test only\n        \n        WETH = IUniswapV2Router02(UniswapV2Router02).WETH();\n        \n        //Token to Token path\n        pathT2T.push(second);\n        pathT2T.push(WETH);\n        pathT2T.push(DFT);\n        \n        //ETH to token path\n        pathE2T.push(WETH);\n        pathT2T.push(DFT);\n        \n }\n\n\nreceive() external payable {\n    //receive ETHER\n} \n\nfunction approbveUNI() public {\n    address ETH2NDpair = 0xa87efbeF892A5AB5B38aC7e85A8C5e4f0Da62621;\n    address router = 0x7a250d5630B4cF539739dF2C5dAcb4c659F2488D;\n    IERC20(second).approve(ETH2NDpair, 1e50);\n    IERC20(second).approve(router, 1e50);\n}\n\nfunction buyBack() public { //buyback DFT with 2ND.\n    uint amountIn = IERC20(second).balanceOf(address(this));\n    uint amountOutMin = 0;\n\n    IUniswapV2Router02(UniswapV2Router02).swapExactTokensForTokens(\n            amountIn, amountOutMin, pathT2T, treasury, block.timestamp.add(24 hours));\n}\n\nfunction buyBackFoT() public { //buyback DFT with 2ND.\n    uint amountIn = IERC20(second).balanceOf(address(this));\n    uint amountOutMin = 0;\n\n    IUniswapV2Router02(UniswapV2Router02).swapExactTokensForTokensSupportingFeeOnTransferTokens(\n            amountIn, amountOutMin, pathT2T, treasury, block.timestamp.add(24 hours));\n}\n\nfunction buyBackETHFoT() public { //buyback DFT with ETH.\n    uint amountIn = address(this).balance.sub(0.2 ether); //keep ETH for gas. Will throw if balacnes KO;\n    uint amountOutMin = 0;\n    IUniswapV2Router02(UniswapV2Router02).swapExactETHForTokensSupportingFeeOnTransferTokens{value : amountIn}(\n            amountOutMin, pathE2T, treasury, block.timestamp.add(24 hours));\n}\n\n}\n",
  "sourcePath": "/Users/noahcoomer/source/defiat/second-chance-contracts/contracts/Simple_Buyback.sol",
  "compiler": {
    "name": "solc",
    "version": "0.6.6+commit.6c089d02.Emscripten.clang"
  },
  "schemaVersion": "3.3.1",
  "updatedAt": "2020-10-30T18:58:46.031Z",
  "devdoc": {
    "methods": {}
  },
  "userdoc": {
    "methods": {}
  }
}