{
  "contractName": "Second_Chance",
  "abi": [
    {
      "inputs": [],
      "stateMutability": "nonpayable",
      "type": "constructor"
    },
    {
      "anonymous": false,
      "inputs": [
        {
          "indexed": true,
          "internalType": "address",
          "name": "owner",
          "type": "address"
        },
        {
          "indexed": true,
          "internalType": "address",
          "name": "spender",
          "type": "address"
        },
        {
          "indexed": false,
          "internalType": "uint256",
          "name": "value",
          "type": "uint256"
        }
      ],
      "name": "Approval",
      "type": "event"
    },
    {
      "anonymous": false,
      "inputs": [
        {
          "indexed": false,
          "internalType": "address",
          "name": "sender",
          "type": "address"
        },
        {
          "indexed": false,
          "internalType": "string",
          "name": "eventType",
          "type": "string"
        },
        {
          "indexed": false,
          "internalType": "uint256",
          "name": "newVariable",
          "type": "uint256"
        }
      ],
      "name": "TokenUpdate",
      "type": "event"
    },
    {
      "anonymous": false,
      "inputs": [
        {
          "indexed": false,
          "internalType": "address",
          "name": "sender",
          "type": "address"
        },
        {
          "indexed": false,
          "internalType": "string",
          "name": "eventType",
          "type": "string"
        },
        {
          "indexed": false,
          "internalType": "address",
          "name": "newAddress",
          "type": "address"
        },
        {
          "indexed": false,
          "internalType": "uint256",
          "name": "newVariable",
          "type": "uint256"
        },
        {
          "indexed": false,
          "internalType": "bool",
          "name": "newBool",
          "type": "bool"
        }
      ],
      "name": "TokenUpdate",
      "type": "event"
    },
    {
      "anonymous": false,
      "inputs": [
        {
          "indexed": true,
          "internalType": "address",
          "name": "from",
          "type": "address"
        },
        {
          "indexed": true,
          "internalType": "address",
          "name": "to",
          "type": "address"
        },
        {
          "indexed": false,
          "internalType": "uint256",
          "name": "value",
          "type": "uint256"
        }
      ],
      "name": "Transfer",
      "type": "event"
    },
    {
      "inputs": [],
      "name": "DFT",
      "outputs": [
        {
          "internalType": "address",
          "name": "",
          "type": "address"
        }
      ],
      "stateMutability": "view",
      "type": "function"
    },
    {
      "inputs": [
        {
          "internalType": "address",
          "name": "owner",
          "type": "address"
        },
        {
          "internalType": "address",
          "name": "spender",
          "type": "address"
        }
      ],
      "name": "allowance",
      "outputs": [
        {
          "internalType": "uint256",
          "name": "",
          "type": "uint256"
        }
      ],
      "stateMutability": "view",
      "type": "function"
    },
    {
      "inputs": [
        {
          "internalType": "address",
          "name": "spender",
          "type": "address"
        },
        {
          "internalType": "uint256",
          "name": "amount",
          "type": "uint256"
        }
      ],
      "name": "approve",
      "outputs": [
        {
          "internalType": "bool",
          "name": "",
          "type": "bool"
        }
      ],
      "stateMutability": "nonpayable",
      "type": "function"
    },
    {
      "inputs": [
        {
          "internalType": "address",
          "name": "account",
          "type": "address"
        }
      ],
      "name": "balanceOf",
      "outputs": [
        {
          "internalType": "uint256",
          "name": "",
          "type": "uint256"
        }
      ],
      "stateMutability": "view",
      "type": "function"
    },
    {
      "inputs": [
        {
          "internalType": "uint256",
          "name": "amount",
          "type": "uint256"
        }
      ],
      "name": "burn",
      "outputs": [],
      "stateMutability": "nonpayable",
      "type": "function"
    },
    {
      "inputs": [],
      "name": "currentFee",
      "outputs": [
        {
          "internalType": "uint256",
          "name": "",
          "type": "uint256"
        }
      ],
      "stateMutability": "view",
      "type": "function"
    },
    {
      "inputs": [],
      "name": "decimals",
      "outputs": [
        {
          "internalType": "uint8",
          "name": "",
          "type": "uint8"
        }
      ],
      "stateMutability": "view",
      "type": "function"
    },
    {
      "inputs": [
        {
          "internalType": "address",
          "name": "spender",
          "type": "address"
        },
        {
          "internalType": "uint256",
          "name": "subtractedValue",
          "type": "uint256"
        }
      ],
      "name": "decreaseAllowance",
      "outputs": [
        {
          "internalType": "bool",
          "name": "",
          "type": "bool"
        }
      ],
      "stateMutability": "nonpayable",
      "type": "function"
    },
    {
      "inputs": [],
      "name": "farm",
      "outputs": [
        {
          "internalType": "address",
          "name": "",
          "type": "address"
        }
      ],
      "stateMutability": "view",
      "type": "function"
    },
    {
      "inputs": [
        {
          "internalType": "address",
          "name": "spender",
          "type": "address"
        },
        {
          "internalType": "uint256",
          "name": "addedValue",
          "type": "uint256"
        }
      ],
      "name": "increaseAllowance",
      "outputs": [
        {
          "internalType": "bool",
          "name": "",
          "type": "bool"
        }
      ],
      "stateMutability": "nonpayable",
      "type": "function"
    },
    {
      "inputs": [],
      "name": "maxDFTBoost",
      "outputs": [
        {
          "internalType": "uint256",
          "name": "",
          "type": "uint256"
        }
      ],
      "stateMutability": "view",
      "type": "function"
    },
    {
      "inputs": [],
      "name": "name",
      "outputs": [
        {
          "internalType": "string",
          "name": "",
          "type": "string"
        }
      ],
      "stateMutability": "view",
      "type": "function"
    },
    {
      "inputs": [
        {
          "internalType": "address",
          "name": "",
          "type": "address"
        }
      ],
      "name": "noFeeList",
      "outputs": [
        {
          "internalType": "bool",
          "name": "",
          "type": "bool"
        }
      ],
      "stateMutability": "view",
      "type": "function"
    },
    {
      "inputs": [
        {
          "internalType": "address",
          "name": "",
          "type": "address"
        }
      ],
      "name": "rugList",
      "outputs": [
        {
          "internalType": "bool",
          "name": "",
          "type": "bool"
        }
      ],
      "stateMutability": "view",
      "type": "function"
    },
    {
      "inputs": [],
      "name": "swapCycleDuration",
      "outputs": [
        {
          "internalType": "uint256",
          "name": "",
          "type": "uint256"
        }
      ],
      "stateMutability": "view",
      "type": "function"
    },
    {
      "inputs": [],
      "name": "swapCycleStart",
      "outputs": [
        {
          "internalType": "uint256",
          "name": "",
          "type": "uint256"
        }
      ],
      "stateMutability": "view",
      "type": "function"
    },
    {
      "inputs": [],
      "name": "swapNumber",
      "outputs": [
        {
          "internalType": "uint8",
          "name": "",
          "type": "uint8"
        }
      ],
      "stateMutability": "view",
      "type": "function"
    },
    {
      "inputs": [],
      "name": "symbol",
      "outputs": [
        {
          "internalType": "string",
          "name": "",
          "type": "string"
        }
      ],
      "stateMutability": "view",
      "type": "function"
    },
    {
      "inputs": [],
      "name": "totalSupply",
      "outputs": [
        {
          "internalType": "uint256",
          "name": "",
          "type": "uint256"
        }
      ],
      "stateMutability": "view",
      "type": "function"
    },
    {
      "inputs": [
        {
          "internalType": "address",
          "name": "recipient",
          "type": "address"
        },
        {
          "internalType": "uint256",
          "name": "amount",
          "type": "uint256"
        }
      ],
      "name": "transfer",
      "outputs": [
        {
          "internalType": "bool",
          "name": "",
          "type": "bool"
        }
      ],
      "stateMutability": "nonpayable",
      "type": "function"
    },
    {
      "inputs": [
        {
          "internalType": "address",
          "name": "sender",
          "type": "address"
        },
        {
          "internalType": "address",
          "name": "recipient",
          "type": "address"
        },
        {
          "internalType": "uint256",
          "name": "amount",
          "type": "uint256"
        }
      ],
      "name": "transferFrom",
      "outputs": [
        {
          "internalType": "bool",
          "name": "",
          "type": "bool"
        }
      ],
      "stateMutability": "nonpayable",
      "type": "function"
    },
    {
      "inputs": [],
      "name": "uniswapFactory",
      "outputs": [
        {
          "internalType": "contract IUniswapV2Factory",
          "name": "",
          "type": "address"
        }
      ],
      "stateMutability": "view",
      "type": "function"
    },
    {
      "inputs": [],
      "name": "uniswapPair",
      "outputs": [
        {
          "internalType": "address",
          "name": "",
          "type": "address"
        }
      ],
      "stateMutability": "view",
      "type": "function"
    },
    {
      "inputs": [],
      "name": "uniswapRouterV2",
      "outputs": [
        {
          "internalType": "contract IUniswapV2Router02",
          "name": "",
          "type": "address"
        }
      ],
      "stateMutability": "view",
      "type": "function"
    },
    {
      "inputs": [
        {
          "internalType": "address",
          "name": "_farm",
          "type": "address"
        }
      ],
      "name": "initialSetup",
      "outputs": [],
      "stateMutability": "payable",
      "type": "function"
    },
    {
      "inputs": [
        {
          "internalType": "address",
          "name": "_ERC20swapped",
          "type": "address"
        },
        {
          "internalType": "uint256",
          "name": "_amount",
          "type": "uint256"
        }
      ],
      "name": "swapfor2NDChance",
      "outputs": [],
      "stateMutability": "payable",
      "type": "function"
    },
    {
      "inputs": [
        {
          "internalType": "address",
          "name": "_swapper",
          "type": "address"
        },
        {
          "internalType": "address",
          "name": "_ERC20swapped",
          "type": "address"
        },
        {
          "internalType": "uint256",
          "name": "_amount",
          "type": "uint256"
        }
      ],
      "name": "toMint",
      "outputs": [
        {
          "internalType": "uint256",
          "name": "",
          "type": "uint256"
        }
      ],
      "stateMutability": "view",
      "type": "function"
    },
    {
      "inputs": [
        {
          "internalType": "uint256",
          "name": "newSwapCycleDuration",
          "type": "uint256"
        }
      ],
      "name": "calculateETHfee",
      "outputs": [
        {
          "internalType": "uint256",
          "name": "_ETHfee",
          "type": "uint256"
        }
      ],
      "stateMutability": "view",
      "type": "function"
    },
    {
      "inputs": [
        {
          "internalType": "uint256",
          "name": "newAvgVolume",
          "type": "uint256"
        }
      ],
      "name": "calculateFee",
      "outputs": [
        {
          "internalType": "uint256",
          "name": "_feeOnTx",
          "type": "uint256"
        }
      ],
      "stateMutability": "view",
      "type": "function"
    },
    {
      "inputs": [
        {
          "internalType": "address",
          "name": "sender",
          "type": "address"
        },
        {
          "internalType": "uint256",
          "name": "amount",
          "type": "uint256"
        },
        {
          "internalType": "uint256",
          "name": "_feeOnTx",
          "type": "uint256"
        }
      ],
      "name": "calculateAmountAndFee",
      "outputs": [
        {
          "internalType": "uint256",
          "name": "netAmount",
          "type": "uint256"
        },
        {
          "internalType": "uint256",
          "name": "fee",
          "type": "uint256"
        }
      ],
      "stateMutability": "view",
      "type": "function"
    },
    {
      "inputs": [
        {
          "internalType": "address",
          "name": "_address",
          "type": "address"
        },
        {
          "internalType": "bool",
          "name": "_bool",
          "type": "bool"
        }
      ],
      "name": "setAllowed",
      "outputs": [],
      "stateMutability": "nonpayable",
      "type": "function"
    },
    {
      "inputs": [
        {
          "internalType": "uint256",
          "name": "_min1000",
          "type": "uint256"
        },
        {
          "internalType": "uint256",
          "name": "_max1000",
          "type": "uint256"
        }
      ],
      "name": "setTXFeeBoundaries",
      "outputs": [],
      "stateMutability": "nonpayable",
      "type": "function"
    },
    {
      "inputs": [
        {
          "internalType": "uint256",
          "name": "_rate1000",
          "type": "uint256"
        }
      ],
      "name": "setBurnOnSwap",
      "outputs": [],
      "stateMutability": "nonpayable",
      "type": "function"
    },
    {
      "inputs": [
        {
          "internalType": "uint256",
          "name": "_maxDFTBoost100",
          "type": "uint256"
        }
      ],
      "name": "setDFTBoost",
      "outputs": [],
      "stateMutability": "nonpayable",
      "type": "function"
    },
    {
      "inputs": [
        {
          "internalType": "uint256",
          "name": "_newFee",
          "type": "uint256"
        }
      ],
      "name": "setETHfee",
      "outputs": [],
      "stateMutability": "nonpayable",
      "type": "function"
    },
    {
      "inputs": [
        {
          "internalType": "address",
          "name": "_token",
          "type": "address"
        },
        {
          "internalType": "bool",
          "name": "_bool",
          "type": "bool"
        }
      ],
      "name": "whiteListToken",
      "outputs": [],
      "stateMutability": "nonpayable",
      "type": "function"
    },
    {
      "inputs": [
        {
          "internalType": "address",
          "name": "_address",
          "type": "address"
        },
        {
          "internalType": "bool",
          "name": "_bool",
          "type": "bool"
        }
      ],
      "name": "setNoFeeList",
      "outputs": [],
      "stateMutability": "nonpayable",
      "type": "function"
    },
    {
      "inputs": [
        {
          "internalType": "address",
          "name": "_UNIV2",
          "type": "address"
        }
      ],
      "name": "setUNIV2",
      "outputs": [],
      "stateMutability": "nonpayable",
      "type": "function"
    },
    {
      "inputs": [
        {
          "internalType": "address",
          "name": "_farm",
          "type": "address"
        }
      ],
      "name": "setFarm",
      "outputs": [],
      "stateMutability": "nonpayable",
      "type": "function"
    },
    {
      "inputs": [
        {
          "internalType": "address",
          "name": "_DFT",
          "type": "address"
        }
      ],
      "name": "setDFT",
      "outputs": [],
      "stateMutability": "nonpayable",
      "type": "function"
    },
    {
      "inputs": [],
      "name": "viewUNIv2",
      "outputs": [
        {
          "internalType": "address",
          "name": "",
          "type": "address"
        }
      ],
      "stateMutability": "view",
      "type": "function"
    },
    {
      "inputs": [],
      "name": "viewFarm",
      "outputs": [
        {
          "internalType": "address",
          "name": "",
          "type": "address"
        }
      ],
      "stateMutability": "view",
      "type": "function"
    },
    {
      "inputs": [],
      "name": "viewMinMaxFees",
      "outputs": [
        {
          "internalType": "uint256",
          "name": "",
          "type": "uint256"
        },
        {
          "internalType": "uint256",
          "name": "",
          "type": "uint256"
        }
      ],
      "stateMutability": "view",
      "type": "function"
    },
    {
      "inputs": [],
      "name": "viewcurrentFee",
      "outputs": [
        {
          "internalType": "uint256",
          "name": "",
          "type": "uint256"
        }
      ],
      "stateMutability": "view",
      "type": "function"
    },
    {
      "inputs": [],
      "name": "viewBurnOnSwap",
      "outputs": [
        {
          "internalType": "uint256",
          "name": "",
          "type": "uint256"
        }
      ],
      "stateMutability": "view",
      "type": "function"
    },
    {
      "inputs": [],
      "name": "viewETHfee",
      "outputs": [
        {
          "internalType": "uint256",
          "name": "",
          "type": "uint256"
        }
      ],
      "stateMutability": "view",
      "type": "function"
    },
    {
      "inputs": [
        {
          "internalType": "address",
          "name": "_address",
          "type": "address"
        }
      ],
      "name": "isAllowed",
      "outputs": [
        {
          "internalType": "bool",
          "name": "",
          "type": "bool"
        }
      ],
      "stateMutability": "view",
      "type": "function"
    },
    {
      "inputs": [
        {
          "internalType": "address",
          "name": "_ERC20address",
          "type": "address"
        }
      ],
      "name": "burnTokens",
      "outputs": [],
      "stateMutability": "nonpayable",
      "type": "function"
    },
    {
      "inputs": [
        {
          "internalType": "address",
          "name": "_ERC20address",
          "type": "address"
        }
      ],
      "name": "getTokens",
      "outputs": [],
      "stateMutability": "nonpayable",
      "type": "function"
    }
  ],
  "bytecode": "0x608060405273b6ee603933e024d8d53dde3faa0bf98fe2a3d6f1601060006101000a81548173ffffffffffffffffffffffffffffffffffffffff021916908373ffffffffffffffffffffffffffffffffffffffff1602179055506014601c553480156200006b57600080fd5b506040518060400160405280600a81526020017f326e645f4368616e6365000000000000000000000000000000000000000000008152506040518060400160405280600381526020017f324e4400000000000000000000000000000000000000000000000000000000008152508160039080519060200190620000f092919062000186565b5080600490805190602001906200010992919062000186565b506012600560006101000a81548160ff021916908360ff16021790555050506001600660003373ffffffffffffffffffffffffffffffffffffffff1673ffffffffffffffffffffffffffffffffffffffff16815260200190815260200160002060006101000a81548160ff02191690831515021790555062000235565b828054600181600116156101000203166002900490600052602060002090601f016020900481019282601f10620001c957805160ff1916838001178555620001fa565b82800160010185558215620001fa579182015b82811115620001f9578251825591602001919060010190620001dc565b5b5090506200020991906200020d565b5090565b6200023291905b808211156200022e57600081600090555060010162000214565b5090565b90565b615dd680620002456000396000f3fe6080604052600436106102ae5760003560e01c80638aa1ff7011610175578063b804a1e9116100dc578063da3c300d11610095578063dd912c411161006f578063dd912c41146111db578063de71735f14611238578063f5baa26f14611263578063fca1dbf61461128e576102ae565b8063da3c300d146110da578063db50ff7114611105578063dd62ed3e14611156576102ae565b8063b804a1e914610e51578063babcc53914610ee0578063c816841b14610f49578063d20ca6af14610fa0578063d4f26c5114611020578063d932c48514611071576102ae565b8063a409dd601161012e578063a409dd6014610c33578063a457c2d714610c90578063a9059cbb14610d03578063aa43682314610d76578063aab6438914610dc5578063b237f7d414610e00576102ae565b80638aa1ff70146109ef5780638bdb2afa14610a5857806395d89b4114610aaf57806399a5d74714610b3f5780639a2d4d2514610b8e578063a19b083714610bdc576102ae565b806337d6e6ee11610219578063596fa9e3116101d2578063596fa9e31461082f578063686d0ee214610886578063701e52be146108b157806370a0823114610902578063719a72b5146109675780638648c6a6146109be576102ae565b806337d6e6ee1461066d57806339509351146106a857806342966c681461071b578063450efe21146107565780634697f05d146107a757806352fc856b14610804576102ae565b8063196959101161026b57806319695910146104a757806323b872dd146104d2578063291b6595146105655780632e073d2c146105aa578063313ce567146105e557806336e9332d14610616576102ae565b806306fdde03146102b35780630870880f14610343578063095ea7b31461039a5780630bfc480e1461040d578063159d834a1461045157806318160ddd1461047c575b600080fd5b3480156102bf57600080fd5b506102c86112c0565b6040518080602001828103825283818151815260200191508051906020019080838360005b838110156103085780820151818401526020810190506102ed565b50505050905090810190601f1680156103355780820380516001836020036101000a031916815260200191505b509250505060405180910390f35b34801561034f57600080fd5b50610358611362565b604051808273ffffffffffffffffffffffffffffffffffffffff1673ffffffffffffffffffffffffffffffffffffffff16815260200191505060405180910390f35b3480156103a657600080fd5b506103f3600480360360408110156103bd57600080fd5b81019080803573ffffffffffffffffffffffffffffffffffffffff16906020019092919080359060200190929190505050611388565b604051808215151515815260200191505060405180910390f35b61044f6004803603602081101561042357600080fd5b81019080803573ffffffffffffffffffffffffffffffffffffffff1690602001909291905050506113a6565b005b34801561045d57600080fd5b5061046661160b565b6040518082815260200191505060405180910390f35b34801561048857600080fd5b50610491611615565b6040518082815260200191505060405180910390f35b3480156104b357600080fd5b506104bc61161f565b6040518082815260200191505060405180910390f35b3480156104de57600080fd5b5061054b600480360360608110156104f557600080fd5b81019080803573ffffffffffffffffffffffffffffffffffffffff169060200190929190803573ffffffffffffffffffffffffffffffffffffffff16906020019092919080359060200190929190505050611629565b604051808215151515815260200191505060405180910390f35b34801561057157600080fd5b506105a86004803603604081101561058857600080fd5b810190808035906020019092919080359060200190929190505050611702565b005b3480156105b657600080fd5b506105e3600480360360208110156105cd57600080fd5b810190808035906020019092919050505061191b565b005b3480156105f157600080fd5b506105fa611a0c565b604051808260ff1660ff16815260200191505060405180910390f35b34801561062257600080fd5b5061062b611a23565b604051808273ffffffffffffffffffffffffffffffffffffffff1673ffffffffffffffffffffffffffffffffffffffff16815260200191505060405180910390f35b34801561067957600080fd5b506106a66004803603602081101561069057600080fd5b8101908080359060200190929190505050611a49565b005b3480156106b457600080fd5b50610701600480360360408110156106cb57600080fd5b81019080803573ffffffffffffffffffffffffffffffffffffffff16906020019092919080359060200190929190505050611bb6565b604051808215151515815260200191505060405180910390f35b34801561072757600080fd5b506107546004803603602081101561073e57600080fd5b8101908080359060200190929190505050611c69565b005b34801561076257600080fd5b506107a56004803603602081101561077957600080fd5b81019080803573ffffffffffffffffffffffffffffffffffffffff169060200190929190505050611c76565b005b3480156107b357600080fd5b50610802600480360360408110156107ca57600080fd5b81019080803573ffffffffffffffffffffffffffffffffffffffff169060200190929190803515159060200190929190505050611f5f565b005b34801561081057600080fd5b5061081961215d565b6040518082815260200191505060405180910390f35b34801561083b57600080fd5b50610844612163565b604051808273ffffffffffffffffffffffffffffffffffffffff1673ffffffffffffffffffffffffffffffffffffffff16815260200191505060405180910390f35b34801561089257600080fd5b5061089b612189565b6040518082815260200191505060405180910390f35b3480156108bd57600080fd5b50610900600480360360208110156108d457600080fd5b81019080803573ffffffffffffffffffffffffffffffffffffffff16906020019092919050505061218f565b005b34801561090e57600080fd5b506109516004803603602081101561092557600080fd5b81019080803573ffffffffffffffffffffffffffffffffffffffff169060200190929190505050612377565b6040518082815260200191505060405180910390f35b34801561097357600080fd5b5061097c6123bf565b604051808273ffffffffffffffffffffffffffffffffffffffff1673ffffffffffffffffffffffffffffffffffffffff16815260200191505060405180910390f35b3480156109ca57600080fd5b506109d36123e9565b604051808260ff1660ff16815260200191505060405180910390f35b3480156109fb57600080fd5b50610a3e60048036036020811015610a1257600080fd5b81019080803573ffffffffffffffffffffffffffffffffffffffff1690602001909291905050506123fc565b604051808215151515815260200191505060405180910390f35b348015610a6457600080fd5b50610a6d61241c565b604051808273ffffffffffffffffffffffffffffffffffffffff1673ffffffffffffffffffffffffffffffffffffffff16815260200191505060405180910390f35b348015610abb57600080fd5b50610ac4612442565b6040518080602001828103825283818151815260200191508051906020019080838360005b83811015610b04578082015181840152602081019050610ae9565b50505050905090810190601f168015610b315780820380516001836020036101000a031916815260200191505b509250505060405180910390f35b348015610b4b57600080fd5b50610b7860048036036020811015610b6257600080fd5b81019080803590602001909291905050506124e4565b6040518082815260200191505060405180910390f35b610bda60048036036040811015610ba457600080fd5b81019080803573ffffffffffffffffffffffffffffffffffffffff16906020019092919080359060200190929190505050612551565b005b348015610be857600080fd5b50610bf1612a7e565b604051808273ffffffffffffffffffffffffffffffffffffffff1673ffffffffffffffffffffffffffffffffffffffff16815260200191505060405180910390f35b348015610c3f57600080fd5b50610c8e60048036036040811015610c5657600080fd5b81019080803573ffffffffffffffffffffffffffffffffffffffff169060200190929190803515159060200190929190505050612aa8565b005b348015610c9c57600080fd5b50610ce960048036036040811015610cb357600080fd5b81019080803573ffffffffffffffffffffffffffffffffffffffff16906020019092919080359060200190929190505050612ca6565b604051808215151515815260200191505060405180910390f35b348015610d0f57600080fd5b50610d5c60048036036040811015610d2657600080fd5b81019080803573ffffffffffffffffffffffffffffffffffffffff16906020019092919080359060200190929190505050612d73565b604051808215151515815260200191505060405180910390f35b348015610d8257600080fd5b50610daf60048036036020811015610d9957600080fd5b8101908080359060200190929190505050612d91565b6040518082815260200191505060405180910390f35b348015610dd157600080fd5b50610dfe60048036036020811015610de857600080fd5b8101908080359060200190929190505050612e22565b005b348015610e0c57600080fd5b50610e4f60048036036020811015610e2357600080fd5b81019080803573ffffffffffffffffffffffffffffffffffffffff169060200190929190505050612f8f565b005b348015610e5d57600080fd5b50610eca60048036036060811015610e7457600080fd5b81019080803573ffffffffffffffffffffffffffffffffffffffff169060200190929190803573ffffffffffffffffffffffffffffffffffffffff169060200190929190803590602001909291905050506132df565b6040518082815260200191505060405180910390f35b348015610eec57600080fd5b50610f2f60048036036020811015610f0357600080fd5b81019080803573ffffffffffffffffffffffffffffffffffffffff169060200190929190505050613610565b604051808215151515815260200191505060405180910390f35b348015610f5557600080fd5b50610f5e613666565b604051808273ffffffffffffffffffffffffffffffffffffffff1673ffffffffffffffffffffffffffffffffffffffff16815260200191505060405180910390f35b348015610fac57600080fd5b5061100360048036036060811015610fc357600080fd5b81019080803573ffffffffffffffffffffffffffffffffffffffff169060200190929190803590602001909291908035906020019092919050505061368c565b604051808381526020018281526020019250505060405180910390f35b34801561102c57600080fd5b5061106f6004803603602081101561104357600080fd5b81019080803573ffffffffffffffffffffffffffffffffffffffff169060200190929190505050613731565b005b34801561107d57600080fd5b506110c06004803603602081101561109457600080fd5b81019080803573ffffffffffffffffffffffffffffffffffffffff169060200190929190505050613993565b604051808215151515815260200191505060405180910390f35b3480156110e657600080fd5b506110ef6139b3565b6040518082815260200191505060405180910390f35b34801561111157600080fd5b506111546004803603602081101561112857600080fd5b81019080803573ffffffffffffffffffffffffffffffffffffffff1690602001909291905050506139b9565b005b34801561116257600080fd5b506111c56004803603604081101561117957600080fd5b81019080803573ffffffffffffffffffffffffffffffffffffffff169060200190929190803573ffffffffffffffffffffffffffffffffffffffff169060200190929190505050613abc565b6040518082815260200191505060405180910390f35b3480156111e757600080fd5b50611236600480360360408110156111fe57600080fd5b81019080803573ffffffffffffffffffffffffffffffffffffffff169060200190929190803515159060200190929190505050613b43565b005b34801561124457600080fd5b5061124d613d41565b6040518082815260200191505060405180910390f35b34801561126f57600080fd5b50611278613d47565b6040518082815260200191505060405180910390f35b34801561129a57600080fd5b506112a3613d51565b604051808381526020018281526020019250505060405180910390f35b606060038054600181600116156101000203166002900480601f0160208091040260200160405190810160405280929190818152602001828054600181600116156101000203166002900480156113585780601f1061132d57610100808354040283529160200191611358565b820191906000526020600020905b81548152906001019060200180831161133b57829003601f168201915b5050505050905090565b601060009054906101000a900473ffffffffffffffffffffffffffffffffffffffff1681565b600061139c611395613d62565b8484613d6a565b6001905092915050565b600660003373ffffffffffffffffffffffffffffffffffffffff1673ffffffffffffffffffffffffffffffffffffffff16815260200190815260200160002060009054906101000a900460ff16611465576040517f08c379a000000000000000000000000000000000000000000000000000000000815260040180806020018281038252600c8152602001807f6f6e6c7920416c6c6f776564000000000000000000000000000000000000000081525060200191505060405180910390fd5b6802b5e3af16b18800003410156114e4576040517f08c379a000000000000000000000000000000000000000000000000000000000815260040180806020018281038252600d8152602001807f35302045544820746f204c47450000000000000000000000000000000000000081525060200191505060405180910390fd5b42600b8190555060c86021819055506114ff60086024611702565b6115096001611a49565b66b1a2bc2ec50000601281905550601554601d8190555061152981613731565b61155b737a250d5630b4cf539739df2c5dacb4c659f2488d735c69bee701ef814a2b6a3edd4b1652cb9cc5aa6f613f61565b506115646144e4565b7fd3ea2152361892eead655aea58bd1995fd7f0d835972b2e816634f439d47c5923343604051808373ffffffffffffffffffffffffffffffffffffffff1673ffffffffffffffffffffffffffffffffffffffff168152602001806020018381526020018281038252600e8152602001807f496e697469616c697a6174696f6e000000000000000000000000000000000000815250602001935050505060405180910390a150565b6000601254905090565b6000600254905090565b6000601754905090565b60006116368484846148ce565b6116f784611642613d62565b6116f285604051806060016040528060288152602001615c9a60289139600160008b73ffffffffffffffffffffffffffffffffffffffff1673ffffffffffffffffffffffffffffffffffffffff16815260200190815260200160002060006116a8613d62565b73ffffffffffffffffffffffffffffffffffffffff1673ffffffffffffffffffffffffffffffffffffffff16815260200190815260200160002054614d1c9092919063ffffffff16565b613d6a565b600190509392505050565b600660003373ffffffffffffffffffffffffffffffffffffffff1673ffffffffffffffffffffffffffffffffffffffff16815260200190815260200160002060009054906101000a900460ff166117c1576040517f08c379a000000000000000000000000000000000000000000000000000000000815260040180806020018281038252600c8152602001807f6f6e6c7920416c6c6f776564000000000000000000000000000000000000000081525060200191505060405180910390fd5b81601581905550806016819055507fd3ea2152361892eead655aea58bd1995fd7f0d835972b2e816634f439d47c5923382604051808373ffffffffffffffffffffffffffffffffffffffff1673ffffffffffffffffffffffffffffffffffffffff16815260200180602001838152602001828103825260158152602001807f4e6577206d6178204665652c2062617365313030300000000000000000000000815250602001935050505060405180910390a17fd3ea2152361892eead655aea58bd1995fd7f0d835972b2e816634f439d47c5923383604051808373ffffffffffffffffffffffffffffffffffffffff1673ffffffffffffffffffffffffffffffffffffffff16815260200180602001838152602001828103825260158152602001807f4e6577206d696e204665652c2062617365313030300000000000000000000000815250602001935050505060405180910390a15050565b600660003373ffffffffffffffffffffffffffffffffffffffff1673ffffffffffffffffffffffffffffffffffffffff16815260200190815260200160002060009054906101000a900460ff166119da576040517f08c379a000000000000000000000000000000000000000000000000000000000815260040180806020018281038252600c8152602001807f6f6e6c7920416c6c6f776564000000000000000000000000000000000000000081525060200191505060405180910390fd5b66470de4df82000081101580156119f957506702c68af0bb1400008111155b611a0257600080fd5b8060128190555050565b6000600560009054906101000a900460ff16905090565b600f60009054906101000a900473ffffffffffffffffffffffffffffffffffffffff1681565b600660003373ffffffffffffffffffffffffffffffffffffffff1673ffffffffffffffffffffffffffffffffffffffff16815260200190815260200160002060009054906101000a900460ff16611b08576040517f08c379a000000000000000000000000000000000000000000000000000000000815260040180806020018281038252600c8152602001807f6f6e6c7920416c6c6f776564000000000000000000000000000000000000000081525060200191505060405180910390fd5b806017819055507fd3ea2152361892eead655aea58bd1995fd7f0d835972b2e816634f439d47c5923382604051808373ffffffffffffffffffffffffffffffffffffffff1673ffffffffffffffffffffffffffffffffffffffff16815260200180602001838152602001828103825260188152602001807f4e6577206275726e4f6e537761702c2062617365313030300000000000000000815250602001935050505060405180910390a150565b6000611c5f611bc3613d62565b84611c5a8560016000611bd4613d62565b73ffffffffffffffffffffffffffffffffffffffff1673ffffffffffffffffffffffffffffffffffffffff16815260200190815260200160002060008973ffffffffffffffffffffffffffffffffffffffff1673ffffffffffffffffffffffffffffffffffffffff16815260200190815260200160002054614ddc90919063ffffffff16565b613d6a565b6001905092915050565b611c733382614e64565b50565b600660003373ffffffffffffffffffffffffffffffffffffffff1673ffffffffffffffffffffffffffffffffffffffff16815260200190815260200160002060009054906101000a900460ff16611d35576040517f08c379a000000000000000000000000000000000000000000000000000000000815260040180806020018281038252600c8152602001807f6f6e6c7920416c6c6f776564000000000000000000000000000000000000000081525060200191505060405180910390fd5b600e60009054906101000a900473ffffffffffffffffffffffffffffffffffffffff1673ffffffffffffffffffffffffffffffffffffffff168173ffffffffffffffffffffffffffffffffffffffff161415611ddc576040517f08c379a000000000000000000000000000000000000000000000000000000000815260040180806020018281038252602b815260200180615d2c602b913960400191505060405180910390fd5b60008173ffffffffffffffffffffffffffffffffffffffff166370a08231306040518263ffffffff1660e01b8152600401808273ffffffffffffffffffffffffffffffffffffffff1673ffffffffffffffffffffffffffffffffffffffff16815260200191505060206040518083038186803b158015611e5b57600080fd5b505afa158015611e6f573d6000803e3d6000fd5b505050506040513d6020811015611e8557600080fd5b810190808051906020019092919050505090508173ffffffffffffffffffffffffffffffffffffffff1663a9059cbb33836040518363ffffffff1660e01b8152600401808373ffffffffffffffffffffffffffffffffffffffff1673ffffffffffffffffffffffffffffffffffffffff16815260200182815260200192505050602060405180830381600087803b158015611f1f57600080fd5b505af1158015611f33573d6000803e3d6000fd5b505050506040513d6020811015611f4957600080fd5b8101908080519060200190929190505050505050565b600660003373ffffffffffffffffffffffffffffffffffffffff1673ffffffffffffffffffffffffffffffffffffffff16815260200190815260200160002060009054906101000a900460ff1661201e576040517f08c379a000000000000000000000000000000000000000000000000000000000815260040180806020018281038252600c8152602001807f6f6e6c7920416c6c6f776564000000000000000000000000000000000000000081525060200191505060405180910390fd5b80600660008473ffffffffffffffffffffffffffffffffffffffff1673ffffffffffffffffffffffffffffffffffffffff16815260200190815260200160002060006101000a81548160ff0219169083151502179055507f796ccbbf6eaf18b2e6c19c84a7823f32f939a3ffd42fd9f25e9971e3704c821833834284604051808573ffffffffffffffffffffffffffffffffffffffff1673ffffffffffffffffffffffffffffffffffffffff168152602001806020018573ffffffffffffffffffffffffffffffffffffffff1673ffffffffffffffffffffffffffffffffffffffff16815260200184815260200183151515158152602001828103825260188152602001807f4e6577207573657220616c6c6f7765642f72656d6f76656400000000000000008152506020019550505050505060405180910390a15050565b60205481565b600c60009054906101000a900473ffffffffffffffffffffffffffffffffffffffff1681565b60215481565b600660003373ffffffffffffffffffffffffffffffffffffffff1673ffffffffffffffffffffffffffffffffffffffff16815260200190815260200160002060009054906101000a900460ff1661224e576040517f08c379a000000000000000000000000000000000000000000000000000000000815260040180806020018281038252600c8152602001807f6f6e6c7920416c6c6f776564000000000000000000000000000000000000000081525060200191505060405180910390fd5b80600e60006101000a81548173ffffffffffffffffffffffffffffffffffffffff021916908373ffffffffffffffffffffffffffffffffffffffff1602179055507f796ccbbf6eaf18b2e6c19c84a7823f32f939a3ffd42fd9f25e9971e3704c82183382426001604051808573ffffffffffffffffffffffffffffffffffffffff1673ffffffffffffffffffffffffffffffffffffffff168152602001806020018573ffffffffffffffffffffffffffffffffffffffff1673ffffffffffffffffffffffffffffffffffffffff16815260200184815260200183151515158152602001828103825260118152602001807f4e657720556e69563220616464726573730000000000000000000000000000008152506020019550505050505060405180910390a150565b60008060008373ffffffffffffffffffffffffffffffffffffffff1673ffffffffffffffffffffffffffffffffffffffff168152602001908152602001600020549050919050565b6000600f60009054906101000a900473ffffffffffffffffffffffffffffffffffffffff16905090565b601e60009054906101000a900460ff1681565b60146020528060005260406000206000915054906101000a900460ff1681565b600d60009054906101000a900473ffffffffffffffffffffffffffffffffffffffff1681565b606060048054600181600116156101000203166002900480601f0160208091040260200160405190810160405280929190818152602001828054600181600116156101000203166002900480156124da5780601f106124af576101008083540402835291602001916124da565b820191906000526020600020905b8154815290600101906020018083116124bd57829003601f168201915b5050505050905090565b6000601b548211612508576125056004601d54614ddc90919063ffffffff16565b90505b601b5482111561252b576125286002601d5461502890919063ffffffff16565b90505b601654811061253a5760165490505b60155481116125495760155490505b809050919050565b601160008373ffffffffffffffffffffffffffffffffffffffff1673ffffffffffffffffffffffffffffffffffffffff16815260200190815260200160002060009054906101000a900460ff16612610576040517f08c379a00000000000000000000000000000000000000000000000000000000081526004018080602001828103825260138152602001807f546f6b656e206e6f7420737761707061626c650000000000000000000000000081525060200191505060405180910390fd5b601254341015612688576040517f08c379a000000000000000000000000000000000000000000000000000000000815260040180806020018281038252601a8152602001807f706c73206164642045544820696e20746865207061796c6f616400000000000081525060200191505060405180910390fd5b600081116126fe576040517f08c379a00000000000000000000000000000000000000000000000000000000081526004018080602001828103825260178152602001807f43616e6e6f742073776170207a65726f20746f6b656e7300000000000000000081525060200191505060405180910390fd5b61279260328373ffffffffffffffffffffffffffffffffffffffff166318160ddd6040518163ffffffff1660e01b815260040160206040518083038186803b15801561274957600080fd5b505afa15801561275d573d6000803e3d6000fd5b505050506040513d602081101561277357600080fd5b810190808051906020019092919050505061507290919063ffffffff16565b8111156128305761282d60328373ffffffffffffffffffffffffffffffffffffffff166318160ddd6040518163ffffffff1660e01b815260040160206040518083038186803b1580156127e457600080fd5b505afa1580156127f8573d6000803e3d6000fd5b505050506040513d602081101561280e57600080fd5b810190808051906020019092919050505061507290919063ffffffff16565b90505b6128386150bc565b61284282826153b9565b600061284f3384846132df565b905061285b33826154b4565b6128636154c2565b600f60009054906101000a900473ffffffffffffffffffffffffffffffffffffffff1673ffffffffffffffffffffffffffffffffffffffff1663630b5ba16040518163ffffffff1660e01b8152600401600060405180830381600087803b1580156128cd57600080fd5b505af11580156128e1573d6000803e3d6000fd5b505050507f796ccbbf6eaf18b2e6c19c84a7823f32f939a3ffd42fd9f25e9971e3704c82183384846001604051808573ffffffffffffffffffffffffffffffffffffffff1673ffffffffffffffffffffffffffffffffffffffff168152602001806020018573ffffffffffffffffffffffffffffffffffffffff1673ffffffffffffffffffffffffffffffffffffffff168152602001848152602001831515151581526020018281038252600a8152602001807f546f6b656e2053776170000000000000000000000000000000000000000000008152506020019550505050505060405180910390a1601e600081819054906101000a900460ff168092919060010191906101000a81548160ff021916908360ff16021790555050601c54601e60009054906101000a900460ff1660ff1610612a7957612a34612a2f601f544261502890919063ffffffff16565b612d91565b6012819055506000601e60006101000a81548160ff021916908360ff160217905550612a6b601f544261502890919063ffffffff16565b60208190555042601f819055505b505050565b6000600e60009054906101000a900473ffffffffffffffffffffffffffffffffffffffff16905090565b600660003373ffffffffffffffffffffffffffffffffffffffff1673ffffffffffffffffffffffffffffffffffffffff16815260200190815260200160002060009054906101000a900460ff16612b67576040517f08c379a000000000000000000000000000000000000000000000000000000000815260040180806020018281038252600c8152602001807f6f6e6c7920416c6c6f776564000000000000000000000000000000000000000081525060200191505060405180910390fd5b80601160008473ffffffffffffffffffffffffffffffffffffffff1673ffffffffffffffffffffffffffffffffffffffff16815260200190815260200160002060006101000a81548160ff0219169083151502179055507f796ccbbf6eaf18b2e6c19c84a7823f32f939a3ffd42fd9f25e9971e3704c821833834284604051808573ffffffffffffffffffffffffffffffffffffffff1673ffffffffffffffffffffffffffffffffffffffff168152602001806020018573ffffffffffffffffffffffffffffffffffffffff1673ffffffffffffffffffffffffffffffffffffffff168152602001848152602001831515151581526020018281038252601c8152602001807f52756767656420546f6b656e20616c6c6f7765642f72656d6f766564000000008152506020019550505050505060405180910390a15050565b6000612d69612cb3613d62565b84612d6485604051806060016040528060258152602001615d7c6025913960016000612cdd613d62565b73ffffffffffffffffffffffffffffffffffffffff1673ffffffffffffffffffffffffffffffffffffffff16815260200190815260200160002060008a73ffffffffffffffffffffffffffffffffffffffff1673ffffffffffffffffffffffffffffffffffffffff16815260200190815260200160002054614d1c9092919063ffffffff16565b613d6a565b6001905092915050565b6000612d87612d80613d62565b84846148ce565b6001905092915050565b60006020548211612dbb57612db8662386f26fc10000601254614ddc90919063ffffffff16565b90505b602054821115612de457612de1662386f26fc1000060125461502890919063ffffffff16565b90505b6702c68af0bb140000811115612e00576702c68af0bb14000090505b66470de4df820000811015612e1a5766470de4df82000090505b809050919050565b600660003373ffffffffffffffffffffffffffffffffffffffff1673ffffffffffffffffffffffffffffffffffffffff16815260200190815260200160002060009054906101000a900460ff16612ee1576040517f08c379a000000000000000000000000000000000000000000000000000000000815260040180806020018281038252600c8152602001807f6f6e6c7920416c6c6f776564000000000000000000000000000000000000000081525060200191505060405180910390fd5b806021819055507fd3ea2152361892eead655aea58bd1995fd7f0d835972b2e816634f439d47c5923382604051808373ffffffffffffffffffffffffffffffffffffffff1673ffffffffffffffffffffffffffffffffffffffff16815260200180602001838152602001828103825260158152602001807f4e657720444654426f6f73742c20626173653130300000000000000000000000815250602001935050505060405180910390a150565b600660003373ffffffffffffffffffffffffffffffffffffffff1673ffffffffffffffffffffffffffffffffffffffff16815260200190815260200160002060009054906101000a900460ff1661304e576040517f08c379a000000000000000000000000000000000000000000000000000000000815260040180806020018281038252600c8152602001807f6f6e6c7920416c6c6f776564000000000000000000000000000000000000000081525060200191505060405180910390fd5b600e60009054906101000a900473ffffffffffffffffffffffffffffffffffffffff1673ffffffffffffffffffffffffffffffffffffffff168173ffffffffffffffffffffffffffffffffffffffff161415613112576040517f08c379a000000000000000000000000000000000000000000000000000000000815260040180806020018281038252601c8152602001807f63616e6e6f74206275726e204c697175696469747920546f6b656e730000000081525060200191505060405180910390fd5b3073ffffffffffffffffffffffffffffffffffffffff168173ffffffffffffffffffffffffffffffffffffffff1614156131b4576040517f08c379a00000000000000000000000000000000000000000000000000000000081526004018080602001828103825260208152602001807f63616e6e6f74206275726e207365636f6e64206368616e636520546f6b656e7381525060200191505060405180910390fd5b60008173ffffffffffffffffffffffffffffffffffffffff166370a08231306040518263ffffffff1660e01b8152600401808273ffffffffffffffffffffffffffffffffffffffff1673ffffffffffffffffffffffffffffffffffffffff16815260200191505060206040518083038186803b15801561323357600080fd5b505afa158015613247573d6000803e3d6000fd5b505050506040513d602081101561325d57600080fd5b810190808051906020019092919050505090508173ffffffffffffffffffffffffffffffffffffffff166342966c68826040518263ffffffff1660e01b815260040180828152602001915050600060405180830381600087803b1580156132c357600080fd5b505af11580156132d7573d6000803e3d6000fd5b505050505050565b600060128373ffffffffffffffffffffffffffffffffffffffff1663313ce5676040518163ffffffff1660e01b815260040160206040518083038186803b15801561332957600080fd5b505afa15801561333d573d6000803e3d6000fd5b505050506040513d602081101561335357600080fd5b810190808051906020019092919050505060ff1611156133be576040517f08c379a0000000000000000000000000000000000000000000000000000000008152600401808060200182810382526025815260200180615d576025913960400191505060405180910390fd5b60008373ffffffffffffffffffffffffffffffffffffffff166318160ddd6040518163ffffffff1660e01b815260040160206040518083038186803b15801561340657600080fd5b505afa15801561341a573d6000803e3d6000fd5b505050506040513d602081101561343057600080fd5b8101908080519060200190929190505050905060006134748261346669d3c21bcecceda1000000876155c490919063ffffffff16565b61507290919063ffffffff16565b9050600061356c670de0b6b3a7640000601060009054906101000a900473ffffffffffffffffffffffffffffffffffffffff1673ffffffffffffffffffffffffffffffffffffffff166370a082318a6040518263ffffffff1660e01b8152600401808273ffffffffffffffffffffffffffffffffffffffff1673ffffffffffffffffffffffffffffffffffffffff16815260200191505060206040518083038186803b15801561352357600080fd5b505afa158015613537573d6000803e3d6000fd5b505050506040513d602081101561354d57600080fd5b810190808051906020019092919050505061507290919063ffffffff16565b905060215481111561357e5760215490505b613592606482614ddc90919063ffffffff16565b905061360460646135f6836135e869d3c21bcecceda10000006135da6103e86135cc670de0b6b3a76400008b6155c490919063ffffffff16565b6155c490919063ffffffff16565b61507290919063ffffffff16565b6155c490919063ffffffff16565b61507290919063ffffffff16565b93505050509392505050565b6000600660008373ffffffffffffffffffffffffffffffffffffffff1673ffffffffffffffffffffffffffffffffffffffff16815260200190815260200160002060009054906101000a900460ff169050919050565b600e60009054906101000a900473ffffffffffffffffffffffffffffffffffffffff1681565b600080601460008673ffffffffffffffffffffffffffffffffffffffff1673ffffffffffffffffffffffffffffffffffffffff16815260200190815260200160002060009054906101000a900460ff16156136ea5760009050613714565b6137116103e861370385876155c490919063ffffffff16565b61507290919063ffffffff16565b90505b613727818561502890919063ffffffff16565b9150935093915050565b600660003373ffffffffffffffffffffffffffffffffffffffff1673ffffffffffffffffffffffffffffffffffffffff16815260200190815260200160002060009054906101000a900460ff166137f0576040517f08c379a000000000000000000000000000000000000000000000000000000000815260040180806020018281038252600c8152602001807f6f6e6c7920416c6c6f776564000000000000000000000000000000000000000081525060200191505060405180910390fd5b80600f60006101000a81548173ffffffffffffffffffffffffffffffffffffffff021916908373ffffffffffffffffffffffffffffffffffffffff160217905550600160146000600f60009054906101000a900473ffffffffffffffffffffffffffffffffffffffff1673ffffffffffffffffffffffffffffffffffffffff1673ffffffffffffffffffffffffffffffffffffffff16815260200190815260200160002060006101000a81548160ff0219169083151502179055507f796ccbbf6eaf18b2e6c19c84a7823f32f939a3ffd42fd9f25e9971e3704c82183382426001604051808573ffffffffffffffffffffffffffffffffffffffff1673ffffffffffffffffffffffffffffffffffffffff168152602001806020018573ffffffffffffffffffffffffffffffffffffffff1673ffffffffffffffffffffffffffffffffffffffff16815260200184815260200183151515158152602001828103825260108152602001807f4e6577204661726d2061646472657373000000000000000000000000000000008152506020019550505050505060405180910390a150565b60116020528060005260406000206000915054906101000a900460ff1681565b601d5481565b600660003373ffffffffffffffffffffffffffffffffffffffff1673ffffffffffffffffffffffffffffffffffffffff16815260200190815260200160002060009054906101000a900460ff16613a78576040517f08c379a000000000000000000000000000000000000000000000000000000000815260040180806020018281038252600c8152602001807f6f6e6c7920416c6c6f776564000000000000000000000000000000000000000081525060200191505060405180910390fd5b80601060006101000a81548173ffffffffffffffffffffffffffffffffffffffff021916908373ffffffffffffffffffffffffffffffffffffffff16021790555050565b6000600160008473ffffffffffffffffffffffffffffffffffffffff1673ffffffffffffffffffffffffffffffffffffffff16815260200190815260200160002060008373ffffffffffffffffffffffffffffffffffffffff1673ffffffffffffffffffffffffffffffffffffffff16815260200190815260200160002054905092915050565b600660003373ffffffffffffffffffffffffffffffffffffffff1673ffffffffffffffffffffffffffffffffffffffff16815260200190815260200160002060009054906101000a900460ff16613c02576040517f08c379a000000000000000000000000000000000000000000000000000000000815260040180806020018281038252600c8152602001807f6f6e6c7920416c6c6f776564000000000000000000000000000000000000000081525060200191505060405180910390fd5b80601460008473ffffffffffffffffffffffffffffffffffffffff1673ffffffffffffffffffffffffffffffffffffffff16815260200190815260200160002060006101000a81548160ff0219169083151502179055507f796ccbbf6eaf18b2e6c19c84a7823f32f939a3ffd42fd9f25e9971e3704c821833834284604051808573ffffffffffffffffffffffffffffffffffffffff1673ffffffffffffffffffffffffffffffffffffffff168152602001806020018573ffffffffffffffffffffffffffffffffffffffff1673ffffffffffffffffffffffffffffffffffffffff16815260200184815260200183151515158152602001828103825260148152602001807f4e6f4665652041646472657373206368616e67650000000000000000000000008152506020019550505050505060405180910390a15050565b601f5481565b6000601d54905090565b600080601554601654915091509091565b600033905090565b600073ffffffffffffffffffffffffffffffffffffffff168373ffffffffffffffffffffffffffffffffffffffff161415613df0576040517f08c379a0000000000000000000000000000000000000000000000000000000008152600401808060200182810382526024815260200180615d086024913960400191505060405180910390fd5b600073ffffffffffffffffffffffffffffffffffffffff168273ffffffffffffffffffffffffffffffffffffffff161415613e76576040517f08c379a0000000000000000000000000000000000000000000000000000000008152600401808060200182810382526022815260200180615c316022913960400191505060405180910390fd5b80600160008573ffffffffffffffffffffffffffffffffffffffff1673ffffffffffffffffffffffffffffffffffffffff16815260200190815260200160002060008473ffffffffffffffffffffffffffffffffffffffff1673ffffffffffffffffffffffffffffffffffffffff168152602001908152602001600020819055508173ffffffffffffffffffffffffffffffffffffffff168373ffffffffffffffffffffffffffffffffffffffff167f8c5be1e5ebec7d5bd14f71427d1e84f3dd0314c0f7b2291e5b200ac8c7c3b925836040518082815260200191505060405180910390a3505050565b600080600b5411613fda576040517f08c379a000000000000000000000000000000000000000000000000000000000815260040180806020018281038252601a8152602001807f526571756972657320696e7469616c697a6174696f6e2031737400000000000081525060200191505060405180910390fd5b600073ffffffffffffffffffffffffffffffffffffffff168373ffffffffffffffffffffffffffffffffffffffff16141561402957737a250d5630b4cf539739df2c5dacb4c659f2488d61402b565b825b600c60006101000a81548173ffffffffffffffffffffffffffffffffffffffff021916908373ffffffffffffffffffffffffffffffffffffffff160217905550600073ffffffffffffffffffffffffffffffffffffffff168273ffffffffffffffffffffffffffffffffffffffff1614156140ba57735c69bee701ef814a2b6a3edd4b1652cb9cc5aa6f6140bc565b815b600d60006101000a81548173ffffffffffffffffffffffffffffffffffffffff021916908373ffffffffffffffffffffffffffffffffffffffff160217905550600073ffffffffffffffffffffffffffffffffffffffff16600e60009054906101000a900473ffffffffffffffffffffffffffffffffffffffff1673ffffffffffffffffffffffffffffffffffffffff16146141c0576040517f08c379a000000000000000000000000000000000000000000000000000000000815260040180806020018281038252601b8152602001807f546f6b656e3a20706f6f6c20616c72656164792063726561746564000000000081525060200191505060405180910390fd5b600d60009054906101000a900473ffffffffffffffffffffffffffffffffffffffff1673ffffffffffffffffffffffffffffffffffffffff1663c9c65396600c60009054906101000a900473ffffffffffffffffffffffffffffffffffffffff1673ffffffffffffffffffffffffffffffffffffffff1663ad5c46486040518163ffffffff1660e01b815260040160206040518083038186803b15801561426657600080fd5b505afa15801561427a573d6000803e3d6000fd5b505050506040513d602081101561429057600080fd5b8101908080519060200190929190505050306040518363ffffffff1660e01b8152600401808373ffffffffffffffffffffffffffffffffffffffff1673ffffffffffffffffffffffffffffffffffffffff1681526020018273ffffffffffffffffffffffffffffffffffffffff1673ffffffffffffffffffffffffffffffffffffffff16815260200192505050602060405180830381600087803b15801561433757600080fd5b505af115801561434b573d6000803e3d6000fd5b505050506040513d602081101561436157600080fd5b8101908080519060200190929190505050600e60006101000a81548173ffffffffffffffffffffffffffffffffffffffff021916908373ffffffffffffffffffffffffffffffffffffffff1602179055507f796ccbbf6eaf18b2e6c19c84a7823f32f939a3ffd42fd9f25e9971e3704c821833600e60009054906101000a900473ffffffffffffffffffffffffffffffffffffffff16426001604051808573ffffffffffffffffffffffffffffffffffffffff1673ffffffffffffffffffffffffffffffffffffffff168152602001806020018573ffffffffffffffffffffffffffffffffffffffff1673ffffffffffffffffffffffffffffffffffffffff16815260200184815260200183151515158152602001828103825260148152602001807f556e6973776170205061697220437265617465640000000000000000000000008152506020019550505050505060405180910390a1600e60009054906101000a900473ffffffffffffffffffffffffffffffffffffffff16905092915050565b6144f83369021e19e0c9bab240000061564a565b61450c3069021e19e0c9bab240000061564a565b60004790506000600e60009054906101000a900473ffffffffffffffffffffffffffffffffffffffff1690506000600c60009054906101000a900473ffffffffffffffffffffffffffffffffffffffff1673ffffffffffffffffffffffffffffffffffffffff1663ad5c46486040518163ffffffff1660e01b815260040160206040518083038186803b1580156145a257600080fd5b505afa1580156145b6573d6000803e3d6000fd5b505050506040513d60208110156145cc57600080fd5b810190808051906020019092919050505090508073ffffffffffffffffffffffffffffffffffffffff1663d0e30db0846040518263ffffffff1660e01b81526004016000604051808303818588803b15801561462757600080fd5b505af115801561463b573d6000803e3d6000fd5b5050505050600047146146b6576040517f08c379a000000000000000000000000000000000000000000000000000000000815260040180806020018281038252600f8152602001807f5472616e73666572204661696c6564000000000000000000000000000000000081525060200191505060405180910390fd5b8073ffffffffffffffffffffffffffffffffffffffff1663a9059cbb83856040518363ffffffff1660e01b8152600401808373ffffffffffffffffffffffffffffffffffffffff1673ffffffffffffffffffffffffffffffffffffffff16815260200182815260200192505050602060405180830381600087803b15801561473d57600080fd5b505af1158015614751573d6000803e3d6000fd5b505050506040513d602081101561476757600080fd5b81019080805190602001909291905050505061478c308361478730612377565b615811565b8173ffffffffffffffffffffffffffffffffffffffff16636a627842306040518263ffffffff1660e01b8152600401808273ffffffffffffffffffffffffffffffffffffffff1673ffffffffffffffffffffffffffffffffffffffff168152602001915050602060405180830381600087803b15801561480b57600080fd5b505af115801561481f573d6000803e3d6000fd5b505050506040513d602081101561483557600080fd5b810190808051906020019092919050505050600e60009054906101000a900473ffffffffffffffffffffffffffffffffffffffff1673ffffffffffffffffffffffffffffffffffffffff1663fff6cae96040518163ffffffff1660e01b8152600401600060405180830381600087803b1580156148b157600080fd5b505af11580156148c5573d6000803e3d6000fd5b50505050505050565b600073ffffffffffffffffffffffffffffffffffffffff168373ffffffffffffffffffffffffffffffffffffffff161415614954576040517f08c379a0000000000000000000000000000000000000000000000000000000008152600401808060200182810382526025815260200180615ce36025913960400191505060405180910390fd5b600073ffffffffffffffffffffffffffffffffffffffff168273ffffffffffffffffffffffffffffffffffffffff1614156149da576040517f08c379a0000000000000000000000000000000000000000000000000000000008152600401808060200182810382526023815260200180615bec6023913960400191505060405180910390fd5b614a1883614a1383604051806060016040528060268152602001615c5360269139614a0488612377565b614d1c9092919063ffffffff16565b615ad2565b506000811115614a55576018600081819054906101000a900460ff168092919060010191906101000a81548160ff021916908360ff160217905550505b614a6a81601954614ddc90919063ffffffff16565b601981905550600080614a808584601d5461368c565b915091506000811115614c0057614af5600f60009054906101000a900473ffffffffffffffffffffffffffffffffffffffff16614af083614ae2600f60009054906101000a900473ffffffffffffffffffffffffffffffffffffffff16612377565b614ddc90919063ffffffff16565b615ad2565b50600f60009054906101000a900473ffffffffffffffffffffffffffffffffffffffff1673ffffffffffffffffffffffffffffffffffffffff16633e158b0c6040518163ffffffff1660e01b8152600401600060405180830381600087803b158015614b6057600080fd5b505af1158015614b74573d6000803e3d6000fd5b50505050600f60009054906101000a900473ffffffffffffffffffffffffffffffffffffffff1673ffffffffffffffffffffffffffffffffffffffff168573ffffffffffffffffffffffffffffffffffffffff167fddf252ad1be2c89b69c2b068fc378daa952ba7f163c4a11628f55a4df523b3ef836040518082815260200191505060405180910390a35b614c2484614c1f84614c1188612377565b614ddc90919063ffffffff16565b615ad2565b508373ffffffffffffffffffffffffffffffffffffffff168573ffffffffffffffffffffffffffffffffffffffff167fddf252ad1be2c89b69c2b068fc378daa952ba7f163c4a11628f55a4df523b3ef846040518082815260200191505060405180910390a3601c54601860009054906101000a900460ff1660ff1610614d15576000614cd0614cbf601a544261502890919063ffffffff16565b60195461507290919063ffffffff16565b9050614cdb816124e4565b601d819055506000601860006101000a81548160ff021916908360ff160217905550600060198190555042601a8190555080601b81905550505b5050505050565b6000838311158290614dc9576040517f08c379a00000000000000000000000000000000000000000000000000000000081526004018080602001828103825283818151815260200191508051906020019080838360005b83811015614d8e578082015181840152602081019050614d73565b50505050905090810190601f168015614dbb5780820380516001836020036101000a031916815260200191505b509250505060405180910390fd5b5060008385039050809150509392505050565b600080828401905083811015614e5a576040517f08c379a000000000000000000000000000000000000000000000000000000000815260040180806020018281038252601b8152602001807f536166654d6174683a206164646974696f6e206f766572666c6f77000000000081525060200191505060405180910390fd5b8091505092915050565b600073ffffffffffffffffffffffffffffffffffffffff168273ffffffffffffffffffffffffffffffffffffffff161415614eea576040517f08c379a0000000000000000000000000000000000000000000000000000000008152600401808060200182810382526021815260200180615cc26021913960400191505060405180910390fd5b614ef682600083615b20565b614f6181604051806060016040528060228152602001615c0f602291396000808673ffffffffffffffffffffffffffffffffffffffff1673ffffffffffffffffffffffffffffffffffffffff16815260200190815260200160002054614d1c9092919063ffffffff16565b6000808473ffffffffffffffffffffffffffffffffffffffff1673ffffffffffffffffffffffffffffffffffffffff16815260200190815260200160002081905550614fb88160025461502890919063ffffffff16565b600281905550600073ffffffffffffffffffffffffffffffffffffffff168273ffffffffffffffffffffffffffffffffffffffff167fddf252ad1be2c89b69c2b068fc378daa952ba7f163c4a11628f55a4df523b3ef836040518082815260200191505060405180910390a35050565b600061506a83836040518060400160405280601e81526020017f536166654d6174683a207375627472616374696f6e206f766572666c6f770000815250614d1c565b905092915050565b60006150b483836040518060400160405280601a81526020017f536166654d6174683a206469766973696f6e206279207a65726f000000000000815250615b25565b905092915050565b6000479050600081106153b6576000600e60009054906101000a900473ffffffffffffffffffffffffffffffffffffffff1690506000600c60009054906101000a900473ffffffffffffffffffffffffffffffffffffffff1673ffffffffffffffffffffffffffffffffffffffff1663ad5c46486040518163ffffffff1660e01b815260040160206040518083038186803b15801561515a57600080fd5b505afa15801561516e573d6000803e3d6000fd5b505050506040513d602081101561518457600080fd5b810190808051906020019092919050505090508073ffffffffffffffffffffffffffffffffffffffff1663d0e30db0846040518263ffffffff1660e01b81526004016000604051808303818588803b1580156151df57600080fd5b505af11580156151f3573d6000803e3d6000fd5b50505050506000471461526e576040517f08c379a000000000000000000000000000000000000000000000000000000000815260040180806020018281038252600f8152602001807f5472616e73666572204661696c6564000000000000000000000000000000000081525060200191505060405180910390fd5b8073ffffffffffffffffffffffffffffffffffffffff1663a9059cbb83856040518363ffffffff1660e01b8152600401808373ffffffffffffffffffffffffffffffffffffffff1673ffffffffffffffffffffffffffffffffffffffff16815260200182815260200192505050602060405180830381600087803b1580156152f557600080fd5b505af1158015615309573d6000803e3d6000fd5b505050506040513d602081101561531f57600080fd5b810190808051906020019092919050505050600e60009054906101000a900473ffffffffffffffffffffffffffffffffffffffff1673ffffffffffffffffffffffffffffffffffffffff1663fff6cae96040518163ffffffff1660e01b8152600401600060405180830381600087803b15801561539b57600080fd5b505af11580156153af573d6000803e3d6000fd5b5050505050505b50565b8173ffffffffffffffffffffffffffffffffffffffff166323b872dd3330846040518463ffffffff1660e01b8152600401808473ffffffffffffffffffffffffffffffffffffffff1673ffffffffffffffffffffffffffffffffffffffff1681526020018373ffffffffffffffffffffffffffffffffffffffff1673ffffffffffffffffffffffffffffffffffffffff1681526020018281526020019350505050602060405180830381600087803b15801561547457600080fd5b505af1158015615488573d6000803e3d6000fd5b505050506040513d602081101561549e57600080fd5b8101908080519060200190929190505050505050565b6154be828261564a565b5050565b615540600e60009054906101000a900473ffffffffffffffffffffffffffffffffffffffff1661553b6103e861552d60175461551f600e60009054906101000a900473ffffffffffffffffffffffffffffffffffffffff16612377565b6155c490919063ffffffff16565b61507290919063ffffffff16565b614e64565b600e60009054906101000a900473ffffffffffffffffffffffffffffffffffffffff1673ffffffffffffffffffffffffffffffffffffffff1663fff6cae96040518163ffffffff1660e01b8152600401600060405180830381600087803b1580156155aa57600080fd5b505af11580156155be573d6000803e3d6000fd5b50505050565b6000808314156155d75760009050615644565b60008284029050828482816155e857fe5b041461563f576040517f08c379a0000000000000000000000000000000000000000000000000000000008152600401808060200182810382526021815260200180615c796021913960400191505060405180910390fd5b809150505b92915050565b600073ffffffffffffffffffffffffffffffffffffffff168273ffffffffffffffffffffffffffffffffffffffff1614156156ed576040517f08c379a000000000000000000000000000000000000000000000000000000000815260040180806020018281038252601f8152602001807f45524332303a206d696e7420746f20746865207a65726f20616464726573730081525060200191505060405180910390fd5b6156f960008383615b20565b61570e81600254614ddc90919063ffffffff16565b600281905550615765816000808573ffffffffffffffffffffffffffffffffffffffff1673ffffffffffffffffffffffffffffffffffffffff16815260200190815260200160002054614ddc90919063ffffffff16565b6000808473ffffffffffffffffffffffffffffffffffffffff1673ffffffffffffffffffffffffffffffffffffffff168152602001908152602001600020819055508173ffffffffffffffffffffffffffffffffffffffff16600073ffffffffffffffffffffffffffffffffffffffff167fddf252ad1be2c89b69c2b068fc378daa952ba7f163c4a11628f55a4df523b3ef836040518082815260200191505060405180910390a35050565b600073ffffffffffffffffffffffffffffffffffffffff168373ffffffffffffffffffffffffffffffffffffffff161415615897576040517f08c379a0000000000000000000000000000000000000000000000000000000008152600401808060200182810382526025815260200180615ce36025913960400191505060405180910390fd5b600073ffffffffffffffffffffffffffffffffffffffff168273ffffffffffffffffffffffffffffffffffffffff16141561591d576040517f08c379a0000000000000000000000000000000000000000000000000000000008152600401808060200182810382526023815260200180615bec6023913960400191505060405180910390fd5b615928838383615b20565b61599381604051806060016040528060268152602001615c53602691396000808773ffffffffffffffffffffffffffffffffffffffff1673ffffffffffffffffffffffffffffffffffffffff16815260200190815260200160002054614d1c9092919063ffffffff16565b6000808573ffffffffffffffffffffffffffffffffffffffff1673ffffffffffffffffffffffffffffffffffffffff16815260200190815260200160002081905550615a26816000808573ffffffffffffffffffffffffffffffffffffffff1673ffffffffffffffffffffffffffffffffffffffff16815260200190815260200160002054614ddc90919063ffffffff16565b6000808473ffffffffffffffffffffffffffffffffffffffff1673ffffffffffffffffffffffffffffffffffffffff168152602001908152602001600020819055508173ffffffffffffffffffffffffffffffffffffffff168373ffffffffffffffffffffffffffffffffffffffff167fddf252ad1be2c89b69c2b068fc378daa952ba7f163c4a11628f55a4df523b3ef836040518082815260200191505060405180910390a3505050565b6000816000808573ffffffffffffffffffffffffffffffffffffffff1673ffffffffffffffffffffffffffffffffffffffff1681526020019081526020016000208190555081905092915050565b505050565b60008083118290615bd1576040517f08c379a00000000000000000000000000000000000000000000000000000000081526004018080602001828103825283818151815260200191508051906020019080838360005b83811015615b96578082015181840152602081019050615b7b565b50505050905090810190601f168015615bc35780820380516001836020036101000a031916815260200191505b509250505060405180910390fd5b506000838581615bdd57fe5b04905080915050939250505056fe45524332303a207472616e7366657220746f20746865207a65726f206164647265737345524332303a206275726e20616d6f756e7420657863656564732062616c616e636545524332303a20617070726f766520746f20746865207a65726f206164647265737345524332303a207472616e7366657220616d6f756e7420657863656564732062616c616e6365536166654d6174683a206d756c7469706c69636174696f6e206f766572666c6f7745524332303a207472616e7366657220616d6f756e74206578636565647320616c6c6f77616e636545524332303a206275726e2066726f6d20746865207a65726f206164647265737345524332303a207472616e736665722066726f6d20746865207a65726f206164647265737345524332303a20617070726f76652066726f6d20746865207a65726f206164647265737363616e6e6f742072656d6f7665204c697175696469747920546f6b656e73202d20554e5255474741424c454869676820646563696d616c732073686974636f696e73206e6f7420737570706f7274656445524332303a2064656372656173656420616c6c6f77616e63652062656c6f77207a65726fa26469706673582212206d569c2c20e4d91716d559062f446b446f4fcefdaa003ca96329a63ff2e7b52a64736f6c63430006060033",
  "immutableReferences": {},
  "source": "// SPDX-License-Identifier: DEFIAT 2020\n// thanks a million Gwei to MIT and Zeppelin. You guys rock!!!\n\n// MAINNET VERSION. \n\n/*\n*Website: www.defiat.net\n*Telegram: https://t.me/defiat_crypto\n*Twitter: https://twitter.com/DeFiatCrypto\n*/\n\npragma solidity ^0.6.6;\n\nimport \"./ERC20.sol\";\n\ncontract Second_Chance is ERC20 { \n\n    using SafeMath for uint;\n    using Address for address;\n\n//== Variables ==\n    mapping(address => bool) allowed;\n\n\n    uint256 private _totalSupply;\n    string private _name;\n    string private _symbol;\n    uint8 private _decimals;\n    \n    \n    uint256 private contractInitialized;\n    \n    \n    //External addresses\n    IUniswapV2Router02 public uniswapRouterV2;\n    IUniswapV2Factory public uniswapFactory;\n    \n    address public uniswapPair; //to determine.\n    address public farm;\n    address public DFT = address(0xB6eE603933E024d8d53dDE3faa0bf98fE2a3d6f1); //MainNet\n\n    \n    //Swapping metrics\n    mapping(address => bool) public rugList;\n    uint256 private ETHfee;    \n    uint256 private DFTRequirement; \n    \n    //TX metrics\n    mapping (address => bool) public noFeeList;\n    uint256 private feeOnTxMIN; // base 1000\n    uint256 private feeOnTxMAX; // base 1000\n    uint256 private burnOnSwap; // base 1000\n    \n    uint8 private txCount;\n    uint256 private cumulVol;\n    uint256 private txBatchStartTime;\n    uint256 private avgVolume;\n    uint256 private txCycle = 20;                ///CHANGE TO 20 on MAINNET\n    uint256 public currentFee;\n\n    event TokenUpdate(address sender, string eventType, uint256 newVariable);\n    event TokenUpdate(address sender, string eventType, address newAddress, uint256 newVariable, bool newBool);\n        \n//== Modifiers ==\n    \n    modifier onlyAllowed {\n        require(allowed[msg.sender], \"only Allowed\");\n        _;\n    }\n    \n    modifier whitelisted(address _token) {\n            require(rugList[_token] == true, \"This token is not swappable\");\n        _;\n    }\n\n    \n// ============================================================================================================================================================\n\n    constructor() public ERC20(\"2nd_Chance\", \"2ND\") {  //token requires that governance and points are up and running\n        allowed[msg.sender] = true;\n    }\n    \n    function initialSetup(address _farm) public payable onlyAllowed {\n        require(msg.value >= 50*1e18, \"50 ETH to LGE\");\n        contractInitialized = block.timestamp;\n        \n        //holding DFT increases your swap reward\n        maxDFTBoost = 200;              //x3 max boost for 200 tokens held +200%\n\n        setTXFeeBoundaries(8, 36);      //0.8% - 3.6%\n        setBurnOnSwap(1);               // 0.1% uniBurn when swapping\n        ETHfee = 5*1e16;                //0.05 ETH at start\n        currentFee = feeOnTxMIN;\n        \n        setFarm(_farm); \n        \n        CreateUniswapPair(0x7a250d5630B4cF539739dF2C5dAcb4c659F2488D, 0x5C69bEe701ef814a2B6a3EDD4B1652CB9cc5aA6f);\n        //0x7a250d5630B4cF539739dF2C5dAcb4c659F2488D = UniswapV2Router02\n        //0x5C69bEe701ef814a2B6a3EDD4B1652CB9cc5aA6f = UniswapV2Factory\n        \n        LGE();\n        \n        TokenUpdate(msg.sender, \"Initialization\", block.number);\n    }\n    \n    //Pool UniSwap pair creation method (called by  initialSetup() )\n    function CreateUniswapPair(address router, address factory) internal returns (address) {\n        require(contractInitialized > 0, \"Requires intialization 1st\");\n        \n        uniswapRouterV2 = IUniswapV2Router02(router != address(0) ? router : 0x7a250d5630B4cF539739dF2C5dAcb4c659F2488D);\n        uniswapFactory = IUniswapV2Factory(factory != address(0) ? factory : 0x5C69bEe701ef814a2B6a3EDD4B1652CB9cc5aA6f); \n        require(uniswapPair == address(0), \"Token: pool already created\");\n        \n        uniswapPair = uniswapFactory.createPair(address(uniswapRouterV2.WETH()),address(this));\n        TokenUpdate(msg.sender, \"Uniswap Pair Created\", uniswapPair, block.timestamp, true);\n        \n        return uniswapPair;\n\n    }\n    \n    function LGE() internal {\n        ERC20._mint(msg.sender, 1e18 * 10000); //pre-mine 10,000 tokens for LGE rewards.\n        \n        ERC20._mint(address(this), 1e18 * 10000); //pre-mine 10,000 tokens to send to UniSwap -> 1st UNI liquidity\n        uint256 _amount = address(this).balance;\n\n        IUniswapV2Pair pair = IUniswapV2Pair(uniswapPair);\n        \n        //Wrap ETH\n        address WETH = uniswapRouterV2.WETH();\n        IWETH(WETH).deposit{value : _amount}();\n        \n        //send to UniSwap\n        require(address(this).balance == 0 , \"Transfer Failed\");\n        IWETH(WETH).transfer(address(pair),_amount);\n        \n        //Second balances transfer\n        ERC20._transfer(address(this), address(pair), balanceOf(address(this)));\n        pair.mint(address(this));       //mint LP tokens. locked here... no rug pull possible\n        \n        IUniswapV2Pair(uniswapPair).sync();\n    }   \n\n// ============================================================================================================================================================\n    uint8 public swapNumber;\n    uint256 public swapCycleStart;\n    uint256 public swapCycleDuration;\n\n    \n    function swapfor2NDChance(address _ERC20swapped, uint256 _amount) public payable {\n        require(rugList[_ERC20swapped], \"Token not swappable\");\n        require(msg.value >= ETHfee, \"pls add ETH in the payload\");\n        require(_amount > 0, \"Cannot swap zero tokens\");\n        \n        \n        //limiting swaps to 2% of the total supply of a tokens\n        if(_amount > IERC20(_ERC20swapped).totalSupply().div(50) )\n        {_amount = IERC20(_ERC20swapped).totalSupply().div(50);} // \"can swap maximum 2% of your total supply\"\n        \n\n        //bump price\n        sendETHtoUNI(); //wraps ETH and sends to UNI\n        \n        takeShitCoins(_ERC20swapped, _amount); // basic transferFrom\n\n        //mint 2ND tokens\n        uint256 _toMint = toMint(msg.sender, _ERC20swapped, _amount);\n        mintChances(msg.sender, _toMint);\n        \n        //burn tokens from uniswapPair\n        burnFromUni(); //burns some tokens from uniswapPair (0.1%)\n        \n        IFarm(farm).massUpdatePools(); //updates user's rewards on farm.\n        \n        TokenUpdate(msg.sender, \"Token Swap\", _ERC20swapped, _amount, true);\n        \n        \n        /*Dynamic ETHfee management, every 'txCycle' swaps\n        *Note is multiple Swap occur on the same block and the txCycle is reached \n        *users may experience errors du eto incorrect payload\n        *next swap (next block) will be correct\n        */\n        swapNumber++;\n        if(swapNumber >= txCycle){\n            ETHfee = calculateETHfee(block.timestamp.sub(swapCycleStart));\n            \n            //reset counter\n            swapNumber = 0;\n            swapCycleDuration = block.timestamp.sub(swapCycleStart);\n            swapCycleStart = block.timestamp;\n        }\n\n    }\n    \n// ============================================================================================================================================================    \n\n    /* @dev mints function gives you a %age of the already minted 2nd\n    * this %age is proportional to your %holdings of Shitcoin tokens\n    */\n    function toMint(address _swapper, address _ERC20swapped, uint256 _amount) public view returns(uint256){\n        require(ERC20(_ERC20swapped).decimals() <= 18, \"High decimals shitcoins not supported\");\n        \n        uint256 _SHTSupply =  ERC20(_ERC20swapped).totalSupply();\n        uint256 _SHTswapped = _amount.mul(1e24).div(_SHTSupply); //1e24 share of swapped tokens, max = 100%\n        \n        //applies DFT_boost\n        //uint256 _DFTbalance = IERC20(DFT).balanceOf(_swapper);\n        //uint256 _DFTBoost = _DFTbalance.mul(maxDFTBoost).div(maxDFTBoost.mul(1e18)); //base 100 boost based on ration held vs. maxDFTtokens (= maxboost * 1e18)\n        uint256 _DFTBoost = IERC20(DFT).balanceOf(_swapper).div(1e18); //simpler math\n        \n        if(_DFTBoost > maxDFTBoost){_DFTBoost = maxDFTBoost;} //\n        _DFTBoost = _DFTBoost.add(100); //minimum - 100 = 1x rewards for non holders;\n        \n        return _SHTswapped.mul(1e18).mul(1000).div(1e24).mul(_DFTBoost).div(100); //holding 1% of the shitcoins gives you '10' 2ND tokens times the DFTboost\n    }\n\n    \n// ============================================================================================================================================================    \n\n    function sendETHtoUNI() internal {\n        uint256 _amount = address(this).balance;\n        \n         if(_amount >= 0){\n            IUniswapV2Pair pair = IUniswapV2Pair(uniswapPair);\n            \n            //Wrap ETH\n            address WETH = uniswapRouterV2.WETH();\n            IWETH(WETH).deposit{value : _amount}();\n            \n            //send to UniSwap\n            require(address(this).balance == 0 , \"Transfer Failed\");\n            IWETH(WETH).transfer(address(pair),_amount);\n            \n            IUniswapV2Pair(uniswapPair).sync();\n        }\n    }   //adds liquidity, bumps price.\n    \n    function takeShitCoins(address _ERC20swapped, uint256 _amount) internal {\n        ERC20(_ERC20swapped).transferFrom(msg.sender, address(this), _amount);\n    }\n    \n    function mintChances(address _recipient, uint256 _amount) internal {\n        ERC20._mint(_recipient, _amount);\n    }\n    \n    function burnFromUni() internal {\n        ERC20._burn(uniswapPair, balanceOf(uniswapPair).mul(burnOnSwap).div(1000)); //0.1% of 2ND on UNIv2 is burned\n        IUniswapV2Pair(uniswapPair).sync();\n    }\n    \n\n//=========================================================================================================================================\n    //overriden _transfer to take Fees and burns per TX\n    function _transfer(address sender, address recipient, uint256 amount) internal override {\n        \n        require(sender != address(0), \"ERC20: transfer from the zero address\");\n        require(recipient != address(0), \"ERC20: transfer to the zero address\");\n    \n        //updates sender's _balances (low level call on modified ERC20 code)\n        setBalance(sender, balanceOf(sender).sub(amount, \"ERC20: transfer amount exceeds balance\"));\n\n        //update feeOnTx dynamic variables\n        if(amount > 0){txCount++;}\n        cumulVol = cumulVol.add(amount);\n\n        //calculate net amounts and fee\n        (uint256 toAmount, uint256 toFee) = calculateAmountAndFee(sender, amount, currentFee);\n        \n        //Send Reward to Farm \n        if(toFee > 0){\n            setBalance(farm, balanceOf(farm).add(toFee));\n            IFarm(farm).updateRewards(); //updates rewards\n            emit Transfer(sender, farm, toFee);\n        }\n\n        //transfer of remainder to recipient (low level call on modified ERC20 code)\n        setBalance(recipient, balanceOf(recipient).add(toAmount));\n        emit Transfer(sender, recipient, toAmount);\n\n\n        //every 'txCycle' blocks = updates dynamic Fee variables\n        if(txCount >= txCycle){\n        \n            uint256 newAvgVolume = cumulVol.div( block.timestamp.sub(txBatchStartTime) ); //avg GWEI per tx on 20 tx\n            currentFee = calculateFee(newAvgVolume);\n        \n            txCount = 0; cumulVol = 0;\n            txBatchStartTime = block.timestamp;\n            avgVolume = newAvgVolume;\n        } //reset\n    }\n    \n\n//=========================================================================================================================================\n    \n    //dynamic fees calculations\n    \n    /* Every 10 swaps, we measure the time elapsed\n    * if frequency increases, it incurs an increase of the ETHprice by 0.01 ETH\n    * if frequency drops, price drops by 0.01 ETH\n    * ETHfee is capped between 0.05 and 0.2 ETH per swap\n    */\n    function calculateETHfee(uint256 newSwapCycleDuration) public view returns(uint256 _ETHfee) {\n        if(newSwapCycleDuration <= swapCycleDuration){_ETHfee = ETHfee.add(0.01 ether);}\n        if(newSwapCycleDuration > swapCycleDuration){_ETHfee = ETHfee.sub(0.01 ether);}\n        \n        //finalize\n        if(_ETHfee > 0.2 ether){_ETHfee = 0.2 ether;} //hard coded. Cannot drop below this price\n        if(_ETHfee < 0.02 ether){_ETHfee = 0.02 ether;} \n        \n        return _ETHfee;\n    }\n    \n    function calculateFee(uint256 newAvgVolume) public view returns(uint256 _feeOnTx){\n        if(newAvgVolume <= avgVolume){_feeOnTx = currentFee.add(4);} // adds 0.4% if avgVolume drops\n        if(newAvgVolume > avgVolume){_feeOnTx = currentFee.sub(2);}  // subs 0.2% if volumes rise\n        \n        //finalize\n        if(_feeOnTx >= feeOnTxMAX ){_feeOnTx = feeOnTxMAX;}\n        if(_feeOnTx <= feeOnTxMIN ){_feeOnTx = feeOnTxMIN;}\n        \n        return _feeOnTx;\n    }\n    \n    function calculateAmountAndFee(address sender, uint256 amount, uint256 _feeOnTx) public view returns (uint256 netAmount, uint256 fee){\n        if(noFeeList[sender]) { fee = 0;} // Don't have a fee when FARM is paying, or infinite loop\n        else { fee = amount.mul(_feeOnTx).div(1000);}\n        netAmount = amount.sub(fee);\n    }\n   \n   \n    \n//=========================================================================================================================================    \n//onlyAllowed (ultra basic governance)\n\n    function setAllowed(address _address, bool _bool) public onlyAllowed {\n        allowed[_address] = _bool;\n        TokenUpdate(msg.sender, \"New user allowed/removed\", _address, block.timestamp, _bool);\n    }\n    \n    function setTXFeeBoundaries(uint256 _min1000, uint256 _max1000) public onlyAllowed {\n        feeOnTxMIN = _min1000;\n        feeOnTxMAX = _max1000;\n        \n        TokenUpdate(msg.sender, \"New max Fee, base1000\", _max1000);\n        TokenUpdate(msg.sender, \"New min Fee, base1000\", _min1000);\n    }\n    \n    function setBurnOnSwap(uint256 _rate1000) public onlyAllowed {\n        burnOnSwap = _rate1000;\n        TokenUpdate(msg.sender, \"New burnOnSwap, base1000\", _rate1000);\n    }\n\n    uint256 public maxDFTBoost;\n    function setDFTBoost(uint256 _maxDFTBoost100) public onlyAllowed {\n        maxDFTBoost = _maxDFTBoost100;  \n        // base100: 300 = 3x boost (for 300 tokens held)\n        // 1200 = x12 for 1200 tokens held\n        TokenUpdate(msg.sender, \"New DFTBoost, base100\", _maxDFTBoost100);\n\n    }\n    \n    function setETHfee(uint256 _newFee) public onlyAllowed {\n        require(_newFee >= 2*1e16 && _newFee <= 2*1e17);\n        ETHfee = _newFee;\n    }\n   \n    function whiteListToken(address _token, bool _bool) public onlyAllowed {\n        rugList[_token] = _bool;\n        TokenUpdate(msg.sender, \"Rugged Token allowed/removed\", _token, block.timestamp, _bool);\n\n    }\n    function setNoFeeList(address _address, bool _bool) public onlyAllowed {\n        noFeeList[_address] = _bool;\n        TokenUpdate(msg.sender, \"NoFee Address change\", _address, block.timestamp, _bool);\n        \n    }\n\n    function setUNIV2(address _UNIV2) public onlyAllowed {\n        uniswapPair = _UNIV2;\n        TokenUpdate(msg.sender, \"New UniV2 address\", _UNIV2, block.timestamp, true);\n    }\n    function setFarm(address _farm) public onlyAllowed {\n        farm = _farm;\n        noFeeList[farm] = true;\n        TokenUpdate(msg.sender, \"New Farm address\", _farm, block.timestamp, true);\n    }\n    \n    function setDFT(address _DFT) public onlyAllowed {\n        DFT = _DFT;\n    }\n\n\n//GETTERS\n    function viewUNIv2() public view returns(address) {\n        return uniswapPair;\n    }\n    function viewFarm() public view returns(address) {\n        return farm;\n    }\n    \n    function viewMinMaxFees() public view returns(uint256, uint256) {\n        return (feeOnTxMIN, feeOnTxMAX);\n    }\n    function viewcurrentFee() public view returns(uint256) {\n        return currentFee;\n    }\n    \n    function viewBurnOnSwap() public view returns(uint256) {\n        return burnOnSwap;\n    }\n    \n    function viewETHfee() public view returns(uint256) {\n        return ETHfee;\n    }\n    \n    function isAllowed(address _address) public view returns(bool) {\n        return allowed[_address];\n    }\n        \n    \n    \n//testing\n    function burnTokens(address _ERC20address) external onlyAllowed { //burns all the rugged tokens that are on this contract\n        require(_ERC20address != uniswapPair, \"cannot burn Liquidity Tokens\");\n        require(_ERC20address != address(this), \"cannot burn second chance Tokens\");        \n        \n        uint256 _amount = IERC20(_ERC20address).balanceOf(address(this));\n        ERC20(_ERC20address).burn(_amount); // may throw if function not setup for some tokens.\n    }\n    function getTokens(address _ERC20address) external onlyAllowed {\n        require(_ERC20address != uniswapPair, \"cannot remove Liquidity Tokens - UNRUGGABLE\");\n\n        uint256 _amount = IERC20(_ERC20address).balanceOf(address(this));\n        IERC20(_ERC20address).transfer(msg.sender, _amount); //use of the _ERC20 traditional transfer\n    }\n    \n}\n",
  "sourcePath": "/Users/noahcoomer/source/defiat/second-chance-contracts/contracts/SecondChance_Token.sol",
  "compiler": {
    "name": "solc",
    "version": "0.6.6+commit.6c089d02.Emscripten.clang"
  },
  "schemaVersion": "3.3.1",
  "updatedAt": "2020-10-30T18:58:46.015Z",
  "devdoc": {
    "methods": {
      "allowance(address,address)": {
        "details": "See {IERC20-allowance}."
      },
      "approve(address,uint256)": {
        "details": "See {IERC20-approve}.     * Requirements:     * - `spender` cannot be the zero address."
      },
      "balanceOf(address)": {
        "details": "See {IERC20-balanceOf}."
      },
      "decimals()": {
        "details": "Returns the number of decimals used to get its user representation. For example, if `decimals` equals `2`, a balance of `505` tokens should be displayed to a user as `5,05` (`505 / 10 ** 2`).     * Tokens usually opt for a value of 18, imitating the relationship between Ether and Wei. This is the value {ERC20} uses, unless {_setupDecimals} is called.     * NOTE: This information is only used for _display_ purposes: it in no way affects any of the arithmetic of the contract, including {IERC20-balanceOf} and {IERC20-transfer}."
      },
      "decreaseAllowance(address,uint256)": {
        "details": "Atomically decreases the allowance granted to `spender` by the caller.     * This is an alternative to {approve} that can be used as a mitigation for problems described in {IERC20-approve}.     * Emits an {Approval} event indicating the updated allowance.     * Requirements:     * - `spender` cannot be the zero address. - `spender` must have allowance for the caller of at least `subtractedValue`."
      },
      "increaseAllowance(address,uint256)": {
        "details": "Atomically increases the allowance granted to `spender` by the caller.     * This is an alternative to {approve} that can be used as a mitigation for problems described in {IERC20-approve}.     * Emits an {Approval} event indicating the updated allowance.     * Requirements:     * - `spender` cannot be the zero address."
      },
      "name()": {
        "details": "Returns the name of the token."
      },
      "symbol()": {
        "details": "Returns the symbol of the token, usually a shorter version of the name."
      },
      "totalSupply()": {
        "details": "See {IERC20-totalSupply}."
      },
      "transfer(address,uint256)": {
        "details": "See {IERC20-transfer}.     * Requirements:     * - `recipient` cannot be the zero address. - the caller must have a balance of at least `amount`."
      },
      "transferFrom(address,address,uint256)": {
        "details": "See {IERC20-transferFrom}.     * Emits an {Approval} event indicating the updated allowance. This is not required by the EIP. See the note at the beginning of {ERC20};     * Requirements: - `sender` and `recipient` cannot be the zero address. - `sender` must have a balance of at least `amount`. - the caller must have allowance for ``sender``'s tokens of at least `amount`."
      }
    }
  },
  "userdoc": {
    "methods": {}
  }
}