{
  "contractName": "Allowable",
  "abi": [
    {
      "inputs": [
        {
          "internalType": "address",
          "name": "_address",
          "type": "address"
        },
        {
          "internalType": "bool",
          "name": "_bool",
          "type": "bool"
        }
      ],
      "name": "manageAllowed",
      "outputs": [],
      "stateMutability": "nonpayable",
      "type": "function"
    }
  ],
  "bytecode": "0x608060405234801561001057600080fd5b506101e4806100206000396000f3fe608060405234801561001057600080fd5b506004361061002b5760003560e01c8063ec0b080014610030575b600080fd5b61007e6004803603604081101561004657600080fd5b81019080803573ffffffffffffffffffffffffffffffffffffffff169060200190929190803515159060200190929190505050610080565b005b6001151560008061008f6101a6565b73ffffffffffffffffffffffffffffffffffffffff1673ffffffffffffffffffffffffffffffffffffffff16815260200190815260200160002060009054906101000a900460ff1615151461014c576040517f08c379a000000000000000000000000000000000000000000000000000000000815260040180806020018281038252600b8152602001807f6f6e6c79416c6c6f77656400000000000000000000000000000000000000000081525060200191505060405180910390fd5b806000808473ffffffffffffffffffffffffffffffffffffffff1673ffffffffffffffffffffffffffffffffffffffff16815260200190815260200160002060006101000a81548160ff0219169083151502179055505050565b60003390509056fea26469706673582212200cb384e4e0a9a37a5f1017179899ced257856274cf295c30bce05d47540c144d64736f6c63430006060033",
  "immutableReferences": {},
  "source": "// SPDX-License-Identifier: MIT\n\npragma solidity ^0.6.0;\n\nimport \"./Context.sol\";\n\ncontract Allowable is Context {\n    mapping(address => bool) allowed;\n    \n    modifier onlyAllowed() {\n        require(allowed[_msgSender()] == true, \"onlyAllowed\");\n        _;\n    }\n    function manageAllowed(address _address, bool _bool) public onlyAllowed {\n        allowed[_address] = _bool;\n    }\n}",
  "sourcePath": "/Users/noahcoomer/source/defiat/defiat-contracts/contracts/Allowable.sol",
  "compiler": {
    "name": "solc",
    "version": "0.6.6+commit.6c089d02.Emscripten.clang"
  },
  "schemaVersion": "3.3.1",
  "updatedAt": "2020-10-20T07:07:31.540Z",
  "devdoc": {
    "methods": {}
  },
  "userdoc": {
    "methods": {}
  }
}