{
  "contractName": "DeFiat_VotingPower",
  "abi": [
    {
      "inputs": [],
      "stateMutability": "nonpayable",
      "type": "constructor"
    },
    {
      "inputs": [],
      "name": "UNIfactory",
      "outputs": [
        {
          "internalType": "address",
          "name": "",
          "type": "address"
        }
      ],
      "stateMutability": "view",
      "type": "function"
    },
    {
      "inputs": [],
      "name": "defiat",
      "outputs": [
        {
          "internalType": "address",
          "name": "",
          "type": "address"
        }
      ],
      "stateMutability": "view",
      "type": "function"
    },
    {
      "inputs": [],
      "name": "defiatLp",
      "outputs": [
        {
          "internalType": "address",
          "name": "",
          "type": "address"
        }
      ],
      "stateMutability": "view",
      "type": "function"
    },
    {
      "inputs": [
        {
          "internalType": "address",
          "name": "_token",
          "type": "address"
        }
      ],
      "name": "getTokenInfo",
      "outputs": [
        {
          "internalType": "string",
          "name": "name",
          "type": "string"
        },
        {
          "internalType": "string",
          "name": "symbol",
          "type": "string"
        },
        {
          "internalType": "uint8",
          "name": "decimals",
          "type": "uint8"
        },
        {
          "internalType": "address",
          "name": "uniPair",
          "type": "address"
        },
        {
          "internalType": "uint256",
          "name": "tokensPerETH",
          "type": "uint256"
        }
      ],
      "stateMutability": "view",
      "type": "function"
    },
    {
      "inputs": [
        {
          "internalType": "address",
          "name": "_token",
          "type": "address"
        }
      ],
      "name": "getUniPrice",
      "outputs": [
        {
          "internalType": "uint256",
          "name": "",
          "type": "uint256"
        }
      ],
      "stateMutability": "view",
      "type": "function"
    },
    {
      "inputs": [
        {
          "internalType": "address",
          "name": "_token",
          "type": "address"
        }
      ],
      "name": "isUniLiquidityToken",
      "outputs": [
        {
          "internalType": "bool",
          "name": "",
          "type": "bool"
        }
      ],
      "stateMutability": "view",
      "type": "function"
    },
    {
      "inputs": [],
      "name": "kill",
      "outputs": [],
      "stateMutability": "nonpayable",
      "type": "function"
    },
    {
      "inputs": [
        {
          "internalType": "address",
          "name": "_address",
          "type": "address"
        },
        {
          "internalType": "bool",
          "name": "_bool",
          "type": "bool"
        }
      ],
      "name": "manageAllowed",
      "outputs": [],
      "stateMutability": "nonpayable",
      "type": "function"
    },
    {
      "inputs": [],
      "name": "owner",
      "outputs": [
        {
          "internalType": "address",
          "name": "",
          "type": "address"
        }
      ],
      "stateMutability": "view",
      "type": "function"
    },
    {
      "inputs": [
        {
          "internalType": "uint256",
          "name": "",
          "type": "uint256"
        }
      ],
      "name": "stakingPools",
      "outputs": [
        {
          "internalType": "address",
          "name": "poolAddress",
          "type": "address"
        },
        {
          "internalType": "address",
          "name": "stakedAddress",
          "type": "address"
        },
        {
          "internalType": "address",
          "name": "rewardAddress",
          "type": "address"
        }
      ],
      "stateMutability": "view",
      "type": "function"
    },
    {
      "inputs": [],
      "name": "uniSymbol",
      "outputs": [
        {
          "internalType": "string",
          "name": "",
          "type": "string"
        }
      ],
      "stateMutability": "view",
      "type": "function"
    },
    {
      "inputs": [],
      "name": "wETHaddress",
      "outputs": [
        {
          "internalType": "address",
          "name": "",
          "type": "address"
        }
      ],
      "stateMutability": "view",
      "type": "function"
    },
    {
      "inputs": [],
      "name": "wethAddress",
      "outputs": [
        {
          "internalType": "address",
          "name": "",
          "type": "address"
        }
      ],
      "stateMutability": "view",
      "type": "function"
    },
    {
      "inputs": [
        {
          "internalType": "address",
          "name": "_token",
          "type": "address"
        }
      ],
      "name": "withdrawAnyToken",
      "outputs": [
        {
          "internalType": "bool",
          "name": "",
          "type": "bool"
        }
      ],
      "stateMutability": "nonpayable",
      "type": "function"
    },
    {
      "inputs": [
        {
          "internalType": "address",
          "name": "_address",
          "type": "address"
        }
      ],
      "name": "myVotingPower",
      "outputs": [
        {
          "internalType": "uint256",
          "name": "",
          "type": "uint256"
        }
      ],
      "stateMutability": "view",
      "type": "function"
    },
    {
      "inputs": [
        {
          "internalType": "address",
          "name": "tokenAddress",
          "type": "address"
        },
        {
          "internalType": "uint256",
          "name": "stakedTokens",
          "type": "uint256"
        }
      ],
      "name": "getLiquidityTokenPower",
      "outputs": [
        {
          "internalType": "uint256",
          "name": "",
          "type": "uint256"
        }
      ],
      "stateMutability": "view",
      "type": "function"
    },
    {
      "inputs": [
        {
          "internalType": "address",
          "name": "_poolAddress",
          "type": "address"
        },
        {
          "internalType": "address",
          "name": "_stakedAddress",
          "type": "address"
        },
        {
          "internalType": "address",
          "name": "_rewardAddress",
          "type": "address"
        }
      ],
      "name": "pushStakingPool",
      "outputs": [],
      "stateMutability": "nonpayable",
      "type": "function"
    },
    {
      "inputs": [],
      "name": "popStakingPool",
      "outputs": [],
      "stateMutability": "nonpayable",
      "type": "function"
    },
    {
      "inputs": [],
      "name": "flushPools",
      "outputs": [],
      "stateMutability": "nonpayable",
      "type": "function"
    }
  ],
  "bytecode": "0x60806040523480156200001157600080fd5b50735c69bee701ef814a2b6a3edd4b1652cb9cc5aa6f73c02aaa39b223fe8d0a0e5c4f27ead9083c756cc233600360006101000a81548173ffffffffffffffffffffffffffffffffffffffff021916908373ffffffffffffffffffffffffffffffffffffffff16021790555081600160006101000a81548173ffffffffffffffffffffffffffffffffffffffff021916908373ffffffffffffffffffffffffffffffffffffffff16021790555080600260006101000a81548173ffffffffffffffffffffffffffffffffffffffff021916908373ffffffffffffffffffffffffffffffffffffffff1602179055506040518060400160405280600681526020017f554e492d56320000000000000000000000000000000000000000000000000000815250600490805190602001906200014c929190620001ff565b50505073b6ee603933e024d8d53dde3faa0bf98fe2a3d6f1600560006101000a81548173ffffffffffffffffffffffffffffffffffffffff021916908373ffffffffffffffffffffffffffffffffffffffff16021790555073e2a1d215d03d7e9fa0ed66355c86678561e4940a600660006101000a81548173ffffffffffffffffffffffffffffffffffffffff021916908373ffffffffffffffffffffffffffffffffffffffff160217905550620002ae565b828054600181600116156101000203166002900490600052602060002090601f016020900481019282601f106200024257805160ff191683800117855562000273565b8280016001018555821562000273579182015b828111156200027257825182559160200191906001019062000255565b5b50905062000282919062000286565b5090565b620002ab91905b80821115620002a75760008160009055506001016200028d565b5090565b90565b612e6e80620002be6000396000f3fe608060405234801561001057600080fd5b50600436106101215760003560e01c80637892766c116100ad578063b1bc310511610071578063b1bc3105146106cd578063bd20d19614610725578063e813bee41461072f578063ec0b0800146107b3578063f810f8281461080357610121565b80637892766c1461057b57806380cbce00146105d757806380fd6698146105e15780638da5cb5b1461062b578063939acd881461067557610121565b80634f0e0ef3116100f45780634f0e0ef3146103465780635aad6cf0146103905780635f9be6d61461046457806367b52f54146104e75780636ffc7cf11461053157610121565b80631f69565f14610126578063260eb0e11461029657806341c0e1b5146102f257806347758e48146102fc575b600080fd5b6101686004803603602081101561013c57600080fd5b81019080803573ffffffffffffffffffffffffffffffffffffffff169060200190929190505050610865565b6040518080602001806020018660ff1660ff1681526020018573ffffffffffffffffffffffffffffffffffffffff1673ffffffffffffffffffffffffffffffffffffffff168152602001848152602001838103835288818151815260200191508051906020019080838360005b838110156101f05780820151818401526020810190506101d5565b50505050905090810190601f16801561021d5780820380516001836020036101000a031916815260200191505b50838103825287818151815260200191508051906020019080838360005b8381101561025657808201518184015260208101905061023b565b50505050905090810190601f1680156102835780820380516001836020036101000a031916815260200191505b5097505050505050505060405180910390f35b6102d8600480360360208110156102ac57600080fd5b81019080803573ffffffffffffffffffffffffffffffffffffffff169060200190929190505050610b91565b604051808215151515815260200191505060405180910390f35b6102fa610d5c565b005b610304610e48565b604051808273ffffffffffffffffffffffffffffffffffffffff1673ffffffffffffffffffffffffffffffffffffffff16815260200191505060405180910390f35b61034e610e6e565b604051808273ffffffffffffffffffffffffffffffffffffffff1673ffffffffffffffffffffffffffffffffffffffff16815260200191505060405180910390f35b6103bc600480360360208110156103a657600080fd5b8101908080359060200190929190505050610e94565b604051808473ffffffffffffffffffffffffffffffffffffffff1673ffffffffffffffffffffffffffffffffffffffff1681526020018373ffffffffffffffffffffffffffffffffffffffff1673ffffffffffffffffffffffffffffffffffffffff1681526020018273ffffffffffffffffffffffffffffffffffffffff1673ffffffffffffffffffffffffffffffffffffffff168152602001935050505060405180910390f35b61046c610f1e565b6040518080602001828103825283818151815260200191508051906020019080838360005b838110156104ac578082015181840152602081019050610491565b50505050905090810190601f1680156104d95780820380516001836020036101000a031916815260200191505b509250505060405180910390f35b6104ef610fbc565b604051808273ffffffffffffffffffffffffffffffffffffffff1673ffffffffffffffffffffffffffffffffffffffff16815260200191505060405180910390f35b610539610fe2565b604051808273ffffffffffffffffffffffffffffffffffffffff1673ffffffffffffffffffffffffffffffffffffffff16815260200191505060405180910390f35b6105bd6004803603602081101561059157600080fd5b81019080803573ffffffffffffffffffffffffffffffffffffffff169060200190929190505050611008565b604051808215151515815260200191505060405180910390f35b6105df6111af565b005b6105e9611386565b604051808273ffffffffffffffffffffffffffffffffffffffff1673ffffffffffffffffffffffffffffffffffffffff16815260200191505060405180910390f35b6106336113ac565b604051808273ffffffffffffffffffffffffffffffffffffffff1673ffffffffffffffffffffffffffffffffffffffff16815260200191505060405180910390f35b6106b76004803603602081101561068b57600080fd5b81019080803573ffffffffffffffffffffffffffffffffffffffff1690602001909291905050506113d2565b6040518082815260200191505060405180910390f35b61070f600480360360208110156106e357600080fd5b81019080803573ffffffffffffffffffffffffffffffffffffffff169060200190929190505050611423565b6040518082815260200191505060405180910390f35b61072d611856565b005b6107b16004803603606081101561074557600080fd5b81019080803573ffffffffffffffffffffffffffffffffffffffff169060200190929190803573ffffffffffffffffffffffffffffffffffffffff169060200190929190803573ffffffffffffffffffffffffffffffffffffffff169060200190929190505050611a3e565b005b610801600480360360408110156107c957600080fd5b81019080803573ffffffffffffffffffffffffffffffffffffffff169060200190929190803515159060200190929190505050611c5e565b005b61084f6004803603604081101561081957600080fd5b81019080803573ffffffffffffffffffffffffffffffffffffffff16906020019092919080359060200190929190505050611d84565b6040518082815260200191505060405180910390f35b60608060008060008573ffffffffffffffffffffffffffffffffffffffff166306fdde036040518163ffffffff1660e01b815260040160006040518083038186803b1580156108b357600080fd5b505afa1580156108c7573d6000803e3d6000fd5b505050506040513d6000823e3d601f19601f8201168201806040525060208110156108f157600080fd5b810190808051604051939291908464010000000082111561091157600080fd5b8382019150602082018581111561092757600080fd5b825186600182028301116401000000008211171561094457600080fd5b8083526020830192505050908051906020019080838360005b8381101561097857808201518184015260208101905061095d565b50505050905090810190601f1680156109a55780820380516001836020036101000a031916815260200191505b506040525050508673ffffffffffffffffffffffffffffffffffffffff166395d89b416040518163ffffffff1660e01b815260040160006040518083038186803b1580156109f257600080fd5b505afa158015610a06573d6000803e3d6000fd5b505050506040513d6000823e3d601f19601f820116820180604052506020811015610a3057600080fd5b8101908080516040519392919084640100000000821115610a5057600080fd5b83820191506020820185811115610a6657600080fd5b8251866001820283011164010000000082111715610a8357600080fd5b8083526020830192505050908051906020019080838360005b83811015610ab7578082015181840152602081019050610a9c565b50505050905090810190601f168015610ae45780820380516001836020036101000a031916815260200191505b506040525050508773ffffffffffffffffffffffffffffffffffffffff1663313ce5676040518163ffffffff1660e01b815260040160206040518083038186803b158015610b3157600080fd5b505afa158015610b45573d6000803e3d6000fd5b505050506040513d6020811015610b5b57600080fd5b8101908080519060200190929190505050610b7589612198565b610b7e8a6113d2565b9450945094509450945091939590929450565b600060046040518082805460018160011615610100020316600290048015610bf05780601f10610bce576101008083540402835291820191610bf0565b820191906000526020600020905b815481529060010190602001808311610bdc575b505091505060405180910390208273ffffffffffffffffffffffffffffffffffffffff166395d89b416040518163ffffffff1660e01b815260040160006040518083038186803b158015610c4357600080fd5b505afa158015610c57573d6000803e3d6000fd5b505050506040513d6000823e3d601f19601f820116820180604052506020811015610c8157600080fd5b8101908080516040519392919084640100000000821115610ca157600080fd5b83820191506020820185811115610cb757600080fd5b8251866001820283011164010000000082111715610cd457600080fd5b8083526020830192505050908051906020019080838360005b83811015610d08578082015181840152602081019050610ced565b50505050905090810190601f168015610d355780820380516001836020036101000a031916815260200191505b50604052505050805190602001201415610d525760019050610d57565b600090505b919050565b60011515600080610d6b6122e8565b73ffffffffffffffffffffffffffffffffffffffff1673ffffffffffffffffffffffffffffffffffffffff16815260200190815260200160002060009054906101000a900460ff16151514610e28576040517f08c379a000000000000000000000000000000000000000000000000000000000815260040180806020018281038252600b8152602001807f6f6e6c79416c6c6f77656400000000000000000000000000000000000000000081525060200191505060405180910390fd5b610e306122e8565b73ffffffffffffffffffffffffffffffffffffffff16ff5b600560009054906101000a900473ffffffffffffffffffffffffffffffffffffffff1681565b600760009054906101000a900473ffffffffffffffffffffffffffffffffffffffff1681565b60096020528060005260406000206000915090508060000160009054906101000a900473ffffffffffffffffffffffffffffffffffffffff16908060010160009054906101000a900473ffffffffffffffffffffffffffffffffffffffff16908060020160009054906101000a900473ffffffffffffffffffffffffffffffffffffffff16905083565b60048054600181600116156101000203166002900480601f016020809104026020016040519081016040528092919081815260200182805460018160011615610100020316600290048015610fb45780601f10610f8957610100808354040283529160200191610fb4565b820191906000526020600020905b815481529060010190602001808311610f9757829003601f168201915b505050505081565b600160009054906101000a900473ffffffffffffffffffffffffffffffffffffffff1681565b600260009054906101000a900473ffffffffffffffffffffffffffffffffffffffff1681565b6000600115156000806110196122e8565b73ffffffffffffffffffffffffffffffffffffffff1673ffffffffffffffffffffffffffffffffffffffff16815260200190815260200160002060009054906101000a900460ff161515146110d6576040517f08c379a000000000000000000000000000000000000000000000000000000000815260040180806020018281038252600b8152602001807f6f6e6c79416c6c6f77656400000000000000000000000000000000000000000081525060200191505060405180910390fd5b60008273ffffffffffffffffffffffffffffffffffffffff166370a08231306040518263ffffffff1660e01b8152600401808273ffffffffffffffffffffffffffffffffffffffff1673ffffffffffffffffffffffffffffffffffffffff16815260200191505060206040518083038186803b15801561115557600080fd5b505afa158015611169573d6000803e3d6000fd5b505050506040513d602081101561117f57600080fd5b810190808051906020019092919050505090506111a461119d6122e8565b84836122f0565b506001915050919050565b600360009054906101000a900473ffffffffffffffffffffffffffffffffffffffff1673ffffffffffffffffffffffffffffffffffffffff163373ffffffffffffffffffffffffffffffffffffffff1614611272576040517f08c379a000000000000000000000000000000000000000000000000000000000815260040180806020018281038252600a8152602001807f6f6e6c79206f776e65720000000000000000000000000000000000000000000081525060200191505060405180910390fd5b6000600854116112ea576040517f08c379a000000000000000000000000000000000000000000000000000000000815260040180806020018281038252600f8152602001807f4e6f7468696e6720746f20706f7021000000000000000000000000000000000081525060200191505060405180910390fd5b60096000600860008154600190039190508190558152602001908152602001600020600080820160006101000a81549073ffffffffffffffffffffffffffffffffffffffff02191690556001820160006101000a81549073ffffffffffffffffffffffffffffffffffffffff02191690556002820160006101000a81549073ffffffffffffffffffffffffffffffffffffffff02191690555050565b600660009054906101000a900473ffffffffffffffffffffffffffffffffffffffff1681565b600360009054906101000a900473ffffffffffffffffffffffffffffffffffffffff1681565b6000806000806113e1856123c0565b80935081945050506113f2856128fa565b90506114198261140b8386612a1290919063ffffffff16565b612a9890919063ffffffff16565b9350505050919050565b6000806000600560009054906101000a900473ffffffffffffffffffffffffffffffffffffffff1673ffffffffffffffffffffffffffffffffffffffff166370a08231856040518263ffffffff1660e01b8152600401808273ffffffffffffffffffffffffffffffffffffffff1673ffffffffffffffffffffffffffffffffffffffff16815260200191505060206040518083038186803b1580156114c757600080fd5b505afa1580156114db573d6000803e3d6000fd5b505050506040513d60208110156114f157600080fd5b810190808051906020019092919050505090506000600660009054906101000a900473ffffffffffffffffffffffffffffffffffffffff1673ffffffffffffffffffffffffffffffffffffffff166370a08231866040518263ffffffff1660e01b8152600401808273ffffffffffffffffffffffffffffffffffffffff1673ffffffffffffffffffffffffffffffffffffffff16815260200191505060206040518083038186803b1580156115a557600080fd5b505afa1580156115b9573d6000803e3d6000fd5b505050506040513d60208110156115cf57600080fd5b810190808051906020019092919050505090506000611610600660009054906101000a900473ffffffffffffffffffffffffffffffffffffffff1683611d84565b905060008090505b6008548110156118255761162a612db4565b600960008381526020019081526020016000206040518060600160405290816000820160009054906101000a900473ffffffffffffffffffffffffffffffffffffffff1673ffffffffffffffffffffffffffffffffffffffff1673ffffffffffffffffffffffffffffffffffffffff1681526020016001820160009054906101000a900473ffffffffffffffffffffffffffffffffffffffff1673ffffffffffffffffffffffffffffffffffffffff1673ffffffffffffffffffffffffffffffffffffffff1681526020016002820160009054906101000a900473ffffffffffffffffffffffffffffffffffffffff1673ffffffffffffffffffffffffffffffffffffffff1673ffffffffffffffffffffffffffffffffffffffff16815250509050600061175c898360000151612ae2565b905061176b8260200151610b91565b156117815761177e826020015182611d84565b90505b6000600560009054906101000a900473ffffffffffffffffffffffffffffffffffffffff1673ffffffffffffffffffffffffffffffffffffffff16836040015173ffffffffffffffffffffffffffffffffffffffff1614156117ee576117eb8a8460000151612ba4565b90505b61181381611805848b612c6690919063ffffffff16565b612c6690919063ffffffff16565b97505050508080600101915050611618565b5061184b8161183d8587612c6690919063ffffffff16565b612c6690919063ffffffff16565b945050505050919050565b600360009054906101000a900473ffffffffffffffffffffffffffffffffffffffff1673ffffffffffffffffffffffffffffffffffffffff163373ffffffffffffffffffffffffffffffffffffffff1614611919576040517f08c379a000000000000000000000000000000000000000000000000000000000815260040180806020018281038252600a8152602001807f6f6e6c79206f776e65720000000000000000000000000000000000000000000081525060200191505060405180910390fd5b600060085411611991576040517f08c379a000000000000000000000000000000000000000000000000000000000815260040180806020018281038252600f8152602001807f4e6f7468696e6720746f20706f7021000000000000000000000000000000000081525060200191505060405180910390fd5b5b60006008541115611a3c5760096000600860008154600190039190508190558152602001908152602001600020600080820160006101000a81549073ffffffffffffffffffffffffffffffffffffffff02191690556001820160006101000a81549073ffffffffffffffffffffffffffffffffffffffff02191690556002820160006101000a81549073ffffffffffffffffffffffffffffffffffffffff02191690555050611992565b565b600360009054906101000a900473ffffffffffffffffffffffffffffffffffffffff1673ffffffffffffffffffffffffffffffffffffffff163373ffffffffffffffffffffffffffffffffffffffff1614611b01576040517f08c379a000000000000000000000000000000000000000000000000000000000815260040180806020018281038252600a8152602001807f6f6e6c79206f776e65720000000000000000000000000000000000000000000081525060200191505060405180910390fd5b60405180606001604052808473ffffffffffffffffffffffffffffffffffffffff1681526020018373ffffffffffffffffffffffffffffffffffffffff1681526020018273ffffffffffffffffffffffffffffffffffffffff16815250600960006008600081548092919060010191905055815260200190815260200160002060008201518160000160006101000a81548173ffffffffffffffffffffffffffffffffffffffff021916908373ffffffffffffffffffffffffffffffffffffffff16021790555060208201518160010160006101000a81548173ffffffffffffffffffffffffffffffffffffffff021916908373ffffffffffffffffffffffffffffffffffffffff16021790555060408201518160020160006101000a81548173ffffffffffffffffffffffffffffffffffffffff021916908373ffffffffffffffffffffffffffffffffffffffff160217905550905050505050565b60011515600080611c6d6122e8565b73ffffffffffffffffffffffffffffffffffffffff1673ffffffffffffffffffffffffffffffffffffffff16815260200190815260200160002060009054906101000a900460ff16151514611d2a576040517f08c379a000000000000000000000000000000000000000000000000000000000815260040180806020018281038252600b8152602001807f6f6e6c79416c6c6f77656400000000000000000000000000000000000000000081525060200191505060405180910390fd5b806000808473ffffffffffffffffffffffffffffffffffffffff1673ffffffffffffffffffffffffffffffffffffffff16815260200190815260200160002060006101000a81548160ff0219169083151502179055505050565b60008060008060008673ffffffffffffffffffffffffffffffffffffffff16630dfe16816040518163ffffffff1660e01b815260040160206040518083038186803b158015611dd257600080fd5b505afa158015611de6573d6000803e3d6000fd5b505050506040513d6020811015611dfc57600080fd5b8101908080519060200190929190505050905060008773ffffffffffffffffffffffffffffffffffffffff1663d21220a76040518163ffffffff1660e01b815260040160206040518083038186803b158015611e5757600080fd5b505afa158015611e6b573d6000803e3d6000fd5b505050506040513d6020811015611e8157600080fd5b81019080805190602001909291905050509050600760009054906101000a900473ffffffffffffffffffffffffffffffffffffffff1673ffffffffffffffffffffffffffffffffffffffff168273ffffffffffffffffffffffffffffffffffffffff161415611f98578773ffffffffffffffffffffffffffffffffffffffff16630902f1ac6040518163ffffffff1660e01b815260040160606040518083038186803b158015611f3057600080fd5b505afa158015611f44573d6000803e3d6000fd5b505050506040513d6060811015611f5a57600080fd5b81019080805190602001909291908051906020019092919080519060200190929190505050508096508195505050611f91816113d2565b9250612042565b8773ffffffffffffffffffffffffffffffffffffffff16630902f1ac6040518163ffffffff1660e01b815260040160606040518083038186803b158015611fde57600080fd5b505afa158015611ff2573d6000803e3d6000fd5b505050506040513d606081101561200857600080fd5b8101908080519060200190929190805190602001909291908051906020019092919050505050809550819650505061203f826113d2565b92505b6000612081670de0b6b3a764000061207386886dffffffffffffffffffffffffffff16612a1290919063ffffffff16565b612a9890919063ffffffff16565b905060008973ffffffffffffffffffffffffffffffffffffffff166318160ddd6040518163ffffffff1660e01b815260040160206040518083038186803b1580156120cb57600080fd5b505afa1580156120df573d6000803e3d6000fd5b505050506040513d60208110156120f557600080fd5b8101908080519060200190929190505050905060006121598261214b670de0b6b3a764000061213d8c6dffffffffffffffffffffffffffff1688612c6690919063ffffffff16565b612a1290919063ffffffff16565b612a9890919063ffffffff16565b9050612188670de0b6b3a764000061217a838d612a1290919063ffffffff16565b612a9890919063ffffffff16565b9850505050505050505092915050565b60006121a382610b91565b156121b0578190506122e3565b600160009054906101000a900473ffffffffffffffffffffffffffffffffffffffff1673ffffffffffffffffffffffffffffffffffffffff1663e6a4390583600260009054906101000a900473ffffffffffffffffffffffffffffffffffffffff166040518363ffffffff1660e01b8152600401808373ffffffffffffffffffffffffffffffffffffffff1673ffffffffffffffffffffffffffffffffffffffff1681526020018273ffffffffffffffffffffffffffffffffffffffff1673ffffffffffffffffffffffffffffffffffffffff1681526020019250505060206040518083038186803b1580156122a557600080fd5b505afa1580156122b9573d6000803e3d6000fd5b505050506040513d60208110156122cf57600080fd5b810190808051906020019092919050505090505b919050565b600033905090565b60008273ffffffffffffffffffffffffffffffffffffffff1663a9059cbb85846040518363ffffffff1660e01b8152600401808373ffffffffffffffffffffffffffffffffffffffff1673ffffffffffffffffffffffffffffffffffffffff16815260200182815260200192505050602060405180830381600087803b15801561237957600080fd5b505af115801561238d573d6000803e3d6000fd5b505050506040513d60208110156123a357600080fd5b810190808051906020019092919050505050600190509392505050565b60008060008060006123d186610b91565b156126a2578573ffffffffffffffffffffffffffffffffffffffff16630dfe16816040518163ffffffff1660e01b815260040160206040518083038186803b15801561241c57600080fd5b505afa158015612430573d6000803e3d6000fd5b505050506040513d602081101561244657600080fd5b81019080805190602001909291905050509250600260009054906101000a900473ffffffffffffffffffffffffffffffffffffffff1673ffffffffffffffffffffffffffffffffffffffff168373ffffffffffffffffffffffffffffffffffffffff161415612552578573ffffffffffffffffffffffffffffffffffffffff16630902f1ac6040518163ffffffff1660e01b815260040160606040518083038186803b1580156124f557600080fd5b505afa158015612509573d6000803e3d6000fd5b505050506040513d606081101561251f57600080fd5b810190808051906020019092919080519060200190929190805190602001909291905050505080935081925050506125f1565b8573ffffffffffffffffffffffffffffffffffffffff16630902f1ac6040518163ffffffff1660e01b815260040160606040518083038186803b15801561259857600080fd5b505afa1580156125ac573d6000803e3d6000fd5b505050506040513d60608110156125c257600080fd5b810190808051906020019092919080519060200190929190805190602001909291905050505080925081935050505b6126156002826dffffffffffffffffffffffffffff16612a1290919063ffffffff16565b8673ffffffffffffffffffffffffffffffffffffffff166318160ddd6040518163ffffffff1660e01b815260040160206040518083038186803b15801561265b57600080fd5b505afa15801561266f573d6000803e3d6000fd5b505050506040513d602081101561268557600080fd5b8101908080519060200190929190505050945094505050506128f5565b60006126ad87612198565b90508073ffffffffffffffffffffffffffffffffffffffff16630dfe16816040518163ffffffff1660e01b815260040160206040518083038186803b1580156126f557600080fd5b505afa158015612709573d6000803e3d6000fd5b505050506040513d602081101561271f57600080fd5b81019080805190602001909291905050509350600260009054906101000a900473ffffffffffffffffffffffffffffffffffffffff1673ffffffffffffffffffffffffffffffffffffffff168473ffffffffffffffffffffffffffffffffffffffff16141561282b578073ffffffffffffffffffffffffffffffffffffffff16630902f1ac6040518163ffffffff1660e01b815260040160606040518083038186803b1580156127ce57600080fd5b505afa1580156127e2573d6000803e3d6000fd5b505050506040513d60608110156127f857600080fd5b810190808051906020019092919080519060200190929190805190602001909291905050505080945081935050506128ca565b8073ffffffffffffffffffffffffffffffffffffffff16630902f1ac6040518163ffffffff1660e01b815260040160606040518083038186803b15801561287157600080fd5b505afa158015612885573d6000803e3d6000fd5b505050506040513d606081101561289b57600080fd5b810190808051906020019092919080519060200190929190805190602001909291905050505080935081945050505b826dffffffffffffffffffffffffffff16826dffffffffffffffffffffffffffff1695509550505050505b915091565b6000808273ffffffffffffffffffffffffffffffffffffffff1663313ce5676040518163ffffffff1660e01b815260040160206040518083038186803b15801561294357600080fd5b505afa158015612957573d6000803e3d6000fd5b505050506040513d602081101561296d57600080fd5b8101908080519060200190929190505050905060128160ff1611156129fa576040517f08c379a000000000000000000000000000000000000000000000000000000000815260040180806020018281038252601c8152602001807f4f766572466c6f77207269736b2c206e6f7420737570706f727465640000000081525060200191505060405180910390fd5b60008160ff16602403905080600a0a92505050919050565b600080831415612a255760009050612a92565b6000828402905082848281612a3657fe5b0414612a8d576040517f08c379a0000000000000000000000000000000000000000000000000000000008152600401808060200182810382526021815260200180612e186021913960400191505060405180910390fd5b809150505b92915050565b6000612ada83836040518060400160405280601a81526020017f536166654d6174683a206469766973696f6e206279207a65726f000000000000815250612cee565b905092915050565b60008173ffffffffffffffffffffffffffffffffffffffff1663beaa369a846040518263ffffffff1660e01b8152600401808273ffffffffffffffffffffffffffffffffffffffff1673ffffffffffffffffffffffffffffffffffffffff16815260200191505060206040518083038186803b158015612b6157600080fd5b505afa158015612b75573d6000803e3d6000fd5b505050506040513d6020811015612b8b57600080fd5b8101908080519060200190929190505050905092915050565b60008173ffffffffffffffffffffffffffffffffffffffff166320b9588c846040518263ffffffff1660e01b8152600401808273ffffffffffffffffffffffffffffffffffffffff1673ffffffffffffffffffffffffffffffffffffffff16815260200191505060206040518083038186803b158015612c2357600080fd5b505afa158015612c37573d6000803e3d6000fd5b505050506040513d6020811015612c4d57600080fd5b8101908080519060200190929190505050905092915050565b600080828401905083811015612ce4576040517f08c379a000000000000000000000000000000000000000000000000000000000815260040180806020018281038252601b8152602001807f536166654d6174683a206164646974696f6e206f766572666c6f77000000000081525060200191505060405180910390fd5b8091505092915050565b60008083118290612d9a576040517f08c379a00000000000000000000000000000000000000000000000000000000081526004018080602001828103825283818151815260200191508051906020019080838360005b83811015612d5f578082015181840152602081019050612d44565b50505050905090810190601f168015612d8c5780820380516001836020036101000a031916815260200191505b509250505060405180910390fd5b506000838581612da657fe5b049050809150509392505050565b6040518060600160405280600073ffffffffffffffffffffffffffffffffffffffff168152602001600073ffffffffffffffffffffffffffffffffffffffff168152602001600073ffffffffffffffffffffffffffffffffffffffff168152509056fe536166654d6174683a206d756c7469706c69636174696f6e206f766572666c6f77a264697066735822122045fecfbdf499414457bfc39bea8c336b7b4d78f7d4666480754fef1c12a72e3164736f6c63430006060033",
  "immutableReferences": {},
  "source": "// SPDX-License-Identifier: MIT\n\npragma solidity ^0.6.0;\n\n// DeFiat Snapshot Voting Power Contract\n// \n// This contract calculates the amount of votes (in 1e18) a user has.\n// When using this contract with snapshot, we can fairly calculate each address's total network stake at a given block\n//\n// Voting Power Algorithm:\n// MY_VOTING_POWER = DFT_BALANCE \n//  + (DFT_LP_BALANCE * PRICE_IN_DFT)\n//  + TOTAL_DFT_STAKED \n//  + TOTAL_DFT_PENDING_REWARDS \n//  + (TOTAL_DFT_LP_STAKED * PRICE_IN_DFT)\n//\n// In order to compute LP voting power, we get the current price of the DFT LP token,\n//  which is half ETH and half DFT, then convert the ETH into DFT, and add the two values\n\n\nimport \"./_Interfaces.sol\";\nimport \"./SafeMath.sol\";\nimport \"./ERC20_Utils.sol\";\nimport \"./_ERC20.sol\";\nimport \"./Uni_Price_v2.sol\";\n\ncontract DeFiat_VotingPower is ERC20_Utils, Uni_Price_v2 {\n    using SafeMath for uint256;\n    \n    address public defiat;\n    address public defiatLp;\n    address public wethAddress;\n    uint internal stackPointer; // pointer for staking pool stack\n    \n    struct PoolStruct {\n        address poolAddress;\n        address stakedAddress;\n        address rewardAddress;\n    }\n    mapping (uint => PoolStruct) public stakingPools; // pools to calculate voting power from\n\n    constructor() \n        Uni_Price_v2(\n            0x5C69bEe701ef814a2B6a3EDD4B1652CB9cc5aA6f, \n            0xC02aaA39b223FE8D0A0e5C4F27eAD9083C756Cc2\n        ) // MAINNET\n        // Uni_Price_v2(\n        //     0x5C69bEe701ef814a2B6a3EDD4B1652CB9cc5aA6f, \n        //     0xc778417E063141139Fce010982780140Aa0cD5Ab\n        // ) // RINKEBY\n    public {\n        defiat = address(0xB6eE603933E024d8d53dDE3faa0bf98fE2a3d6f1); // MAINNET\n        // defiat = address(0xB571d40e4A7087C1B73ce6a3f29EaDfCA022C5B2); // RINKEBY\n\n        defiatLp = address(0xe2A1d215d03d7E9Fa0ed66355c86678561e4940a); // MAINNET\n        // defiatLp = address(0xF7426EAcb2b00398D4cefb3E24115c91821d6fB0); // RINKEBY\n    }\n\n    function myVotingPower(address _address) public view returns (uint256) {\n        // power initialized to DFT Balance\n        uint256 _power;\n        uint256 dftBalance = _ERC20(defiat).balanceOf(_address);\n        uint256 dftLpBalance = _ERC20(defiatLp).balanceOf(_address);\n        uint256 dftLpPower = getLiquidityTokenPower(defiatLp, dftLpBalance);\n        for (uint i = 0; i < stackPointer; i++) {\n            PoolStruct memory pool = stakingPools[i];\n            // get base staked tokens\n            uint256 stakedTokens = getStake(_address, pool.poolAddress);\n\n            // if its an LP token, we convert to total DFT value of tokens\n            // essentially x2 multiplier for LP votes\n            if (isUniLiquidityToken(pool.stakedAddress)) {\n                stakedTokens = getLiquidityTokenPower(pool.stakedAddress, stakedTokens);\n            }\n\n            // get reward tokens if the pool rewards in DFT\n            uint256 rewardTokens;\n            if (pool.rewardAddress == defiat) {\n                rewardTokens = getRewards(_address, pool.poolAddress);\n            }\n            \n\n            _power = _power.add(stakedTokens).add(rewardTokens);\n        }\n\n        return _power.add(dftBalance).add(dftLpPower);\n    }\n\n    function getLiquidityTokenPower(address tokenAddress, uint256 stakedTokens) public view returns (uint256) {\n        uint112 tokenReserves;\n        uint112 wethReserves;\n        uint256 tokensPerEth; \n        address token0 = IUniswapV2Pair(tokenAddress).token0();\n        address token1 = IUniswapV2Pair(tokenAddress).token1();\n        \n        if (token0 == wethAddress) {\n            (wethReserves, tokenReserves, ) = IUniswapV2Pair(tokenAddress).getReserves();\n            tokensPerEth = getUniPrice(token1);\n        } else {\n            (tokenReserves, wethReserves, ) = IUniswapV2Pair(tokenAddress).getReserves();\n            tokensPerEth = getUniPrice(token0);\n        }\n\n        uint256 wethInTokens = uint256(wethReserves)\n            .mul(tokensPerEth)\n            .div(1e18);\n\n        uint256 totalSupply = _ERC20(tokenAddress).totalSupply();\n        uint256 tokensPerLiquidityToken = wethInTokens\n            .add(uint256(tokenReserves))\n            .mul(1e18)\n            .div(totalSupply);\n\n        return stakedTokens.mul(tokensPerLiquidityToken).div(1e18);\n    }\n\n    function getStake(address _address, address _poolAddress) internal view returns (uint256) {\n        return IDungeon(_poolAddress).myStake(_address);\n    }\n\n    function getRewards(address _address, address _poolAddress) internal view returns (uint256) {\n        return IDungeon(_poolAddress).myRewards(_address);\n    }\n\n    // Owner functions\n\n    function pushStakingPool(address _poolAddress, address _stakedAddress, address _rewardAddress) external onlyOwner {\n        stakingPools[stackPointer++] = PoolStruct(_poolAddress, _stakedAddress, _rewardAddress);\n    }\n\n    function popStakingPool() external onlyOwner {\n        require(stackPointer > 0, \"Nothing to pop!\");\n        delete(stakingPools[--stackPointer]);\n    }\n\n    function flushPools() external onlyOwner {\n        require(stackPointer > 0, \"Nothing to pop!\");\n        while (stackPointer > 0) {\n            delete(stakingPools[--stackPointer]);\n        }\n    }\n}",
  "sourcePath": "/Users/noahcoomer/source/defiat/defiat-contracts/contracts/DeFiat_VotingPower.sol",
  "compiler": {
    "name": "solc",
    "version": "0.6.6+commit.6c089d02.Emscripten.clang"
  },
  "schemaVersion": "3.3.1",
  "updatedAt": "2020-11-10T14:13:20.123Z",
  "devdoc": {
    "methods": {}
  },
  "userdoc": {
    "methods": {}
  }
}