{
  "contractName": "DeFiat_EXTFarming_V2",
  "abi": [
    {
      "inputs": [
        {
          "internalType": "address",
          "name": "_stakedToken",
          "type": "address"
        },
        {
          "internalType": "address",
          "name": "_rewardToken",
          "type": "address"
        },
        {
          "internalType": "uint256",
          "name": "_feeBase1000",
          "type": "uint256"
        },
        {
          "internalType": "uint256",
          "name": "_durationHours",
          "type": "uint256"
        }
      ],
      "stateMutability": "nonpayable",
      "type": "constructor"
    },
    {
      "anonymous": false,
      "inputs": [
        {
          "indexed": false,
          "internalType": "uint256",
          "name": "amountAdded",
          "type": "uint256"
        },
        {
          "indexed": false,
          "internalType": "string",
          "name": "_desc",
          "type": "string"
        }
      ],
      "name": "PoolInitalized",
      "type": "event"
    },
    {
      "anonymous": false,
      "inputs": [
        {
          "indexed": true,
          "internalType": "address",
          "name": "user",
          "type": "address"
        },
        {
          "indexed": false,
          "internalType": "uint256",
          "name": "reward",
          "type": "uint256"
        },
        {
          "indexed": false,
          "internalType": "string",
          "name": "_desc",
          "type": "string"
        }
      ],
      "name": "RewardTaken",
      "type": "event"
    },
    {
      "anonymous": false,
      "inputs": [
        {
          "indexed": true,
          "internalType": "address",
          "name": "user",
          "type": "address"
        },
        {
          "indexed": false,
          "internalType": "uint256",
          "name": "amount",
          "type": "uint256"
        },
        {
          "indexed": false,
          "internalType": "string",
          "name": "_desc",
          "type": "string"
        }
      ],
      "name": "userStaking",
      "type": "event"
    },
    {
      "anonymous": false,
      "inputs": [
        {
          "indexed": true,
          "internalType": "address",
          "name": "user",
          "type": "address"
        },
        {
          "indexed": false,
          "internalType": "uint256",
          "name": "amount",
          "type": "uint256"
        },
        {
          "indexed": false,
          "internalType": "string",
          "name": "_desc",
          "type": "string"
        }
      ],
      "name": "userWithdrawal",
      "type": "event"
    },
    {
      "inputs": [],
      "name": "owner",
      "outputs": [
        {
          "internalType": "address",
          "name": "",
          "type": "address"
        }
      ],
      "stateMutability": "view",
      "type": "function"
    },
    {
      "inputs": [],
      "name": "poolMetrics",
      "outputs": [
        {
          "internalType": "address",
          "name": "stakedToken",
          "type": "address"
        },
        {
          "internalType": "uint256",
          "name": "staked",
          "type": "uint256"
        },
        {
          "internalType": "uint256",
          "name": "stakingFee",
          "type": "uint256"
        },
        {
          "internalType": "uint256",
          "name": "stakingPoints",
          "type": "uint256"
        },
        {
          "internalType": "address",
          "name": "rewardToken",
          "type": "address"
        },
        {
          "internalType": "uint256",
          "name": "rewards",
          "type": "uint256"
        },
        {
          "internalType": "uint256",
          "name": "totalRewards",
          "type": "uint256"
        },
        {
          "internalType": "uint256",
          "name": "startTime",
          "type": "uint256"
        },
        {
          "internalType": "uint256",
          "name": "closingTime",
          "type": "uint256"
        },
        {
          "internalType": "uint256",
          "name": "duration",
          "type": "uint256"
        },
        {
          "internalType": "uint256",
          "name": "lastEvent",
          "type": "uint256"
        },
        {
          "internalType": "uint256",
          "name": "ratePerToken",
          "type": "uint256"
        },
        {
          "internalType": "address",
          "name": "DftDungeon",
          "type": "address"
        },
        {
          "internalType": "bool",
          "name": "boostedRewards",
          "type": "bool"
        }
      ],
      "stateMutability": "view",
      "type": "function"
    },
    {
      "inputs": [],
      "name": "poolOperator",
      "outputs": [
        {
          "internalType": "address",
          "name": "",
          "type": "address"
        }
      ],
      "stateMutability": "view",
      "type": "function"
    },
    {
      "inputs": [
        {
          "internalType": "address",
          "name": "",
          "type": "address"
        }
      ],
      "name": "userMetrics",
      "outputs": [
        {
          "internalType": "uint256",
          "name": "stake",
          "type": "uint256"
        },
        {
          "internalType": "uint256",
          "name": "stakingPoints",
          "type": "uint256"
        },
        {
          "internalType": "uint256",
          "name": "poolPoints",
          "type": "uint256"
        },
        {
          "internalType": "uint256",
          "name": "lastEvent",
          "type": "uint256"
        },
        {
          "internalType": "uint256",
          "name": "rewardAccrued",
          "type": "uint256"
        },
        {
          "internalType": "uint256",
          "name": "rewardsPaid",
          "type": "uint256"
        },
        {
          "internalType": "uint256",
          "name": "lastTxBlock",
          "type": "uint256"
        }
      ],
      "stateMutability": "view",
      "type": "function"
    },
    {
      "inputs": [],
      "name": "currentTime",
      "outputs": [
        {
          "internalType": "uint256",
          "name": "",
          "type": "uint256"
        }
      ],
      "stateMutability": "view",
      "type": "function"
    },
    {
      "inputs": [
        {
          "internalType": "address",
          "name": "_dungeon",
          "type": "address"
        }
      ],
      "name": "setDungeon",
      "outputs": [],
      "stateMutability": "nonpayable",
      "type": "function"
    },
    {
      "inputs": [
        {
          "internalType": "address",
          "name": "_address",
          "type": "address"
        }
      ],
      "name": "viewDftBoost",
      "outputs": [
        {
          "internalType": "uint256",
          "name": "",
          "type": "uint256"
        }
      ],
      "stateMutability": "view",
      "type": "function"
    },
    {
      "inputs": [],
      "name": "viewPoolPoints",
      "outputs": [
        {
          "internalType": "uint256",
          "name": "",
          "type": "uint256"
        }
      ],
      "stateMutability": "view",
      "type": "function"
    },
    {
      "inputs": [
        {
          "internalType": "address",
          "name": "_address",
          "type": "address"
        }
      ],
      "name": "viewPointsOf",
      "outputs": [
        {
          "internalType": "uint256",
          "name": "",
          "type": "uint256"
        }
      ],
      "stateMutability": "view",
      "type": "function"
    },
    {
      "inputs": [
        {
          "internalType": "address",
          "name": "_address",
          "type": "address"
        }
      ],
      "name": "pointsSnapshot",
      "outputs": [
        {
          "internalType": "bool",
          "name": "",
          "type": "bool"
        }
      ],
      "stateMutability": "nonpayable",
      "type": "function"
    },
    {
      "inputs": [
        {
          "internalType": "address",
          "name": "_address",
          "type": "address"
        }
      ],
      "name": "userRateOnPeriod",
      "outputs": [
        {
          "internalType": "uint256",
          "name": "",
          "type": "uint256"
        }
      ],
      "stateMutability": "view",
      "type": "function"
    },
    {
      "inputs": [
        {
          "internalType": "address",
          "name": "_address",
          "type": "address"
        }
      ],
      "name": "viewAdditionalRewardOf",
      "outputs": [
        {
          "internalType": "uint256",
          "name": "",
          "type": "uint256"
        }
      ],
      "stateMutability": "view",
      "type": "function"
    },
    {
      "inputs": [
        {
          "internalType": "address",
          "name": "_address",
          "type": "address"
        }
      ],
      "name": "lockRewardOf",
      "outputs": [
        {
          "internalType": "uint256",
          "name": "",
          "type": "uint256"
        }
      ],
      "stateMutability": "nonpayable",
      "type": "function"
    },
    {
      "inputs": [],
      "name": "takeRewards",
      "outputs": [],
      "stateMutability": "nonpayable",
      "type": "function"
    },
    {
      "inputs": [
        {
          "internalType": "uint256",
          "name": "_amount",
          "type": "uint256"
        }
      ],
      "name": "stake",
      "outputs": [],
      "stateMutability": "nonpayable",
      "type": "function"
    },
    {
      "inputs": [
        {
          "internalType": "uint256",
          "name": "_amount",
          "type": "uint256"
        }
      ],
      "name": "unStake",
      "outputs": [],
      "stateMutability": "nonpayable",
      "type": "function"
    },
    {
      "inputs": [
        {
          "internalType": "address",
          "name": "_address",
          "type": "address"
        }
      ],
      "name": "myStake",
      "outputs": [
        {
          "internalType": "uint256",
          "name": "",
          "type": "uint256"
        }
      ],
      "stateMutability": "view",
      "type": "function"
    },
    {
      "inputs": [
        {
          "internalType": "address",
          "name": "_address",
          "type": "address"
        }
      ],
      "name": "myStakeShare",
      "outputs": [
        {
          "internalType": "uint256",
          "name": "",
          "type": "uint256"
        }
      ],
      "stateMutability": "view",
      "type": "function"
    },
    {
      "inputs": [
        {
          "internalType": "address",
          "name": "_address",
          "type": "address"
        }
      ],
      "name": "myPointsShare",
      "outputs": [
        {
          "internalType": "uint256",
          "name": "",
          "type": "uint256"
        }
      ],
      "stateMutability": "view",
      "type": "function"
    },
    {
      "inputs": [
        {
          "internalType": "address",
          "name": "_address",
          "type": "address"
        }
      ],
      "name": "myRewards",
      "outputs": [
        {
          "internalType": "uint256",
          "name": "",
          "type": "uint256"
        }
      ],
      "stateMutability": "view",
      "type": "function"
    },
    {
      "inputs": [
        {
          "internalType": "bool",
          "name": "_bool",
          "type": "bool"
        }
      ],
      "name": "setBoostedRewards",
      "outputs": [],
      "stateMutability": "nonpayable",
      "type": "function"
    },
    {
      "inputs": [
        {
          "internalType": "uint256",
          "name": "_amount",
          "type": "uint256"
        },
        {
          "internalType": "uint256",
          "name": "_preStake",
          "type": "uint256"
        }
      ],
      "name": "loadRewards",
      "outputs": [],
      "stateMutability": "nonpayable",
      "type": "function"
    },
    {
      "inputs": [
        {
          "internalType": "address",
          "name": "_recipient",
          "type": "address"
        },
        {
          "internalType": "address",
          "name": "_ERC20address",
          "type": "address"
        }
      ],
      "name": "flushPool",
      "outputs": [],
      "stateMutability": "nonpayable",
      "type": "function"
    },
    {
      "inputs": [
        {
          "internalType": "address",
          "name": "_address",
          "type": "address"
        }
      ],
      "name": "setPoolOperator",
      "outputs": [],
      "stateMutability": "nonpayable",
      "type": "function"
    },
    {
      "inputs": [
        {
          "internalType": "uint256",
          "name": "_fee",
          "type": "uint256"
        }
      ],
      "name": "setFee",
      "outputs": [],
      "stateMutability": "nonpayable",
      "type": "function"
    },
    {
      "inputs": [],
      "name": "killPool",
      "outputs": [
        {
          "internalType": "bool",
          "name": "",
          "type": "bool"
        }
      ],
      "stateMutability": "nonpayable",
      "type": "function"
    }
  ],
  "bytecode": "0x60806040523480156200001157600080fd5b5060405162003a5338038062003a53833981810160405260808110156200003757600080fd5b810190808051906020019092919080519060200190929190805190602001909291908051906020019092919050505033600f60006101000a81548173ffffffffffffffffffffffffffffffffffffffff021916908373ffffffffffffffffffffffffffffffffffffffff16021790555033600e60006101000a81548173ffffffffffffffffffffffffffffffffffffffff021916908373ffffffffffffffffffffffffffffffffffffffff160217905550836000800160006101000a81548173ffffffffffffffffffffffffffffffffffffffff021916908373ffffffffffffffffffffffffffffffffffffffff16021790555082600060040160006101000a81548173ffffffffffffffffffffffffffffffffffffffff021916908373ffffffffffffffffffffffffffffffffffffffff1602179055508160006002018190555062000195610e1082620001ec60201b620032f51790919060201c565b600060090181905550426000600701819055506000600901544201600060080181905550600160006003018190555060016000600c0160146101000a81548160ff0219169083151502179055505050505062000277565b60008083141562000201576000905062000271565b60008284029050828482816200021357fe5b04146200026c576040517f08c379a000000000000000000000000000000000000000000000000000000000815260040180806020018281038252602181526020018062003a326021913960400191505060405180910390fd5b809150505b92915050565b6137ab80620002876000396000f3fe608060405234801561001057600080fd5b506004361061018e5760003560e01c80637adaa21a116100de578063ad12101d11610097578063cf604bc911610071578063cf604bc91461079f578063d18e81b3146107e9578063fcecc4df14610807578063ff939f96146109085761018e565b8063ad12101d146106ab578063bb2c2556146106e3578063beaa369a146107475761018e565b80637adaa21a146105215780638883cb0e1461052b5780638da5cb5b14610583578063918771cd146105cd5780639e05da6a14610625578063a694fc3a1461067d5761018e565b8063430c45321161014b5780635d3eea91116101255780635d3eea911461044b57806361546cc01461047957806369fe0e2d146104d15780637a39b8d8146104ff5761018e565b8063430c4532146103b95780634a6013d9146103fd5780635c6187aa1461042d5761018e565b80631f227e481461019357806320b9588c146102155780632612798d1461026d5780632d2d1008146102c557806335ad1e031461031d57806342819fc414610361575b600080fd5b6101d5600480360360208110156101a957600080fd5b81019080803573ffffffffffffffffffffffffffffffffffffffff169060200190929190505050610964565b6040518088815260200187815260200186815260200185815260200184815260200183815260200182815260200197505050505050505060405180910390f35b6102576004803603602081101561022b57600080fd5b81019080803573ffffffffffffffffffffffffffffffffffffffff1690602001909291905050506109a6565b6040518082815260200191505060405180910390f35b6102af6004803603602081101561028357600080fd5b81019080803573ffffffffffffffffffffffffffffffffffffffff169060200190929190505050610a32565b6040518082815260200191505060405180910390f35b610307600480360360208110156102db57600080fd5b81019080803573ffffffffffffffffffffffffffffffffffffffff169060200190929190505050610b6d565b6040518082815260200191505060405180910390f35b61035f6004803603602081101561033357600080fd5b81019080803573ffffffffffffffffffffffffffffffffffffffff169060200190929190505050610bfc565b005b6103a36004803603602081101561037757600080fd5b81019080803573ffffffffffffffffffffffffffffffffffffffff169060200190929190505050610d3e565b6040518082815260200191505060405180910390f35b6103fb600480360360208110156103cf57600080fd5b81019080803573ffffffffffffffffffffffffffffffffffffffff169060200190929190505050610e8a565b005b61042b6004803603602081101561041357600080fd5b81019080803515159060200190929190505050610f94565b005b6104356110b2565b6040518082815260200191505060405180910390f35b6104776004803603602081101561046157600080fd5b8101908080359060200190929190505050611124565b005b6104bb6004803603602081101561048f57600080fd5b81019080803573ffffffffffffffffffffffffffffffffffffffff169060200190929190505050611649565b6040518082815260200191505060405180910390f35b6104fd600480360360208110156104e757600080fd5b8101908080359060200190929190505050611689565b005b610507611759565b604051808215151515815260200191505060405180910390f35b6105296118b1565b005b61056d6004803603602081101561054157600080fd5b81019080803573ffffffffffffffffffffffffffffffffffffffff169060200190929190505050611cd5565b6040518082815260200191505060405180910390f35b61058b611df7565b604051808273ffffffffffffffffffffffffffffffffffffffff1673ffffffffffffffffffffffffffffffffffffffff16815260200191505060405180910390f35b61060f600480360360208110156105e357600080fd5b81019080803573ffffffffffffffffffffffffffffffffffffffff169060200190929190505050611e1d565b6040518082815260200191505060405180910390f35b6106676004803603602081101561063b57600080fd5b81019080803573ffffffffffffffffffffffffffffffffffffffff169060200190929190505050611f1b565b6040518082815260200191505060405180910390f35b6106a96004803603602081101561069357600080fd5b8101908080359060200190929190505050612063565b005b6106e1600480360360408110156106c157600080fd5b8101908080359060200190929190803590602001909291905050506128a6565b005b610745600480360360408110156106f957600080fd5b81019080803573ffffffffffffffffffffffffffffffffffffffff169060200190929190803573ffffffffffffffffffffffffffffffffffffffff169060200190929190505050612cf8565b005b6107896004803603602081101561075d57600080fd5b81019080803573ffffffffffffffffffffffffffffffffffffffff169060200190929190505050612ff4565b6040518082815260200191505060405180910390f35b6107a7613040565b604051808273ffffffffffffffffffffffffffffffffffffffff1673ffffffffffffffffffffffffffffffffffffffff16815260200191505060405180910390f35b6107f1613066565b6040518082815260200191505060405180910390f35b61080f61307c565b604051808f73ffffffffffffffffffffffffffffffffffffffff1673ffffffffffffffffffffffffffffffffffffffff1681526020018e81526020018d81526020018c81526020018b73ffffffffffffffffffffffffffffffffffffffff1673ffffffffffffffffffffffffffffffffffffffff1681526020018a81526020018981526020018881526020018781526020018681526020018581526020018481526020018373ffffffffffffffffffffffffffffffffffffffff1673ffffffffffffffffffffffffffffffffffffffff168152602001821515151581526020019e50505050505050505050505050505060405180910390f35b61094a6004803603602081101561091e57600080fd5b81019080803573ffffffffffffffffffffffffffffffffffffffff169060200190929190505050613143565b604051808215151515815260200191505060405180910390f35b600d6020528060005260406000206000915090508060000154908060010154908060020154908060030154908060040154908060050154908060060154905087565b60008060070154421115806109bf575060008060050154145b156109cd5760009050610a2d565b610a2a6109d983610a32565b600d60008573ffffffffffffffffffffffffffffffffffffffff1673ffffffffffffffffffffffffffffffffffffffff1681526020019081526020016000206004015461316190919063ffffffff16565b90505b919050565b60008060006005015411610aae576040517f08c379a00000000000000000000000000000000000000000000000000000000081526004018080602001828103825260168152602001807f4e6f205265776172647320696e2074686520506f6f6c0000000000000000000081525060200191505060405180910390fd5b6000610ab983610d3e565b90506000610b27610b11600d60008773ffffffffffffffffffffffffffffffffffffffff1673ffffffffffffffffffffffffffffffffffffffff168152602001908152602001600020600301546000600701546131e9565b610b19613066565b61320390919063ffffffff16565b90506000610b60670de0b6b3a7640000610b5285610b448661324d565b6132f590919063ffffffff16565b61337b90919063ffffffff16565b9050809350505050919050565b6000806000600101541415610b855760009050610bf7565b610bf4600060010154610be6620186a0600d60008773ffffffffffffffffffffffffffffffffffffffff1673ffffffffffffffffffffffffffffffffffffffff168152602001908152602001600020600001546132f590919063ffffffff16565b61337b90919063ffffffff16565b90505b919050565b600e60009054906101000a900473ffffffffffffffffffffffffffffffffffffffff1673ffffffffffffffffffffffffffffffffffffffff163373ffffffffffffffffffffffffffffffffffffffff161480610ca55750600f60009054906101000a900473ffffffffffffffffffffffffffffffffffffffff1673ffffffffffffffffffffffffffffffffffffffff163373ffffffffffffffffffffffffffffffffffffffff16145b610cfa576040517f08c379a00000000000000000000000000000000000000000000000000000000081526004018080602001828103825260298152602001806136cb6029913960400191505060405180910390fd5b80600e60006101000a81548173ffffffffffffffffffffffffffffffffffffffff021916908373ffffffffffffffffffffffffffffffffffffffff16021790555050565b600080610d9e600d60008573ffffffffffffffffffffffffffffffffffffffff1673ffffffffffffffffffffffffffffffffffffffff16815260200190815260200160002060010154610d9085611f1b565b61320390919063ffffffff16565b90506000610dfe600d60008673ffffffffffffffffffffffffffffffffffffffff1673ffffffffffffffffffffffffffffffffffffffff16815260200190815260200160002060020154610df06110b2565b61320390919063ffffffff16565b905060008090506000831480610e145750600082145b15610e225760009050610e52565b610e4f82610e41670de0b6b3a7640000866132f590919063ffffffff16565b61337b90919063ffffffff16565b90505b610e8060c8610e7283610e6489611cd5565b6132f590919063ffffffff16565b61337b90919063ffffffff16565b9350505050919050565b600f60009054906101000a900473ffffffffffffffffffffffffffffffffffffffff1673ffffffffffffffffffffffffffffffffffffffff163373ffffffffffffffffffffffffffffffffffffffff1614610f4d576040517f08c379a000000000000000000000000000000000000000000000000000000000815260040180806020018281038252600a8152602001807f4f6e6c79204f776e65720000000000000000000000000000000000000000000081525060200191505060405180910390fd5b806000600c0160006101000a81548173ffffffffffffffffffffffffffffffffffffffff021916908373ffffffffffffffffffffffffffffffffffffffff16021790555050565b600e60009054906101000a900473ffffffffffffffffffffffffffffffffffffffff1673ffffffffffffffffffffffffffffffffffffffff163373ffffffffffffffffffffffffffffffffffffffff16148061103d5750600f60009054906101000a900473ffffffffffffffffffffffffffffffffffffffff1673ffffffffffffffffffffffffffffffffffffffff163373ffffffffffffffffffffffffffffffffffffffff16145b611092576040517f08c379a00000000000000000000000000000000000000000000000000000000081526004018080602001828103825260298152602001806136cb6029913960400191505060405180910390fd5b806000600c0160146101000a81548160ff02191690831515021790555050565b600080600060030154905060008060010154905060006110f56110df6000600a01546000600701546131e9565b6110e7613066565b61320390919063ffffffff16565b905061111c61110d82846132f590919063ffffffff16565b8461316190919063ffffffff16565b935050505090565b60006007015442101561119f576040517f08c379a00000000000000000000000000000000000000000000000000000000081526004018080602001828103825260148152602001807f506f6f6c206e6f7420737461727465642059657400000000000000000000000081525060200191505060405180910390fd5b60016111f681600d60003373ffffffffffffffffffffffffffffffffffffffff1673ffffffffffffffffffffffffffffffffffffffff1681526020019081526020016000206006015461316190919063ffffffff16565b431161124d576040517f08c379a00000000000000000000000000000000000000000000000000000000081526004018080602001828103825260228152602001806137156022913960400191505060405180910390fd5b43600d60003373ffffffffffffffffffffffffffffffffffffffff1673ffffffffffffffffffffffffffffffffffffffff168152602001908152602001600020600601819055506000821161130a576040517f08c379a00000000000000000000000000000000000000000000000000000000081526004018080602001828103825260118152602001807f43616e6e6f74207769746864726177203000000000000000000000000000000081525060200191505060405180910390fd5b600d60003373ffffffffffffffffffffffffffffffffffffffff1673ffffffffffffffffffffffffffffffffffffffff168152602001908152602001600020600001548211156113c2576040517f08c379a000000000000000000000000000000000000000000000000000000000815260040180806020018281038252601f8152602001807f43616e6e6f74207769746864726177206d6f7265207468616e207374616b650081525060200191505060405180910390fd5b6113cb33611e1d565b600d60003373ffffffffffffffffffffffffffffffffffffffff1673ffffffffffffffffffffffffffffffffffffffff1681526020019081526020016000206004018190555061141a33613143565b5061147082600d60003373ffffffffffffffffffffffffffffffffffffffff1673ffffffffffffffffffffffffffffffffffffffff1681526020019081526020016000206000015461320390919063ffffffff16565b600d60003373ffffffffffffffffffffffffffffffffffffffff1673ffffffffffffffffffffffffffffffffffffffff168152602001908152602001600020600001819055506114ce8260006001015461320390919063ffffffff16565b6000600101819055506000800160009054906101000a900473ffffffffffffffffffffffffffffffffffffffff1673ffffffffffffffffffffffffffffffffffffffff1663a9059cbb33846040518363ffffffff1660e01b8152600401808373ffffffffffffffffffffffffffffffffffffffff1673ffffffffffffffffffffffffffffffffffffffff16815260200182815260200192505050602060405180830381600087803b15801561158257600080fd5b505af1158015611596573d6000803e3d6000fd5b505050506040513d60208110156115ac57600080fd5b8101908080519060200190929190505050503373ffffffffffffffffffffffffffffffffffffffff167ff81475acca41b6158ffa94b90c0570165f1052684e7df9ab735e66ca1f57435f8360405180828152602001806020018281038252600b8152602001807f576964687464726177616c0000000000000000000000000000000000000000008152506020019250505060405180910390a25050565b60006116826116566110b2565b611674620186a061166686611f1b565b6132f590919063ffffffff16565b61337b90919063ffffffff16565b9050919050565b600f60009054906101000a900473ffffffffffffffffffffffffffffffffffffffff1673ffffffffffffffffffffffffffffffffffffffff163373ffffffffffffffffffffffffffffffffffffffff161461174c576040517f08c379a000000000000000000000000000000000000000000000000000000000815260040180806020018281038252600a8152602001807f4f6e6c79204f776e65720000000000000000000000000000000000000000000081525060200191505060405180910390fd5b8060006002018190555050565b6000600f60009054906101000a900473ffffffffffffffffffffffffffffffffffffffff1673ffffffffffffffffffffffffffffffffffffffff163373ffffffffffffffffffffffffffffffffffffffff161461181e576040517f08c379a000000000000000000000000000000000000000000000000000000000815260040180806020018281038252600a8152602001807f4f6e6c79204f776e65720000000000000000000000000000000000000000000081525060200191505060405180910390fd5b6000600801544211611898576040517f08c379a00000000000000000000000000000000000000000000000000000000081526004018080602001828103825260128152602001807f506f6f6c206e6f7420656e64656420596574000000000000000000000000000081525060200191505060405180910390fd5b3373ffffffffffffffffffffffffffffffffffffffff16ff5b60006007015442101561192c576040517f08c379a00000000000000000000000000000000000000000000000000000000081526004018080602001828103825260148152602001807f506f6f6c206e6f7420737461727465642059657400000000000000000000000081525060200191505060405180910390fd5b600161198381600d60003373ffffffffffffffffffffffffffffffffffffffff1673ffffffffffffffffffffffffffffffffffffffff1681526020019081526020016000206006015461316190919063ffffffff16565b43116119da576040517f08c379a00000000000000000000000000000000000000000000000000000000081526004018080602001828103825260228152602001806137156022913960400191505060405180910390fd5b43600d60003373ffffffffffffffffffffffffffffffffffffffff1673ffffffffffffffffffffffffffffffffffffffff168152602001908152602001600020600601819055506000806005015411611a9b576040517f08c379a00000000000000000000000000000000000000000000000000000000081526004018080602001828103825260168152602001807f4e6f205265776172647320696e2074686520506f6f6c0000000000000000000081525060200191505060405180910390fd5b6000611aa633611e1d565b905080600d60003373ffffffffffffffffffffffffffffffffffffffff1673ffffffffffffffffffffffffffffffffffffffff168152602001908152602001600020600501819055506000600d60003373ffffffffffffffffffffffffffffffffffffffff1673ffffffffffffffffffffffffffffffffffffffff16815260200190815260200160002060040181905550611b4f8160006005015461320390919063ffffffff16565b600060050181905550600060040160009054906101000a900473ffffffffffffffffffffffffffffffffffffffff1673ffffffffffffffffffffffffffffffffffffffff1663a9059cbb33836040518363ffffffff1660e01b8152600401808373ffffffffffffffffffffffffffffffffffffffff1673ffffffffffffffffffffffffffffffffffffffff16815260200182815260200192505050602060405180830381600087803b158015611c0457600080fd5b505af1158015611c18573d6000803e3d6000fd5b505050506040513d6020811015611c2e57600080fd5b810190808051906020019092919050505050611c4933613143565b503373ffffffffffffffffffffffffffffffffffffffff167f2fc029baad553950fe705b54adac427ede59ec14428d842ec4f83ee1a090e8fb8260405180828152602001806020018281038252600c8152602001807f526577617264732053656e7400000000000000000000000000000000000000008152506020019250505060405180910390a25050565b600080611dcf670de0b6b3a76400006000600c0160009054906101000a900473ffffffffffffffffffffffffffffffffffffffff1673ffffffffffffffffffffffffffffffffffffffff1663beaa369a866040518263ffffffff1660e01b8152600401808273ffffffffffffffffffffffffffffffffffffffff1673ffffffffffffffffffffffffffffffffffffffff16815260200191505060206040518083038186803b158015611d8657600080fd5b505afa158015611d9a573d6000803e3d6000fd5b505050506040513d6020811015611db057600080fd5b810190808051906020019092919050505061337b90919063ffffffff16565b9050611def60c8611dea60648461316190919063ffffffff16565b6133c5565b915050919050565b600f60009054906101000a900473ffffffffffffffffffffffffffffffffffffffff1681565b600080611e2983610a32565b9050611e8081600d60008673ffffffffffffffffffffffffffffffffffffffff1673ffffffffffffffffffffffffffffffffffffffff1681526020019081526020016000206004015461316190919063ffffffff16565b600d60008573ffffffffffffffffffffffffffffffffffffffff1673ffffffffffffffffffffffffffffffffffffffff16815260200190815260200160002060040181905550611ecf83613143565b50600d60008473ffffffffffffffffffffffffffffffffffffffff1673ffffffffffffffffffffffffffffffffffffffff16815260200190815260200160002060040154915050919050565b600080600d60008473ffffffffffffffffffffffffffffffffffffffff1673ffffffffffffffffffffffffffffffffffffffff1681526020019081526020016000206001015490506000600d60008573ffffffffffffffffffffffffffffffffffffffff1673ffffffffffffffffffffffffffffffffffffffff1681526020019081526020016000206000015490506000612016612000600d60008873ffffffffffffffffffffffffffffffffffffffff1673ffffffffffffffffffffffffffffffffffffffff168152602001908152602001600020600301546000600701546131e9565b612008613066565b61320390919063ffffffff16565b9050600061203f61203083856132f590919063ffffffff16565b8561316190919063ffffffff16565b90506000600301548111156120575760006003015490505b80945050505050919050565b6000600701544210156120de576040517f08c379a00000000000000000000000000000000000000000000000000000000081526004018080602001828103825260148152602001807f506f6f6c206e6f7420737461727465642059657400000000000000000000000081525060200191505060405180910390fd5b600060080154421115612159576040517f08c379a000000000000000000000000000000000000000000000000000000000815260040180806020018281038252600b8152602001807f506f6f6c20636c6f73656400000000000000000000000000000000000000000081525060200191505060405180910390fd5b60016121b081600d60003373ffffffffffffffffffffffffffffffffffffffff1673ffffffffffffffffffffffffffffffffffffffff1681526020019081526020016000206006015461316190919063ffffffff16565b4311612207576040517f08c379a00000000000000000000000000000000000000000000000000000000081526004018080602001828103825260228152602001806137156022913960400191505060405180910390fd5b43600d60003373ffffffffffffffffffffffffffffffffffffffff1673ffffffffffffffffffffffffffffffffffffffff1681526020019081526020016000206006018190555033614e2061225b82610b6d565b106122b1576040517f08c379a000000000000000000000000000000000000000000000000000000000815260040180806020018281038252603f815260200180613737603f913960400191505060405180910390fd5b60008311612327576040517f08c379a000000000000000000000000000000000000000000000000000000000815260040180806020018281038252600e8152602001807f43616e6e6f74207374616b65203000000000000000000000000000000000000081525060200191505060405180910390fd5b61233033611e1d565b600d60003373ffffffffffffffffffffffffffffffffffffffff1673ffffffffffffffffffffffffffffffffffffffff1681526020019081526020016000206004018190555061237f33613143565b5060008060000160009054906101000a900473ffffffffffffffffffffffffffffffffffffffff1673ffffffffffffffffffffffffffffffffffffffff166370a08231306040518263ffffffff1660e01b8152600401808273ffffffffffffffffffffffffffffffffffffffff1673ffffffffffffffffffffffffffffffffffffffff16815260200191505060206040518083038186803b15801561242357600080fd5b505afa158015612437573d6000803e3d6000fd5b505050506040513d602081101561244d57600080fd5b810190808051906020019092919050505090506000800160009054906101000a900473ffffffffffffffffffffffffffffffffffffffff1673ffffffffffffffffffffffffffffffffffffffff166323b872dd3330876040518463ffffffff1660e01b8152600401808473ffffffffffffffffffffffffffffffffffffffff1673ffffffffffffffffffffffffffffffffffffffff1681526020018373ffffffffffffffffffffffffffffffffffffffff1673ffffffffffffffffffffffffffffffffffffffff1681526020018281526020019350505050602060405180830381600087803b15801561253f57600080fd5b505af1158015612553573d6000803e3d6000fd5b505050506040513d602081101561256957600080fd5b810190808051906020019092919050505050600061266b826000800160009054906101000a900473ffffffffffffffffffffffffffffffffffffffff1673ffffffffffffffffffffffffffffffffffffffff166370a08231306040518263ffffffff1660e01b8152600401808273ffffffffffffffffffffffffffffffffffffffff1673ffffffffffffffffffffffffffffffffffffffff16815260200191505060206040518083038186803b15801561262257600080fd5b505afa158015612636573d6000803e3d6000fd5b505050506040513d602081101561264c57600080fd5b810190808051906020019092919050505061320390919063ffffffff16565b9050600061269b6103e861268d600060020154856132f590919063ffffffff16565b61337b90919063ffffffff16565b90506126b0818361320390919063ffffffff16565b9150600060040160009054906101000a900473ffffffffffffffffffffffffffffffffffffffff1673ffffffffffffffffffffffffffffffffffffffff166000800160009054906101000a900473ffffffffffffffffffffffffffffffffffffffff1673ffffffffffffffffffffffffffffffffffffffff161415612751576127478160006005015461316190919063ffffffff16565b6000600501819055505b6127698260006001015461316190919063ffffffff16565b6000600101819055506127c782600d60003373ffffffffffffffffffffffffffffffffffffffff1673ffffffffffffffffffffffffffffffffffffffff1681526020019081526020016000206000015461316190919063ffffffff16565b600d60003373ffffffffffffffffffffffffffffffffffffffff1673ffffffffffffffffffffffffffffffffffffffff1681526020019081526020016000206000018190555061281633613143565b503373ffffffffffffffffffffffffffffffffffffffff167f167ca5543be7bdd4d64d74a1255ec46c74aa0b2ad274a73b1a5c910f8d65d26f8360405180828152602001806020018281038252600f8152602001807f5374616b696e672e2e2e202e2e2e2000000000000000000000000000000000008152506020019250505060405180910390a2505050505050565b600e60009054906101000a900473ffffffffffffffffffffffffffffffffffffffff1673ffffffffffffffffffffffffffffffffffffffff163373ffffffffffffffffffffffffffffffffffffffff16148061294f5750600f60009054906101000a900473ffffffffffffffffffffffffffffffffffffffff1673ffffffffffffffffffffffffffffffffffffffff163373ffffffffffffffffffffffffffffffffffffffff16145b6129a4576040517f08c379a00000000000000000000000000000000000000000000000000000000081526004018080602001828103825260298152602001806136cb6029913960400191505060405180910390fd5b60008060040160009054906101000a900473ffffffffffffffffffffffffffffffffffffffff1673ffffffffffffffffffffffffffffffffffffffff166370a08231306040518263ffffffff1660e01b8152600401808273ffffffffffffffffffffffffffffffffffffffff1673ffffffffffffffffffffffffffffffffffffffff16815260200191505060206040518083038186803b158015612a4757600080fd5b505afa158015612a5b573d6000803e3d6000fd5b505050506040513d6020811015612a7157600080fd5b81019080805190602001909291905050509050600060040160009054906101000a900473ffffffffffffffffffffffffffffffffffffffff1673ffffffffffffffffffffffffffffffffffffffff166323b872dd3330866040518463ffffffff1660e01b8152600401808473ffffffffffffffffffffffffffffffffffffffff1673ffffffffffffffffffffffffffffffffffffffff1681526020018373ffffffffffffffffffffffffffffffffffffffff1673ffffffffffffffffffffffffffffffffffffffff1681526020018281526020019350505050602060405180830381600087803b158015612b6457600080fd5b505af1158015612b78573d6000803e3d6000fd5b505050506040513d6020811015612b8e57600080fd5b8101908080519060200190929190505050506000612c9182600060040160009054906101000a900473ffffffffffffffffffffffffffffffffffffffff1673ffffffffffffffffffffffffffffffffffffffff166370a08231306040518263ffffffff1660e01b8152600401808273ffffffffffffffffffffffffffffffffffffffff1673ffffffffffffffffffffffffffffffffffffffff16815260200191505060206040518083038186803b158015612c4857600080fd5b505afa158015612c5c573d6000803e3d6000fd5b505050506040513d6020811015612c7257600080fd5b810190808051906020019092919050505061320390919063ffffffff16565b9050600080600501541415612cb957612caf60006001015484613161565b6000600101819055505b612cc860006005015482613161565b600060050181905550612ce98460006006015461316190919063ffffffff16565b60006006018190555050505050565b600e60009054906101000a900473ffffffffffffffffffffffffffffffffffffffff1673ffffffffffffffffffffffffffffffffffffffff163373ffffffffffffffffffffffffffffffffffffffff161480612da15750600f60009054906101000a900473ffffffffffffffffffffffffffffffffffffffff1673ffffffffffffffffffffffffffffffffffffffff163373ffffffffffffffffffffffffffffffffffffffff16145b612df6576040517f08c379a00000000000000000000000000000000000000000000000000000000081526004018080602001828103825260298152602001806136cb6029913960400191505060405180910390fd5b6000600801544211612e70576040517f08c379a00000000000000000000000000000000000000000000000000000000081526004018080602001828103825260128152602001807f506f6f6c206e6f7420656e64656420596574000000000000000000000000000081525060200191505060405180910390fd5b60008173ffffffffffffffffffffffffffffffffffffffff166370a08231306040518263ffffffff1660e01b8152600401808273ffffffffffffffffffffffffffffffffffffffff1673ffffffffffffffffffffffffffffffffffffffff16815260200191505060206040518083038186803b158015612eef57600080fd5b505afa158015612f03573d6000803e3d6000fd5b505050506040513d6020811015612f1957600080fd5b810190808051906020019092919050505090508173ffffffffffffffffffffffffffffffffffffffff1663a9059cbb84836040518363ffffffff1660e01b8152600401808373ffffffffffffffffffffffffffffffffffffffff1673ffffffffffffffffffffffffffffffffffffffff16815260200182815260200192505050602060405180830381600087803b158015612fb357600080fd5b505af1158015612fc7573d6000803e3d6000fd5b505050506040513d6020811015612fdd57600080fd5b810190808051906020019092919050505050505050565b6000600d60008373ffffffffffffffffffffffffffffffffffffffff1673ffffffffffffffffffffffffffffffffffffffff168152602001908152602001600020600001549050919050565b600e60009054906101000a900473ffffffffffffffffffffffffffffffffffffffff1681565b6000613077426000600801546133c5565b905090565b60008060000160009054906101000a900473ffffffffffffffffffffffffffffffffffffffff16908060010154908060020154908060030154908060040160009054906101000a900473ffffffffffffffffffffffffffffffffffffffff169080600501549080600601549080600701549080600801549080600901549080600a01549080600b01549080600c0160009054906101000a900473ffffffffffffffffffffffffffffffffffffffff169080600c0160149054906101000a900460ff1690508e565b600061314e826133de565b50613157613515565b5060019050919050565b6000808284019050838110156131df576040517f08c379a000000000000000000000000000000000000000000000000000000000815260040180806020018281038252601b8152602001807f536166654d6174683a206164646974696f6e206f766572666c6f77000000000081525060200191505060405180910390fd5b8091505092915050565b6000818310156131f957816131fb565b825b905092915050565b600061324583836040518060400160405280601e81526020017f536166654d6174683a207375627472616374696f6e206f766572666c6f770000815250613544565b905092915050565b6000806000600601549050600015156000600c0160149054906101000a900460ff161515141561328957613286600060010154826133c5565b90505b60006132bd6000600901546132af670de0b6b3a7640000876132f590919063ffffffff16565b61337b90919063ffffffff16565b90506132ec670de0b6b3a76400006132de83856132f590919063ffffffff16565b61337b90919063ffffffff16565b92505050919050565b6000808314156133085760009050613375565b600082840290508284828161331957fe5b0414613370576040517f08c379a00000000000000000000000000000000000000000000000000000000081526004018080602001828103825260218152602001806136f46021913960400191505060405180910390fd5b809150505b92915050565b60006133bd83836040518060400160405280601a81526020017f536166654d6174683a206469766973696f6e206279207a65726f000000000000815250613604565b905092915050565b60008183106133d457816133d6565b825b905092915050565b60006133e86110b2565b600d60008473ffffffffffffffffffffffffffffffffffffffff1673ffffffffffffffffffffffffffffffffffffffff1681526020019081526020016000206002018190555061343782611f1b565b600d60008473ffffffffffffffffffffffffffffffffffffffff1673ffffffffffffffffffffffffffffffffffffffff16815260200190815260200160002060010181905550613485613066565b600d60008473ffffffffffffffffffffffffffffffffffffffff1673ffffffffffffffffffffffffffffffffffffffff16815260200190815260200160002060030181905550600d60008373ffffffffffffffffffffffffffffffffffffffff1673ffffffffffffffffffffffffffffffffffffffff168152602001908152602001600020600101549050919050565b600061351f6110b2565b600060030181905550613530613066565b6000600a0181905550600060030154905090565b60008383111582906135f1576040517f08c379a00000000000000000000000000000000000000000000000000000000081526004018080602001828103825283818151815260200191508051906020019080838360005b838110156135b657808201518184015260208101905061359b565b50505050905090810190601f1680156135e35780820380516001836020036101000a031916815260200191505b509250505060405180910390fd5b5060008385039050809150509392505050565b600080831182906136b0576040517f08c379a00000000000000000000000000000000000000000000000000000000081526004018080602001828103825283818151815260200191508051906020019080838360005b8381101561367557808201518184015260208101905061365a565b50505050905090810190601f1680156136a25780820380516001836020036101000a031916815260200191505b509250505060405180910390fd5b5060008385816136bc57fe5b04905080915050939250505056fe6d73672e73656e646572206973206e6f7420616c6c6f77656420746f206f70657261746520506f6f6c536166654d6174683a206d756c7469706c69636174696f6e206f766572666c6f7757616974205820424c4f434b53206265747765656e205472616e73616374696f6e7355736572207374616b652520736861726520746f6f20686967682e204c6561766520736f6d6520666f722074686520736d616c6c65722067757973203b2d29a2646970667358221220b50192965fa56f40fc419f114ab974bd614347f171d3ba70e6326487171e921f64736f6c63430006060033536166654d6174683a206d756c7469706c69636174696f6e206f766572666c6f77",
  "immutableReferences": {},
  "source": "pragma solidity ^0.6.0;\n\nimport \"./SafeMath.sol\";\nimport {IERC20, IDungeon} from \"./_Interfaces.sol\";\n\n// File: @defiat-crypto/defiat/blob/master/contracts/XXXXXX.sol\n/**\n * @dev Delegated Farming Contract.\n * Implements a conditoin on the DFT-DFT farming pool for users to generate more rewards\n */\ncontract DeFiat_EXTFarming_V2 {\n    using SafeMath for uint256;\n\n    //Structs\n    struct PoolMetrics {\n        address stakedToken;\n        uint256 staked;         // sum of tokens staked in the contract\n        uint256 stakingFee;     // entry fee\n        \n        uint256 stakingPoints;\n\n        address rewardToken;\n        uint256 rewards;        // current rewards in the pool\n        uint256 totalRewards;\n\n        uint256 startTime;      // when the pool opens\n        uint256 closingTime;    // when the pool closes. \n        uint256 duration;       // duration of the staking\n        uint256 lastEvent;      // last time metrics were updated.\n        \n        uint256  ratePerToken;  // CALCULATED pool reward Rate per Token (calculated based on total stake and time)\n        \n        address DftDungeon;     // used to calculate the DeFiatScore\n        bool boostedRewards;\n    }\n    PoolMetrics public poolMetrics;\n\n    struct UserMetrics {\n        uint256 stake;          // native token stake (balanceOf)\n        uint256 stakingPoints;  // staking points at lastEvent\n        uint256 poolPoints;     // pool point at lastEvent\n        uint256 lastEvent;\n\n        uint256 rewardAccrued;  // accrued rewards over time based on staking points\n        uint256 rewardsPaid;    // for information only\n\n        uint256 lastTxBlock;    // latest transaction from the user (antiSpam)\n    }\n    mapping(address => UserMetrics) public userMetrics;\n    \n        address public poolOperator; address public owner;\n        \n\n//== constructor \n    constructor(address _stakedToken, address _rewardToken, uint256 _feeBase1000, uint256 _durationHours) public {\n        owner = msg.sender;\n        poolOperator = msg.sender;\n        \n        poolMetrics.stakedToken = address(_stakedToken);\n        poolMetrics.rewardToken = address(_rewardToken);\n        poolMetrics.stakingFee = _feeBase1000; //10 = 1%\n        \n        poolMetrics.duration = _durationHours.mul(3600); //\n        poolMetrics.startTime = block.timestamp;\n        poolMetrics.closingTime = block.timestamp + poolMetrics.duration;\n        \n        poolMetrics.stakingPoints = 1; //avoirds div by 0 at start\n        poolMetrics.boostedRewards = true;\n    }\n\n//==Events\n    event PoolInitalized(uint256 amountAdded, string  _desc);\n    event RewardTaken(address indexed user, uint256 reward, string  _desc);\n\n    event userStaking(address indexed user, uint256 amount, string  _desc);\n    event userWithdrawal(address indexed user, uint256 amount, string  _desc);\n\n    modifier poolLive() {\n        require(block.timestamp >= poolMetrics.startTime,\"Pool not started Yet\"); //good for delayed starts.\n        require(block.timestamp <= poolMetrics.closingTime,\"Pool closed\"); //good for delayed starts.\n        _;\n    }\n    modifier poolStarted() {\n        require(block.timestamp >= poolMetrics.startTime,\"Pool not started Yet\"); //good for delayed starts.\n        _;\n    }\n    modifier poolEnded() {\n        require(block.timestamp > poolMetrics.closingTime,\"Pool not ended Yet\"); //good for delayed starts.\n        _;\n    }\n    \n    modifier antiSpam(uint256 _blocks) {\n        require(block.number > userMetrics[msg.sender].lastTxBlock.add(_blocks), \"Wait X BLOCKS between Transactions\");\n        userMetrics[msg.sender].lastTxBlock = block.number; //update\n        _;\n    } \n    modifier onlyPoolOperator() {\n        require(msg.sender== poolOperator || msg.sender == owner, \"msg.sender is not allowed to operate Pool\");\n        _;\n    }\n    modifier onlyOwner() {\n        require(msg.sender== owner, \"Only Owner\");\n        _;\n    }\n    modifier antiWhale(address _address) {\n        require(myStakeShare(_address) < 20000, \"User stake% share too high. Leave some for the smaller guys ;-)\"); //max 20%\n        _;\n    } \n    // avoids stakes being deposited once a user reached 20%. \n    // Simplistic implementation as if we calculate \"futureStake\" value very 1st stakers will not be able to deposit.\n    \n    \n//==Basics \n    function currentTime() public view returns (uint256) {\n        return SafeMath.min(block.timestamp, poolMetrics.closingTime); //allows expiration\n    } // SafeMath.min(now, endTime)\n    \n//==DeFiat Boost\n    function setDungeon(address _dungeon) public onlyOwner {\n        poolMetrics.DftDungeon = _dungeon;\n    }\n    \n    /**\n    * @dev Function gets the amount of DFT in the DFT dungeon farm \n    * to calculate a score that boosts the StakingRewards calculation\n    * DFT requirements to get a boost are hard coded into the contract\n    * 0DFT to 100 DFT staked respectfully generate a 0% to 100% bonus on Staking.\n    * returned is a number between 50 and 100\n    */\n    function viewDftBoost(address _address) public view returns(uint256) {\n        uint256 _userStake = IDungeon(poolMetrics.DftDungeon).myStake(_address).div(1e18);\n        return SafeMath.min(200, _userStake.add(100));\n    }\n    \n//==Points locking    \n    function viewPoolPoints() public view returns(uint256) {\n        uint256 _previousPoints = poolMetrics.stakingPoints;    // previous points shapshot \n        uint256 _previousStake = poolMetrics.staked;             // previous stake snapshot\n        \n        uint256 _timeHeld = currentTime().sub(\n                    SafeMath.max(poolMetrics.lastEvent, poolMetrics.startTime)\n                                                );                 // time held with _previous Event\n                                                \n        return  _previousPoints.add(_previousStake.mul(_timeHeld));    //generated points since event\n    }\n\n    function lockPoolPoints() internal returns (uint256) { //ON STAKE/UNSTAKE EVENT\n        poolMetrics.stakingPoints = viewPoolPoints();\n        poolMetrics.lastEvent = currentTime();   // update lastStakingEvent\n        return poolMetrics.stakingPoints;\n    } \n    \n    function viewPointsOf(address _address) public view returns(uint256) {\n        uint256 _previousPoints = userMetrics[_address].stakingPoints;    \n        uint256 _previousStake = userMetrics[_address].stake; // boosted stake before event\n    \n        uint256 _timeHeld = currentTime().sub(\n                    SafeMath.max(userMetrics[_address].lastEvent, poolMetrics.startTime)\n                                                );                          // time held since lastEvent (take RWD, STK, unSTK)\n        \n        uint256 _result = _previousPoints.add(_previousStake.mul(_timeHeld));   \n        \n        if(_result > poolMetrics.stakingPoints){_result = poolMetrics.stakingPoints;}\n        \n        \n        return _result;\n    }\n\n    function lockPointsOf(address _address) internal returns (uint256) {\n        userMetrics[_address].poolPoints = viewPoolPoints();  // snapshot of pool points at lockEvent\n        userMetrics[_address].stakingPoints = viewPointsOf(_address); \n        userMetrics[_address].lastEvent = currentTime(); \n\n        return userMetrics[_address].stakingPoints;\n    }\n\n    function pointsSnapshot(address _address) public returns (bool) {\n        lockPointsOf(_address);\n        lockPoolPoints();\n        return true;\n    }\n     \n    //==Rewards\n    function viewTrancheReward(uint256 _period) internal view returns(uint256) {\n        //uint256 _poolRewards = poolMetrics.rewards; //tokens in the pool. Note: This can be setup to a fixed amount (totalRewards)\n        uint256 _poolRewards = poolMetrics.totalRewards; \n        \n        if(poolMetrics.boostedRewards == false){ _poolRewards = SafeMath.min(poolMetrics.staked, _poolRewards);} \n        // baseline is the min( staked, rewards); avoids ultra_farming > staking pool - EXPERIMENTAL\n        \n        uint256 _timeRate = _period.mul(1e18).div(poolMetrics.duration);\n        return _poolRewards.mul(_timeRate).div(1e18); //tranche of rewards on period\n    }\n    \n    function userRateOnPeriod(address _address) public view returns (uint256){\n        //calculates the delta of pool points and user points since last Event\n        uint256 _deltaUser = viewPointsOf(_address).sub(userMetrics[_address].stakingPoints); // points generated since lastEvent\n        uint256 _deltaPool = viewPoolPoints().sub(userMetrics[_address].poolPoints);          // pool points generated since lastEvent\n        uint256 _rate = 0;\n        if(_deltaUser == 0 || _deltaPool == 0 ){_rate = 0;} //rounding\n        else {_rate = _deltaUser.mul(1e18).div(_deltaPool);}\n        \n        return viewDftBoost(_address).mul(_rate).div(200); //applies bossted rate on period based on the DFT in the dungeon.\n    }\n    \n    function viewAdditionalRewardOf(address _address) public view returns(uint256) { // rewards generated since last Event\n        require(poolMetrics.rewards > 0, \"No Rewards in the Pool\");\n        \n        // user weighted average share of Pool since lastEvent\n        uint256 _userRateOnPeriod = userRateOnPeriod(_address); //can drop if pool size increases within period -> slows rewards generation\n        \n        // Pool Yield Rate \n        uint256 _period = currentTime().sub(\n                            SafeMath.max(userMetrics[_address].lastEvent, poolMetrics.startTime)  \n                            );        // time elapsed since last reward or pool started (if never taken rewards)\n\n        // Calculate reward\n        uint256 _reward = viewTrancheReward(_period).mul(_userRateOnPeriod).div(1e18);  //user rate on pool rewards' tranche\n\n        return _reward;\n    }\n    \n    function lockRewardOf(address _address) public returns(uint256) {\n        uint256 _additional = viewAdditionalRewardOf(_address); //stakeShare(sinceLastEvent) * poolRewards(sinceLastEvent)\n        userMetrics[_address].rewardAccrued = userMetrics[_address].rewardAccrued.add(_additional); //snapshot rewards.\n        \n        pointsSnapshot(_address); //updates lastEvent and points\n        return userMetrics[_address].rewardAccrued;\n    }  \n    \n    function takeRewards() public poolStarted antiSpam(1) { //1 blocks between rewards\n        require(poolMetrics.rewards > 0, \"No Rewards in the Pool\");\n        \n        uint256 _reward = lockRewardOf(msg.sender); //returns already accrued + additional (also resets time counters)\n\n        userMetrics[msg.sender].rewardsPaid = _reward;   // update user paid rewards\n        \n        userMetrics[msg.sender].rewardAccrued = 0; //flush previously accrued rewards.\n        \n        poolMetrics.rewards = poolMetrics.rewards.sub(_reward);           // update pool rewards\n            \n        IERC20(poolMetrics.rewardToken).transfer(msg.sender, _reward);  // transfer\n            \n        pointsSnapshot(msg.sender); //updates lastEvent\n        //lockRewardOf(msg.sender);\n            \n        emit RewardTaken(msg.sender, _reward, \"Rewards Sent\");          \n    }\n    \n//==staking & unstaking\n\n    function stake(uint256 _amount) public poolLive antiSpam(1) antiWhale(msg.sender){\n        require(_amount > 0, \"Cannot stake 0\");\n        \n        //initialize\n        userMetrics[msg.sender].rewardAccrued = lockRewardOf(msg.sender); //Locks previous eligible rewards based on lastRewardEvent and lastStakingEvent\n        pointsSnapshot(msg.sender);\n\n        //receive staked\n        uint256 _balanceNow = IERC20(address(poolMetrics.stakedToken)).balanceOf(address(this));\n        IERC20(poolMetrics.stakedToken).transferFrom(msg.sender, address(this), _amount); //will require allowance\n        uint256 amount = IERC20(address(poolMetrics.stakedToken)).balanceOf(address(this)).sub(_balanceNow); //actually received\n        \n        //update pool and user based on stake and fee\n        uint256 _fee = amount.mul(poolMetrics.stakingFee).div(1000);\n        amount = amount.sub(_fee);\n        \n        if(poolMetrics.stakedToken == poolMetrics.rewardToken){poolMetrics.rewards = poolMetrics.rewards.add(_fee);}\n        poolMetrics.staked = poolMetrics.staked.add(amount);\n        userMetrics[msg.sender].stake = userMetrics[msg.sender].stake.add(amount);\n\n        //finalize\n        pointsSnapshot(msg.sender); //updates lastEvent\n        emit userStaking(msg.sender, amount, \"Staking... ... \");\n        \n    } \n    \n    function unStake(uint256 _amount) public poolStarted antiSpam(1) { \n        require(_amount > 0, \"Cannot withdraw 0\");\n        require(_amount <= userMetrics[msg.sender].stake, \"Cannot withdraw more than stake\");\n\n        //initialize\n        userMetrics[msg.sender].rewardAccrued = lockRewardOf(msg.sender); //snapshot of  previous eligible rewards based on lastStakingEvent\n        pointsSnapshot(msg.sender);\n\n        // update metrics\n        userMetrics[msg.sender].stake = userMetrics[msg.sender].stake.sub(_amount);\n        poolMetrics.staked = poolMetrics.staked.sub(_amount);\n\n        // transfer _amount. Put at the end of the function to avoid reentrancy.\n        IERC20(poolMetrics.stakedToken).transfer(msg.sender, _amount);\n        \n        //finalize\n        emit userWithdrawal(msg.sender, _amount, \"Widhtdrawal\");\n    }\n\n    function myStake(address _address) public view returns(uint256) {\n        return userMetrics[_address].stake;\n    }\n\n    function myStakeShare(address _address) public view returns(uint256) {\n        if(poolMetrics.staked == 0){return 0;}\n        else {\n        return (userMetrics[_address].stake).mul(100000).div(poolMetrics.staked);}\n    } //base 100,000\n\n    function myPointsShare(address _address) public view returns(uint256) {  //weighted average of your stake over time vs the pool\n        return viewPointsOf(_address).mul(100000).div(viewPoolPoints());\n    } //base 100,000. Drops when taking rewards.=> Refills after (favors strong hands)\n\n    function myRewards(address _address) public view returns(uint256) {\n        //delayed start obfuscation (avoids disturbances in the force...)\n        if(block.timestamp <= poolMetrics.startTime || poolMetrics.rewards == 0){return 0;}\n        else { return userMetrics[_address].rewardAccrued.add(viewAdditionalRewardOf(_address));} //previousLock + time based extra\n    }\n \n\n//== OPERATOR FUNCTIONS ==\n    \n    function setBoostedRewards(bool _bool) public onlyPoolOperator {\n        poolMetrics.boostedRewards = _bool;\n    }\n\n    function loadRewards(uint256 _amount, uint256 _preStake) public onlyPoolOperator { //load tokens in the rewards pool.\n        \n        uint256 _balanceNow = IERC20(address(poolMetrics.rewardToken)).balanceOf(address(this));\n        IERC20(address(poolMetrics.rewardToken)).transferFrom( msg.sender,  address(this),  _amount);\n        uint256 amount = IERC20(address(poolMetrics.rewardToken)).balanceOf(address(this)).sub(_balanceNow); //actually received\n        \n\n        if(poolMetrics.rewards == 0){                                   // initialization\n        poolMetrics.staked = SafeMath.add(poolMetrics.staked,_preStake);}  // creates baseline for pool. Avoids massive movements on rewards\n        \n        poolMetrics.rewards = SafeMath.add(poolMetrics.rewards,amount);\n        poolMetrics.totalRewards = poolMetrics.totalRewards.add(_amount);\n    }    \n    \n    function flushPool(address _recipient, address _ERC20address) external onlyPoolOperator poolEnded {\n        uint256 _amount = IERC20(_ERC20address).balanceOf(address(this));\n        IERC20(_ERC20address).transfer(_recipient, _amount); //use of the _ERC20 traditional transfer\n        //return true;\n    } //get tokens sent by error to contract\n\n    function setPoolOperator(address _address) public onlyPoolOperator {\n        poolOperator = _address;\n    }\n    \n    function setFee(uint256 _fee) public onlyOwner {\n        poolMetrics.stakingFee = _fee;\n    }\n    \n    function killPool() public onlyOwner poolEnded returns(bool) {\n        selfdestruct(msg.sender);\n    } //frees space on the ETH chain\n\n}\n",
  "sourcePath": "/Users/noahcoomer/source/defiat/defiat-contracts/contracts/DeFiat_EXTFarming.sol",
  "compiler": {
    "name": "solc",
    "version": "0.6.6+commit.6c089d02.Emscripten.clang"
  },
  "schemaVersion": "3.3.1",
  "updatedAt": "2020-11-05T16:59:50.368Z",
  "devdoc": {
    "details": "Delegated Farming Contract. Implements a conditoin on the DFT-DFT farming pool for users to generate more rewards",
    "methods": {
      "viewDftBoost(address)": {
        "details": "Function gets the amount of DFT in the DFT dungeon farm  to calculate a score that boosts the StakingRewards calculation DFT requirements to get a boost are hard coded into the contract 0DFT to 100 DFT staked respectfully generate a 0% to 100% bonus on Staking. returned is a number between 50 and 100"
      }
    }
  },
  "userdoc": {
    "methods": {}
  }
}