{
  "contractName": "DeFiat_AnyStake",
  "abi": [
    {
      "inputs": [
        {
          "internalType": "address",
          "name": "_rewardToken",
          "type": "address"
        },
        {
          "internalType": "uint256",
          "name": "_feeBase1000",
          "type": "uint256"
        },
        {
          "internalType": "uint256",
          "name": "_durationHours",
          "type": "uint256"
        }
      ],
      "stateMutability": "nonpayable",
      "type": "constructor"
    },
    {
      "anonymous": false,
      "inputs": [
        {
          "indexed": false,
          "internalType": "uint256",
          "name": "amountAdded",
          "type": "uint256"
        },
        {
          "indexed": false,
          "internalType": "string",
          "name": "_desc",
          "type": "string"
        }
      ],
      "name": "PoolInitalized",
      "type": "event"
    },
    {
      "anonymous": false,
      "inputs": [
        {
          "indexed": true,
          "internalType": "address",
          "name": "user",
          "type": "address"
        },
        {
          "indexed": false,
          "internalType": "uint256",
          "name": "reward",
          "type": "uint256"
        },
        {
          "indexed": false,
          "internalType": "string",
          "name": "_desc",
          "type": "string"
        }
      ],
      "name": "RewardTaken",
      "type": "event"
    },
    {
      "anonymous": false,
      "inputs": [
        {
          "indexed": true,
          "internalType": "address",
          "name": "user",
          "type": "address"
        },
        {
          "indexed": false,
          "internalType": "uint256",
          "name": "amount",
          "type": "uint256"
        },
        {
          "indexed": false,
          "internalType": "string",
          "name": "_desc",
          "type": "string"
        }
      ],
      "name": "userStaking",
      "type": "event"
    },
    {
      "anonymous": false,
      "inputs": [
        {
          "indexed": true,
          "internalType": "address",
          "name": "user",
          "type": "address"
        },
        {
          "indexed": false,
          "internalType": "uint256",
          "name": "amount",
          "type": "uint256"
        },
        {
          "indexed": false,
          "internalType": "string",
          "name": "_desc",
          "type": "string"
        }
      ],
      "name": "userWithdrawal",
      "type": "event"
    },
    {
      "inputs": [],
      "name": "AnyStake_Library",
      "outputs": [
        {
          "internalType": "address",
          "name": "",
          "type": "address"
        }
      ],
      "stateMutability": "view",
      "type": "function"
    },
    {
      "inputs": [],
      "name": "owner",
      "outputs": [
        {
          "internalType": "address",
          "name": "",
          "type": "address"
        }
      ],
      "stateMutability": "view",
      "type": "function"
    },
    {
      "inputs": [],
      "name": "poolMetrics",
      "outputs": [
        {
          "internalType": "uint256",
          "name": "wETHStake",
          "type": "uint256"
        },
        {
          "internalType": "uint256",
          "name": "stakingFee",
          "type": "uint256"
        },
        {
          "internalType": "uint256",
          "name": "stakingPoints",
          "type": "uint256"
        },
        {
          "internalType": "address",
          "name": "rewardToken",
          "type": "address"
        },
        {
          "internalType": "uint256",
          "name": "rewards",
          "type": "uint256"
        },
        {
          "internalType": "uint256",
          "name": "totalRewards",
          "type": "uint256"
        },
        {
          "internalType": "uint256",
          "name": "startTime",
          "type": "uint256"
        },
        {
          "internalType": "uint256",
          "name": "closingTime",
          "type": "uint256"
        },
        {
          "internalType": "uint256",
          "name": "duration",
          "type": "uint256"
        },
        {
          "internalType": "uint256",
          "name": "lastEvent",
          "type": "uint256"
        },
        {
          "internalType": "uint256",
          "name": "ratePerToken",
          "type": "uint256"
        },
        {
          "internalType": "address",
          "name": "DftDungeon",
          "type": "address"
        }
      ],
      "stateMutability": "view",
      "type": "function"
    },
    {
      "inputs": [],
      "name": "poolOperator",
      "outputs": [
        {
          "internalType": "address",
          "name": "",
          "type": "address"
        }
      ],
      "stateMutability": "view",
      "type": "function"
    },
    {
      "inputs": [
        {
          "internalType": "address",
          "name": "",
          "type": "address"
        }
      ],
      "name": "userMetrics",
      "outputs": [
        {
          "internalType": "uint256",
          "name": "wETHStake",
          "type": "uint256"
        },
        {
          "internalType": "uint256",
          "name": "stakingPoints",
          "type": "uint256"
        },
        {
          "internalType": "uint256",
          "name": "poolPoints",
          "type": "uint256"
        },
        {
          "internalType": "uint256",
          "name": "lastEvent",
          "type": "uint256"
        },
        {
          "internalType": "uint256",
          "name": "rewardAccrued",
          "type": "uint256"
        },
        {
          "internalType": "uint256",
          "name": "rewardsPaid",
          "type": "uint256"
        },
        {
          "internalType": "uint256",
          "name": "lastTxBlock",
          "type": "uint256"
        }
      ],
      "stateMutability": "view",
      "type": "function"
    },
    {
      "inputs": [],
      "name": "currentTime",
      "outputs": [
        {
          "internalType": "uint256",
          "name": "",
          "type": "uint256"
        }
      ],
      "stateMutability": "view",
      "type": "function"
    },
    {
      "inputs": [
        {
          "internalType": "address",
          "name": "_address",
          "type": "address"
        }
      ],
      "name": "setPoolOperator",
      "outputs": [],
      "stateMutability": "nonpayable",
      "type": "function"
    },
    {
      "inputs": [],
      "name": "viewPoolPoints",
      "outputs": [
        {
          "internalType": "uint256",
          "name": "",
          "type": "uint256"
        }
      ],
      "stateMutability": "view",
      "type": "function"
    },
    {
      "inputs": [
        {
          "internalType": "address",
          "name": "_address",
          "type": "address"
        }
      ],
      "name": "viewPointsOf",
      "outputs": [
        {
          "internalType": "uint256",
          "name": "",
          "type": "uint256"
        }
      ],
      "stateMutability": "view",
      "type": "function"
    },
    {
      "inputs": [
        {
          "internalType": "address",
          "name": "_address",
          "type": "address"
        }
      ],
      "name": "pointsSnapshot",
      "outputs": [
        {
          "internalType": "bool",
          "name": "",
          "type": "bool"
        }
      ],
      "stateMutability": "nonpayable",
      "type": "function"
    },
    {
      "inputs": [
        {
          "internalType": "address",
          "name": "_address",
          "type": "address"
        }
      ],
      "name": "userRateOnPeriod",
      "outputs": [
        {
          "internalType": "uint256",
          "name": "",
          "type": "uint256"
        }
      ],
      "stateMutability": "view",
      "type": "function"
    },
    {
      "inputs": [
        {
          "internalType": "address",
          "name": "_address",
          "type": "address"
        }
      ],
      "name": "viewAdditionalRewardOf",
      "outputs": [
        {
          "internalType": "uint256",
          "name": "",
          "type": "uint256"
        }
      ],
      "stateMutability": "view",
      "type": "function"
    },
    {
      "inputs": [
        {
          "internalType": "address",
          "name": "_address",
          "type": "address"
        }
      ],
      "name": "lockRewardOf",
      "outputs": [
        {
          "internalType": "uint256",
          "name": "",
          "type": "uint256"
        }
      ],
      "stateMutability": "nonpayable",
      "type": "function"
    },
    {
      "inputs": [],
      "name": "takeRewards",
      "outputs": [],
      "stateMutability": "nonpayable",
      "type": "function"
    },
    {
      "inputs": [
        {
          "internalType": "address",
          "name": "_token",
          "type": "address"
        },
        {
          "internalType": "uint256",
          "name": "_amount",
          "type": "uint256"
        }
      ],
      "name": "stake",
      "outputs": [],
      "stateMutability": "nonpayable",
      "type": "function"
    },
    {
      "inputs": [
        {
          "internalType": "address",
          "name": "_token",
          "type": "address"
        },
        {
          "internalType": "uint256",
          "name": "_amount",
          "type": "uint256"
        }
      ],
      "name": "unStake",
      "outputs": [],
      "stateMutability": "nonpayable",
      "type": "function"
    },
    {
      "inputs": [
        {
          "internalType": "address",
          "name": "_token",
          "type": "address"
        },
        {
          "internalType": "address",
          "name": "_address",
          "type": "address"
        }
      ],
      "name": "myStake",
      "outputs": [
        {
          "internalType": "uint256",
          "name": "",
          "type": "uint256"
        }
      ],
      "stateMutability": "view",
      "type": "function"
    },
    {
      "inputs": [
        {
          "internalType": "address",
          "name": "_token",
          "type": "address"
        },
        {
          "internalType": "address",
          "name": "_address",
          "type": "address"
        }
      ],
      "name": "myStakeShare",
      "outputs": [
        {
          "internalType": "uint256",
          "name": "",
          "type": "uint256"
        }
      ],
      "stateMutability": "view",
      "type": "function"
    },
    {
      "inputs": [
        {
          "internalType": "address",
          "name": "_address",
          "type": "address"
        }
      ],
      "name": "myPointsShare",
      "outputs": [
        {
          "internalType": "uint256",
          "name": "",
          "type": "uint256"
        }
      ],
      "stateMutability": "view",
      "type": "function"
    },
    {
      "inputs": [
        {
          "internalType": "address",
          "name": "_address",
          "type": "address"
        }
      ],
      "name": "myRewards",
      "outputs": [
        {
          "internalType": "uint256",
          "name": "",
          "type": "uint256"
        }
      ],
      "stateMutability": "view",
      "type": "function"
    },
    {
      "inputs": [
        {
          "internalType": "address",
          "name": "_token",
          "type": "address"
        }
      ],
      "name": "getTokenFromLibrary",
      "outputs": [
        {
          "internalType": "string",
          "name": "name",
          "type": "string"
        },
        {
          "internalType": "string",
          "name": "symbol",
          "type": "string"
        },
        {
          "internalType": "uint8",
          "name": "decimals",
          "type": "uint8"
        },
        {
          "internalType": "uint256",
          "name": "spotPrice",
          "type": "uint256"
        },
        {
          "internalType": "bool",
          "name": "activated",
          "type": "bool"
        },
        {
          "internalType": "uint8",
          "name": "boost",
          "type": "uint8"
        }
      ],
      "stateMutability": "view",
      "type": "function"
    },
    {
      "inputs": [
        {
          "internalType": "address",
          "name": "_token",
          "type": "address"
        }
      ],
      "name": "getTokensPerETH",
      "outputs": [
        {
          "internalType": "uint256",
          "name": "",
          "type": "uint256"
        }
      ],
      "stateMutability": "nonpayable",
      "type": "function"
    },
    {
      "inputs": [
        {
          "internalType": "address",
          "name": "_token",
          "type": "address"
        }
      ],
      "name": "getTokenBoost",
      "outputs": [
        {
          "internalType": "uint256",
          "name": "",
          "type": "uint256"
        }
      ],
      "stateMutability": "view",
      "type": "function"
    },
    {
      "inputs": [
        {
          "internalType": "address",
          "name": "_token",
          "type": "address"
        },
        {
          "internalType": "uint256",
          "name": "_rank",
          "type": "uint256"
        }
      ],
      "name": "chgTokenIntoList",
      "outputs": [],
      "stateMutability": "nonpayable",
      "type": "function"
    },
    {
      "inputs": [
        {
          "internalType": "address",
          "name": "_address",
          "type": "address"
        },
        {
          "internalType": "uint256",
          "name": "_rank",
          "type": "uint256"
        }
      ],
      "name": "viewMyToken",
      "outputs": [
        {
          "internalType": "address",
          "name": "",
          "type": "address"
        }
      ],
      "stateMutability": "view",
      "type": "function"
    },
    {
      "inputs": [
        {
          "internalType": "address",
          "name": "_address",
          "type": "address"
        }
      ],
      "name": "viewMyTokenCount",
      "outputs": [
        {
          "internalType": "uint256",
          "name": "",
          "type": "uint256"
        }
      ],
      "stateMutability": "view",
      "type": "function"
    },
    {
      "inputs": [
        {
          "internalType": "uint256",
          "name": "_amount",
          "type": "uint256"
        }
      ],
      "name": "loadRewards",
      "outputs": [],
      "stateMutability": "nonpayable",
      "type": "function"
    },
    {
      "inputs": [
        {
          "internalType": "uint256",
          "name": "_fee",
          "type": "uint256"
        }
      ],
      "name": "setFee",
      "outputs": [],
      "stateMutability": "nonpayable",
      "type": "function"
    },
    {
      "inputs": [
        {
          "internalType": "address",
          "name": "_library",
          "type": "address"
        }
      ],
      "name": "setAnyStake_Library",
      "outputs": [],
      "stateMutability": "nonpayable",
      "type": "function"
    },
    {
      "inputs": [
        {
          "internalType": "address",
          "name": "_dungeon",
          "type": "address"
        }
      ],
      "name": "setDungeon",
      "outputs": [],
      "stateMutability": "nonpayable",
      "type": "function"
    },
    {
      "inputs": [
        {
          "internalType": "address",
          "name": "_ERC20address",
          "type": "address"
        },
        {
          "internalType": "address",
          "name": "_recipient",
          "type": "address"
        }
      ],
      "name": "flushPool",
      "outputs": [],
      "stateMutability": "nonpayable",
      "type": "function"
    },
    {
      "inputs": [],
      "name": "killPool",
      "outputs": [
        {
          "internalType": "bool",
          "name": "",
          "type": "bool"
        }
      ],
      "stateMutability": "nonpayable",
      "type": "function"
    }
  ],
  "bytecode": "0x60806040523480156200001157600080fd5b5060405162004c1138038062004c11833981810160405260608110156200003757600080fd5b8101908080519060200190929190805190602001909291908051906020019092919050505033601060006101000a81548173ffffffffffffffffffffffffffffffffffffffff021916908373ffffffffffffffffffffffffffffffffffffffff16021790555033600f60006101000a81548173ffffffffffffffffffffffffffffffffffffffff021916908373ffffffffffffffffffffffffffffffffffffffff16021790555082600060050160006101000a81548173ffffffffffffffffffffffffffffffffffffffff021916908373ffffffffffffffffffffffffffffffffffffffff1602179055508160006003018190555062000148610e10826200018560201b620044a91790919060201c565b6000600a0181905550426000600801819055506000600a015460006008015401600060090181905550600160006004018190555050505062000210565b6000808314156200019a57600090506200020a565b6000828402905082848281620001ac57fe5b041462000205576040517f08c379a000000000000000000000000000000000000000000000000000000000815260040180806020018281038252602181526020018062004bf06021913960400191505060405180910390fd5b809150505b92915050565b6149d080620002206000396000f3fe608060405234801561001057600080fd5b50600436106101f05760003560e01c8063918771cd1161010f578063dd5cfaf6116100a2578063fcd66d8711610071578063fcd66d8714610b18578063fcecc4df14610ba6578063fd357b0114610c69578063ff939f9614610ce1576101f0565b8063dd5cfaf6146109c2578063e728b0f214610a1a578063f62849be14610a92578063fbdbf4f214610ac0576101f0565b8063bb2c2556116100de578063bb2c2556146108a8578063cf604bc91461090c578063d18e81b314610956578063d939381414610974576101f0565b8063918771cd146106555780639e05da6a146106ad578063ad30f29014610705578063adc9772e1461085a576101f0565b8063430c4532116101875780637a39b8d8116101565780637a39b8d8146105915780637adaa21a146105b35780637f0ae13e146105bd5780638da5cb5b1461060b576101f0565b8063430c4532146104a95780635c6187aa146104ed57806361546cc01461050b57806369fe0e2d14610563576101f0565b806335ad1e03116101c357806335ad1e0314610371578063369fd2e1146103b55780633def36b9146103f957806342819fc414610451576101f0565b80630cda7487146101f55780631f227e481461023f57806320b9588c146102c15780632612798d14610319575b600080fd5b6101fd610d3d565b604051808273ffffffffffffffffffffffffffffffffffffffff1673ffffffffffffffffffffffffffffffffffffffff16815260200191505060405180910390f35b6102816004803603602081101561025557600080fd5b81019080803573ffffffffffffffffffffffffffffffffffffffff169060200190929190505050610d63565b6040518088815260200187815260200186815260200185815260200184815260200183815260200182815260200197505050505050505060405180910390f35b610303600480360360208110156102d757600080fd5b81019080803573ffffffffffffffffffffffffffffffffffffffff169060200190929190505050610da5565b6040518082815260200191505060405180910390f35b61035b6004803603602081101561032f57600080fd5b81019080803573ffffffffffffffffffffffffffffffffffffffff169060200190929190505050610e31565b6040518082815260200191505060405180910390f35b6103b36004803603602081101561038757600080fd5b81019080803573ffffffffffffffffffffffffffffffffffffffff169060200190929190505050610f6c565b005b6103f7600480360360208110156103cb57600080fd5b81019080803573ffffffffffffffffffffffffffffffffffffffff1690602001909291905050506110ae565b005b61043b6004803603602081101561040f57600080fd5b81019080803573ffffffffffffffffffffffffffffffffffffffff1690602001909291905050506111b5565b6040518082815260200191505060405180910390f35b6104936004803603602081101561046757600080fd5b81019080803573ffffffffffffffffffffffffffffffffffffffff169060200190929190505050611201565b6040518082815260200191505060405180910390f35b6104eb600480360360208110156104bf57600080fd5b81019080803573ffffffffffffffffffffffffffffffffffffffff169060200190929190505050611320565b005b6104f561142a565b6040518082815260200191505060405180910390f35b61054d6004803603602081101561052157600080fd5b81019080803573ffffffffffffffffffffffffffffffffffffffff16906020019092919050505061149c565b6040518082815260200191505060405180910390f35b61058f6004803603602081101561057957600080fd5b81019080803590602001909291905050506114dc565b005b6105996115e7565b604051808215151515815260200191505060405180910390f35b6105bb61173f565b005b610609600480360360408110156105d357600080fd5b81019080803573ffffffffffffffffffffffffffffffffffffffff16906020019092919080359060200190929190505050611b63565b005b610613611dbf565b604051808273ffffffffffffffffffffffffffffffffffffffff1673ffffffffffffffffffffffffffffffffffffffff16815260200191505060405180910390f35b6106976004803603602081101561066b57600080fd5b81019080803573ffffffffffffffffffffffffffffffffffffffff169060200190929190505050611de5565b6040518082815260200191505060405180910390f35b6106ef600480360360208110156106c357600080fd5b81019080803573ffffffffffffffffffffffffffffffffffffffff169060200190929190505050611ee3565b6040518082815260200191505060405180910390f35b6107476004803603602081101561071b57600080fd5b81019080803573ffffffffffffffffffffffffffffffffffffffff16906020019092919050505061202b565b6040518080602001806020018760ff1660ff168152602001868152602001851515151581526020018460ff1660ff168152602001838103835289818151815260200191508051906020019080838360005b838110156107b3578082015181840152602081019050610798565b50505050905090810190601f1680156107e05780820380516001836020036101000a031916815260200191505b50838103825288818151815260200191508051906020019080838360005b838110156108195780820151818401526020810190506107fe565b50505050905090810190601f1680156108465780820380516001836020036101000a031916815260200191505b509850505050505050505060405180910390f35b6108a66004803603604081101561087057600080fd5b81019080803573ffffffffffffffffffffffffffffffffffffffff169060200190929190803590602001909291905050506122c3565b005b61090a600480360360408110156108be57600080fd5b81019080803573ffffffffffffffffffffffffffffffffffffffff169060200190929190803573ffffffffffffffffffffffffffffffffffffffff169060200190929190505050612e56565b005b610914613117565b604051808273ffffffffffffffffffffffffffffffffffffffff1673ffffffffffffffffffffffffffffffffffffffff16815260200191505060405180910390f35b61095e61313d565b6040518082815260200191505060405180910390f35b6109c06004803603604081101561098a57600080fd5b81019080803573ffffffffffffffffffffffffffffffffffffffff16906020019092919080359060200190929190505050613153565b005b610a04600480360360208110156109d857600080fd5b81019080803573ffffffffffffffffffffffffffffffffffffffff169060200190929190505050613b58565b6040518082815260200191505060405180910390f35b610a7c60048036036040811015610a3057600080fd5b81019080803573ffffffffffffffffffffffffffffffffffffffff169060200190929190803573ffffffffffffffffffffffffffffffffffffffff169060200190929190505050613b77565b6040518082815260200191505060405180910390f35b610abe60048036036020811015610aa857600080fd5b8101908080359060200190929190505050613c81565b005b610b0260048036036020811015610ad657600080fd5b81019080803573ffffffffffffffffffffffffffffffffffffffff1690602001909291905050506140ac565b6040518082815260200191505060405180910390f35b610b6460048036036040811015610b2e57600080fd5b81019080803573ffffffffffffffffffffffffffffffffffffffff16906020019092919080359060200190929190505050614191565b604051808273ffffffffffffffffffffffffffffffffffffffff1673ffffffffffffffffffffffffffffffffffffffff16815260200191505060405180910390f35b610bae614210565b604051808d81526020018c81526020018b81526020018a73ffffffffffffffffffffffffffffffffffffffff1673ffffffffffffffffffffffffffffffffffffffff1681526020018981526020018881526020018781526020018681526020018581526020018481526020018381526020018273ffffffffffffffffffffffffffffffffffffffff1673ffffffffffffffffffffffffffffffffffffffff1681526020019c5050505050505050505050505060405180910390f35b610ccb60048036036040811015610c7f57600080fd5b81019080803573ffffffffffffffffffffffffffffffffffffffff169060200190929190803573ffffffffffffffffffffffffffffffffffffffff16906020019092919050505061429e565b6040518082815260200191505060405180910390f35b610d2360048036036020811015610cf757600080fd5b81019080803573ffffffffffffffffffffffffffffffffffffffff169060200190929190505050614328565b604051808215151515815260200191505060405180910390f35b601160009054906101000a900473ffffffffffffffffffffffffffffffffffffffff1681565b600e60205280600052604060002060009150905080600401549080600501549080600601549080600701549080600801549080600901549080600a0154905087565b6000806008015442111580610dbe575060008060060154145b15610dcc5760009050610e2c565b610e29610dd883610e31565b600e60008573ffffffffffffffffffffffffffffffffffffffff1673ffffffffffffffffffffffffffffffffffffffff1681526020019081526020016000206008015461434690919063ffffffff16565b90505b919050565b60008060006006015411610ead576040517f08c379a00000000000000000000000000000000000000000000000000000000081526004018080602001828103825260168152602001807f4e6f205265776172647320696e2074686520506f6f6c0000000000000000000081525060200191505060405180910390fd5b6000610eb883611201565b90506000610f26610f10600e60008773ffffffffffffffffffffffffffffffffffffffff1673ffffffffffffffffffffffffffffffffffffffff168152602001908152602001600020600701546000600801546143ce565b610f1861313d565b6143e890919063ffffffff16565b90506000610f5f670de0b6b3a7640000610f5185610f4386614432565b6144a990919063ffffffff16565b61452f90919063ffffffff16565b9050809350505050919050565b600f60009054906101000a900473ffffffffffffffffffffffffffffffffffffffff1673ffffffffffffffffffffffffffffffffffffffff163373ffffffffffffffffffffffffffffffffffffffff1614806110155750601060009054906101000a900473ffffffffffffffffffffffffffffffffffffffff1673ffffffffffffffffffffffffffffffffffffffff163373ffffffffffffffffffffffffffffffffffffffff16145b61106a576040517f08c379a00000000000000000000000000000000000000000000000000000000081526004018080602001828103825260298152602001806148a66029913960400191505060405180910390fd5b80600f60006101000a81548173ffffffffffffffffffffffffffffffffffffffff021916908373ffffffffffffffffffffffffffffffffffffffff16021790555050565b601060009054906101000a900473ffffffffffffffffffffffffffffffffffffffff1673ffffffffffffffffffffffffffffffffffffffff163373ffffffffffffffffffffffffffffffffffffffff1614611171576040517f08c379a000000000000000000000000000000000000000000000000000000000815260040180806020018281038252600a8152602001807f4f6e6c79204f776e65720000000000000000000000000000000000000000000081525060200191505060405180910390fd5b80601160006101000a81548173ffffffffffffffffffffffffffffffffffffffff021916908373ffffffffffffffffffffffffffffffffffffffff16021790555050565b6000601260008373ffffffffffffffffffffffffffffffffffffffff1673ffffffffffffffffffffffffffffffffffffffff168152602001908152602001600020805490509050919050565b600080611261600e60008573ffffffffffffffffffffffffffffffffffffffff1673ffffffffffffffffffffffffffffffffffffffff1681526020019081526020016000206005015461125385611ee3565b6143e890919063ffffffff16565b905060006112c1600e60008673ffffffffffffffffffffffffffffffffffffffff1673ffffffffffffffffffffffffffffffffffffffff168152602001908152602001600020600601546112b361142a565b6143e890919063ffffffff16565b9050600080905060008314806112d75750600082145b156112e55760009050611315565b61131282611304670de0b6b3a7640000866144a990919063ffffffff16565b61452f90919063ffffffff16565b90505b809350505050919050565b601060009054906101000a900473ffffffffffffffffffffffffffffffffffffffff1673ffffffffffffffffffffffffffffffffffffffff163373ffffffffffffffffffffffffffffffffffffffff16146113e3576040517f08c379a000000000000000000000000000000000000000000000000000000000815260040180806020018281038252600a8152602001807f4f6e6c79204f776e65720000000000000000000000000000000000000000000081525060200191505060405180910390fd5b806000600d0160006101000a81548173ffffffffffffffffffffffffffffffffffffffff021916908373ffffffffffffffffffffffffffffffffffffffff16021790555050565b6000806000600401549050600080600201549050600061146d6114576000600b01546000600801546143ce565b61145f61313d565b6143e890919063ffffffff16565b905061149461148582846144a990919063ffffffff16565b8461434690919063ffffffff16565b935050505090565b60006114d56114a961142a565b6114c7620186a06114b986611ee3565b6144a990919063ffffffff16565b61452f90919063ffffffff16565b9050919050565b600f60009054906101000a900473ffffffffffffffffffffffffffffffffffffffff1673ffffffffffffffffffffffffffffffffffffffff163373ffffffffffffffffffffffffffffffffffffffff1614806115855750601060009054906101000a900473ffffffffffffffffffffffffffffffffffffffff1673ffffffffffffffffffffffffffffffffffffffff163373ffffffffffffffffffffffffffffffffffffffff16145b6115da576040517f08c379a00000000000000000000000000000000000000000000000000000000081526004018080602001828103825260298152602001806148a66029913960400191505060405180910390fd5b8060006003018190555050565b6000601060009054906101000a900473ffffffffffffffffffffffffffffffffffffffff1673ffffffffffffffffffffffffffffffffffffffff163373ffffffffffffffffffffffffffffffffffffffff16146116ac576040517f08c379a000000000000000000000000000000000000000000000000000000000815260040180806020018281038252600a8152602001807f4f6e6c79204f776e65720000000000000000000000000000000000000000000081525060200191505060405180910390fd5b6000600901544211611726576040517f08c379a00000000000000000000000000000000000000000000000000000000081526004018080602001828103825260128152602001807f506f6f6c206e6f7420656e64656420596574000000000000000000000000000081525060200191505060405180910390fd5b3373ffffffffffffffffffffffffffffffffffffffff16ff5b6000600801544210156117ba576040517f08c379a00000000000000000000000000000000000000000000000000000000081526004018080602001828103825260148152602001807f506f6f6c206e6f7420737461727465642059657400000000000000000000000081525060200191505060405180910390fd5b600161181181600e60003373ffffffffffffffffffffffffffffffffffffffff1673ffffffffffffffffffffffffffffffffffffffff168152602001908152602001600020600a015461434690919063ffffffff16565b4311611868576040517f08c379a00000000000000000000000000000000000000000000000000000000081526004018080602001828103825260228152602001806149116022913960400191505060405180910390fd5b43600e60003373ffffffffffffffffffffffffffffffffffffffff1673ffffffffffffffffffffffffffffffffffffffff168152602001908152602001600020600a01819055506000806006015411611929576040517f08c379a00000000000000000000000000000000000000000000000000000000081526004018080602001828103825260168152602001807f4e6f205265776172647320696e2074686520506f6f6c0000000000000000000081525060200191505060405180910390fd5b600061193433611de5565b905080600e60003373ffffffffffffffffffffffffffffffffffffffff1673ffffffffffffffffffffffffffffffffffffffff168152602001908152602001600020600901819055506000600e60003373ffffffffffffffffffffffffffffffffffffffff1673ffffffffffffffffffffffffffffffffffffffff168152602001908152602001600020600801819055506119dd816000600601546143e890919063ffffffff16565b600060060181905550600060050160009054906101000a900473ffffffffffffffffffffffffffffffffffffffff1673ffffffffffffffffffffffffffffffffffffffff1663a9059cbb33836040518363ffffffff1660e01b8152600401808373ffffffffffffffffffffffffffffffffffffffff1673ffffffffffffffffffffffffffffffffffffffff16815260200182815260200192505050602060405180830381600087803b158015611a9257600080fd5b505af1158015611aa6573d6000803e3d6000fd5b505050506040513d6020811015611abc57600080fd5b810190808051906020019092919050505050611ad733614328565b503373ffffffffffffffffffffffffffffffffffffffff167f2fc029baad553950fe705b54adac427ede59ec14428d842ec4f83ee1a090e8fb8260405180828152602001806020018281038252600c8152602001807f526577617264732053656e7400000000000000000000000000000000000000008152506020019250505060405180910390a25050565b60008111611bbc576040517f08c379a00000000000000000000000000000000000000000000000000000000081526004018080602001828103825260218152602001806148cf6021913960400191505060405180910390fd5b60108110611c15576040517f08c379a000000000000000000000000000000000000000000000000000000000815260040180806020018281038252602781526020018061487f6027913960400191505060405180910390fd5b6000611c2a611c243384614191565b3361429e565b14611c80576040517f08c379a00000000000000000000000000000000000000000000000000000000081526004018080602001828103825260298152602001806149726029913960400191505060405180910390fd5b81601260003373ffffffffffffffffffffffffffffffffffffffff1673ffffffffffffffffffffffffffffffffffffffff1681526020019081526020016000208281548110611ccb57fe5b9060005260206000200160006101000a81548173ffffffffffffffffffffffffffffffffffffffff021916908373ffffffffffffffffffffffffffffffffffffffff16021790555073b6ee603933e024d8d53dde3faa0bf98fe2a3d6f1601260003373ffffffffffffffffffffffffffffffffffffffff1673ffffffffffffffffffffffffffffffffffffffff168152602001908152602001600020600081548110611d7357fe5b9060005260206000200160006101000a81548173ffffffffffffffffffffffffffffffffffffffff021916908373ffffffffffffffffffffffffffffffffffffffff1602179055505050565b601060009054906101000a900473ffffffffffffffffffffffffffffffffffffffff1681565b600080611df183610e31565b9050611e4881600e60008673ffffffffffffffffffffffffffffffffffffffff1673ffffffffffffffffffffffffffffffffffffffff1681526020019081526020016000206008015461434690919063ffffffff16565b600e60008573ffffffffffffffffffffffffffffffffffffffff1673ffffffffffffffffffffffffffffffffffffffff16815260200190815260200160002060080181905550611e9783614328565b50600e60008473ffffffffffffffffffffffffffffffffffffffff1673ffffffffffffffffffffffffffffffffffffffff16815260200190815260200160002060080154915050919050565b600080600e60008473ffffffffffffffffffffffffffffffffffffffff1673ffffffffffffffffffffffffffffffffffffffff1681526020019081526020016000206005015490506000600e60008573ffffffffffffffffffffffffffffffffffffffff1673ffffffffffffffffffffffffffffffffffffffff1681526020019081526020016000206004015490506000611fde611fc8600e60008873ffffffffffffffffffffffffffffffffffffffff1673ffffffffffffffffffffffffffffffffffffffff168152602001908152602001600020600701546000600801546143ce565b611fd061313d565b6143e890919063ffffffff16565b90506000612007611ff883856144a990919063ffffffff16565b8561434690919063ffffffff16565b905060006004015481111561201f5760006004015490505b80945050505050919050565b606080600080600080601160009054906101000a900473ffffffffffffffffffffffffffffffffffffffff1673ffffffffffffffffffffffffffffffffffffffff16637c4d5962886040518263ffffffff1660e01b8152600401808273ffffffffffffffffffffffffffffffffffffffff1673ffffffffffffffffffffffffffffffffffffffff16815260200191505060006040518083038186803b1580156120d357600080fd5b505afa1580156120e7573d6000803e3d6000fd5b505050506040513d6000823e3d601f19601f8201168201806040525060c081101561211157600080fd5b810190808051604051939291908464010000000082111561213157600080fd5b8382019150602082018581111561214757600080fd5b825186600182028301116401000000008211171561216457600080fd5b8083526020830192505050908051906020019080838360005b8381101561219857808201518184015260208101905061217d565b50505050905090810190601f1680156121c55780820380516001836020036101000a031916815260200191505b50604052602001805160405193929190846401000000008211156121e857600080fd5b838201915060208201858111156121fe57600080fd5b825186600182028301116401000000008211171561221b57600080fd5b8083526020830192505050908051906020019080838360005b8381101561224f578082015181840152602081019050612234565b50505050905090810190601f16801561227c5780820380516001836020036101000a031916815260200191505b506040526020018051906020019092919080519060200190929190805190602001909291908051906020019092919050505095509550955095509550955091939550919395565b60006008015442101561233e576040517f08c379a00000000000000000000000000000000000000000000000000000000081526004018080602001828103825260148152602001807f506f6f6c206e6f7420737461727465642059657400000000000000000000000081525060200191505060405180910390fd5b6000600901544211156123b9576040517f08c379a000000000000000000000000000000000000000000000000000000000815260040180806020018281038252600b8152602001807f506f6f6c20636c6f73656400000000000000000000000000000000000000000081525060200191505060405180910390fd5b600161241081600e60003373ffffffffffffffffffffffffffffffffffffffff1673ffffffffffffffffffffffffffffffffffffffff168152602001908152602001600020600a015461434690919063ffffffff16565b4311612467576040517f08c379a00000000000000000000000000000000000000000000000000000000081526004018080602001828103825260228152602001806149116022913960400191505060405180910390fd5b43600e60003373ffffffffffffffffffffffffffffffffffffffff1673ffffffffffffffffffffffffffffffffffffffff168152602001908152602001600020600a01819055508233614e206124bd8383613b77565b10612513576040517f08c379a000000000000000000000000000000000000000000000000000000000815260040180806020018281038252603f815260200180614933603f913960400191505060405180910390fd5b84600061251f8261202b565b5094505050505060011515811515146125a0576040517f08c379a00000000000000000000000000000000000000000000000000000000081526004018080602001828103825260108152602001807f746f6b656e206e6f74204c69737465640000000000000000000000000000000081525060200191505060405180910390fd5b60008611612616576040517f08c379a000000000000000000000000000000000000000000000000000000000815260040180806020018281038252600e8152602001807f43616e6e6f74207374616b65203000000000000000000000000000000000000081525060200191505060405180910390fd5b61261f33611de5565b600e60003373ffffffffffffffffffffffffffffffffffffffff1673ffffffffffffffffffffffffffffffffffffffff1681526020019081526020016000206008018190555061266e33614328565b5060008773ffffffffffffffffffffffffffffffffffffffff166370a08231306040518263ffffffff1660e01b8152600401808273ffffffffffffffffffffffffffffffffffffffff1673ffffffffffffffffffffffffffffffffffffffff16815260200191505060206040518083038186803b1580156126ee57600080fd5b505afa158015612702573d6000803e3d6000fd5b505050506040513d602081101561271857600080fd5b810190808051906020019092919050505090508773ffffffffffffffffffffffffffffffffffffffff166323b872dd33308a6040518463ffffffff1660e01b8152600401808473ffffffffffffffffffffffffffffffffffffffff1673ffffffffffffffffffffffffffffffffffffffff1681526020018373ffffffffffffffffffffffffffffffffffffffff1673ffffffffffffffffffffffffffffffffffffffff1681526020018281526020019350505050602060405180830381600087803b1580156127e657600080fd5b505af11580156127fa573d6000803e3d6000fd5b505050506040513d602081101561281057600080fd5b81019080805190602001909291905050505060006128ee828a73ffffffffffffffffffffffffffffffffffffffff166370a08231306040518263ffffffff1660e01b8152600401808273ffffffffffffffffffffffffffffffffffffffff1673ffffffffffffffffffffffffffffffffffffffff16815260200191505060206040518083038186803b1580156128a557600080fd5b505afa1580156128b9573d6000803e3d6000fd5b505050506040513d60208110156128cf57600080fd5b81019080805190602001909291905050506143e890919063ffffffff16565b905061292e61291f6103e8612911600060030154856144a990919063ffffffff16565b61452f90919063ffffffff16565b826143e890919063ffffffff16565b9050612984816000800160008c73ffffffffffffffffffffffffffffffffffffffff1673ffffffffffffffffffffffffffffffffffffffff1681526020019081526020016000205461434690919063ffffffff16565b6000800160008b73ffffffffffffffffffffffffffffffffffffffff1673ffffffffffffffffffffffffffffffffffffffff16815260200190815260200160002081905550612a5b81600e60003373ffffffffffffffffffffffffffffffffffffffff1673ffffffffffffffffffffffffffffffffffffffff16815260200190815260200160002060000160008c73ffffffffffffffffffffffffffffffffffffffff1673ffffffffffffffffffffffffffffffffffffffff1681526020019081526020016000205461434690919063ffffffff16565b600e60003373ffffffffffffffffffffffffffffffffffffffff1673ffffffffffffffffffffffffffffffffffffffff16815260200190815260200160002060000160008b73ffffffffffffffffffffffffffffffffffffffff1673ffffffffffffffffffffffffffffffffffffffff168152602001908152602001600020819055506000612ae98a6140ac565b90506000612b1a82612b0c670de0b6b3a7640000866144a990919063ffffffff16565b61452f90919063ffffffff16565b9050612b4a6064612b3c612b2d8e613b58565b846144a990919063ffffffff16565b61452f90919063ffffffff16565b9050612b648160006002015461434690919063ffffffff16565b600060020181905550612bc281600e60003373ffffffffffffffffffffffffffffffffffffffff1673ffffffffffffffffffffffffffffffffffffffff1681526020019081526020016000206004015461434690919063ffffffff16565b600e60003373ffffffffffffffffffffffffffffffffffffffff1673ffffffffffffffffffffffffffffffffffffffff16815260200190815260200160002060040181905550612c5d83600060010160008e73ffffffffffffffffffffffffffffffffffffffff1673ffffffffffffffffffffffffffffffffffffffff1681526020019081526020016000205461434690919063ffffffff16565b600060010160008d73ffffffffffffffffffffffffffffffffffffffff1673ffffffffffffffffffffffffffffffffffffffff16815260200190815260200160002081905550612d3581600e60003373ffffffffffffffffffffffffffffffffffffffff1673ffffffffffffffffffffffffffffffffffffffff16815260200190815260200160002060010160008e73ffffffffffffffffffffffffffffffffffffffff1673ffffffffffffffffffffffffffffffffffffffff1681526020019081526020016000205461434690919063ffffffff16565b600e60003373ffffffffffffffffffffffffffffffffffffffff1673ffffffffffffffffffffffffffffffffffffffff16815260200190815260200160002060010160008d73ffffffffffffffffffffffffffffffffffffffff1673ffffffffffffffffffffffffffffffffffffffff16815260200190815260200160002081905550612dc133614328565b503373ffffffffffffffffffffffffffffffffffffffff167f167ca5543be7bdd4d64d74a1255ec46c74aa0b2ad274a73b1a5c910f8d65d26f8460405180828152602001806020018281038252600f8152602001807f5374616b696e672e2e2e202e2e2e2000000000000000000000000000000000008152506020019250505060405180910390a25050505050505050505050565b601060009054906101000a900473ffffffffffffffffffffffffffffffffffffffff1673ffffffffffffffffffffffffffffffffffffffff163373ffffffffffffffffffffffffffffffffffffffff1614612f19576040517f08c379a000000000000000000000000000000000000000000000000000000000815260040180806020018281038252600a8152602001807f4f6e6c79204f776e65720000000000000000000000000000000000000000000081525060200191505060405180910390fd5b6000600901544211612f93576040517f08c379a00000000000000000000000000000000000000000000000000000000081526004018080602001828103825260128152602001807f506f6f6c206e6f7420656e64656420596574000000000000000000000000000081525060200191505060405180910390fd5b60008273ffffffffffffffffffffffffffffffffffffffff166370a08231306040518263ffffffff1660e01b8152600401808273ffffffffffffffffffffffffffffffffffffffff1673ffffffffffffffffffffffffffffffffffffffff16815260200191505060206040518083038186803b15801561301257600080fd5b505afa158015613026573d6000803e3d6000fd5b505050506040513d602081101561303c57600080fd5b810190808051906020019092919050505090508273ffffffffffffffffffffffffffffffffffffffff1663a9059cbb83836040518363ffffffff1660e01b8152600401808373ffffffffffffffffffffffffffffffffffffffff1673ffffffffffffffffffffffffffffffffffffffff16815260200182815260200192505050602060405180830381600087803b1580156130d657600080fd5b505af11580156130ea573d6000803e3d6000fd5b505050506040513d602081101561310057600080fd5b810190808051906020019092919050505050505050565b600f60009054906101000a900473ffffffffffffffffffffffffffffffffffffffff1681565b600061314e42600060090154614579565b905090565b6000600801544210156131ce576040517f08c379a00000000000000000000000000000000000000000000000000000000081526004018080602001828103825260148152602001807f506f6f6c206e6f7420737461727465642059657400000000000000000000000081525060200191505060405180910390fd5b600161322581600e60003373ffffffffffffffffffffffffffffffffffffffff1673ffffffffffffffffffffffffffffffffffffffff168152602001908152602001600020600a015461434690919063ffffffff16565b431161327c576040517f08c379a00000000000000000000000000000000000000000000000000000000081526004018080602001828103825260228152602001806149116022913960400191505060405180910390fd5b43600e60003373ffffffffffffffffffffffffffffffffffffffff1673ffffffffffffffffffffffffffffffffffffffff168152602001908152602001600020600a018190555060008211613339576040517f08c379a00000000000000000000000000000000000000000000000000000000081526004018080602001828103825260118152602001807f43616e6e6f74207769746864726177203000000000000000000000000000000081525060200191505060405180910390fd5b600e60003373ffffffffffffffffffffffffffffffffffffffff1673ffffffffffffffffffffffffffffffffffffffff16815260200190815260200160002060000160008473ffffffffffffffffffffffffffffffffffffffff1673ffffffffffffffffffffffffffffffffffffffff1681526020019081526020016000205482111561342e576040517f08c379a000000000000000000000000000000000000000000000000000000000815260040180806020018281038252601f8152602001807f43616e6e6f74207769746864726177206d6f7265207468616e207374616b650081525060200191505060405180910390fd5b61343733611de5565b600e60003373ffffffffffffffffffffffffffffffffffffffff1673ffffffffffffffffffffffffffffffffffffffff1681526020019081526020016000206008018190555061348633614328565b50600082905060006135b9600e60003373ffffffffffffffffffffffffffffffffffffffff1673ffffffffffffffffffffffffffffffffffffffff16815260200190815260200160002060010160008773ffffffffffffffffffffffffffffffffffffffff1673ffffffffffffffffffffffffffffffffffffffff168152602001908152602001600020546135ab670de0b6b3a7640000600e60003373ffffffffffffffffffffffffffffffffffffffff1673ffffffffffffffffffffffffffffffffffffffff16815260200190815260200160002060000160008a73ffffffffffffffffffffffffffffffffffffffff1673ffffffffffffffffffffffffffffffffffffffff168152602001908152602001600020546144a990919063ffffffff16565b61452f90919063ffffffff16565b905060006135ea826135dc670de0b6b3a7640000866144a990919063ffffffff16565b61452f90919063ffffffff16565b9050613604816000600201546143e890919063ffffffff16565b60006002018190555061366281600e60003373ffffffffffffffffffffffffffffffffffffffff1673ffffffffffffffffffffffffffffffffffffffff168152602001908152602001600020600401546143e890919063ffffffff16565b600e60003373ffffffffffffffffffffffffffffffffffffffff1673ffffffffffffffffffffffffffffffffffffffff168152602001908152602001600020600401819055506136fc836000800160008973ffffffffffffffffffffffffffffffffffffffff1673ffffffffffffffffffffffffffffffffffffffff168152602001908152602001600020546143e890919063ffffffff16565b6000800160008873ffffffffffffffffffffffffffffffffffffffff1673ffffffffffffffffffffffffffffffffffffffff168152602001908152602001600020819055506137d383600e60003373ffffffffffffffffffffffffffffffffffffffff1673ffffffffffffffffffffffffffffffffffffffff16815260200190815260200160002060000160008973ffffffffffffffffffffffffffffffffffffffff1673ffffffffffffffffffffffffffffffffffffffff168152602001908152602001600020546143e890919063ffffffff16565b600e60003373ffffffffffffffffffffffffffffffffffffffff1673ffffffffffffffffffffffffffffffffffffffff16815260200190815260200160002060000160008873ffffffffffffffffffffffffffffffffffffffff1673ffffffffffffffffffffffffffffffffffffffff168152602001908152602001600020819055506138ab83600060010160008973ffffffffffffffffffffffffffffffffffffffff1673ffffffffffffffffffffffffffffffffffffffff168152602001908152602001600020546143e890919063ffffffff16565b600060010160008873ffffffffffffffffffffffffffffffffffffffff1673ffffffffffffffffffffffffffffffffffffffff1681526020019081526020016000208190555061398381600e60003373ffffffffffffffffffffffffffffffffffffffff1673ffffffffffffffffffffffffffffffffffffffff16815260200190815260200160002060010160008973ffffffffffffffffffffffffffffffffffffffff1673ffffffffffffffffffffffffffffffffffffffff168152602001908152602001600020546143e890919063ffffffff16565b600e60003373ffffffffffffffffffffffffffffffffffffffff1673ffffffffffffffffffffffffffffffffffffffff16815260200190815260200160002060010160008873ffffffffffffffffffffffffffffffffffffffff1673ffffffffffffffffffffffffffffffffffffffff168152602001908152602001600020819055508573ffffffffffffffffffffffffffffffffffffffff1663a9059cbb33876040518363ffffffff1660e01b8152600401808373ffffffffffffffffffffffffffffffffffffffff1673ffffffffffffffffffffffffffffffffffffffff16815260200182815260200192505050602060405180830381600087803b158015613a8d57600080fd5b505af1158015613aa1573d6000803e3d6000fd5b505050506040513d6020811015613ab757600080fd5b8101908080519060200190929190505050503373ffffffffffffffffffffffffffffffffffffffff167ff81475acca41b6158ffa94b90c0570165f1052684e7df9ab735e66ca1f57435f8660405180828152602001806020018281038252600b8152602001807f576964687464726177616c0000000000000000000000000000000000000000008152506020019250505060405180910390a2505050505050565b600080613b648361202b565b60ff169550505050505080915050919050565b6000806000600201541415613b8f5760009050613c7b565b613c78600060010160008573ffffffffffffffffffffffffffffffffffffffff1673ffffffffffffffffffffffffffffffffffffffff16815260200190815260200160002054613c6a620186a0600e60008773ffffffffffffffffffffffffffffffffffffffff1673ffffffffffffffffffffffffffffffffffffffff16815260200190815260200160002060010160008873ffffffffffffffffffffffffffffffffffffffff1673ffffffffffffffffffffffffffffffffffffffff168152602001908152602001600020546144a990919063ffffffff16565b61452f90919063ffffffff16565b90505b92915050565b600f60009054906101000a900473ffffffffffffffffffffffffffffffffffffffff1673ffffffffffffffffffffffffffffffffffffffff163373ffffffffffffffffffffffffffffffffffffffff161480613d2a5750601060009054906101000a900473ffffffffffffffffffffffffffffffffffffffff1673ffffffffffffffffffffffffffffffffffffffff163373ffffffffffffffffffffffffffffffffffffffff16145b613d7f576040517f08c379a00000000000000000000000000000000000000000000000000000000081526004018080602001828103825260298152602001806148a66029913960400191505060405180910390fd5b60008060050160009054906101000a900473ffffffffffffffffffffffffffffffffffffffff1673ffffffffffffffffffffffffffffffffffffffff166370a08231306040518263ffffffff1660e01b8152600401808273ffffffffffffffffffffffffffffffffffffffff1673ffffffffffffffffffffffffffffffffffffffff16815260200191505060206040518083038186803b158015613e2257600080fd5b505afa158015613e36573d6000803e3d6000fd5b505050506040513d6020811015613e4c57600080fd5b81019080805190602001909291905050509050600060050160009054906101000a900473ffffffffffffffffffffffffffffffffffffffff1673ffffffffffffffffffffffffffffffffffffffff166323b872dd3330856040518463ffffffff1660e01b8152600401808473ffffffffffffffffffffffffffffffffffffffff1673ffffffffffffffffffffffffffffffffffffffff1681526020018373ffffffffffffffffffffffffffffffffffffffff1673ffffffffffffffffffffffffffffffffffffffff1681526020018281526020019350505050602060405180830381600087803b158015613f3f57600080fd5b505af1158015613f53573d6000803e3d6000fd5b505050506040513d6020811015613f6957600080fd5b810190808051906020019092919050505050600061406c82600060050160009054906101000a900473ffffffffffffffffffffffffffffffffffffffff1673ffffffffffffffffffffffffffffffffffffffff166370a08231306040518263ffffffff1660e01b8152600401808273ffffffffffffffffffffffffffffffffffffffff1673ffffffffffffffffffffffffffffffffffffffff16815260200191505060206040518083038186803b15801561402357600080fd5b505afa158015614037573d6000803e3d6000fd5b505050506040513d602081101561404d57600080fd5b81019080805190602001909291905050506143e890919063ffffffff16565b905061407d60006006015482614346565b60006006018190555061409e8360006007015461434690919063ffffffff16565b600060070181905550505050565b6000601160009054906101000a900473ffffffffffffffffffffffffffffffffffffffff1673ffffffffffffffffffffffffffffffffffffffff166381d1d78c836040518263ffffffff1660e01b8152600401808273ffffffffffffffffffffffffffffffffffffffff1673ffffffffffffffffffffffffffffffffffffffff168152602001915050602060405180830381600087803b15801561414f57600080fd5b505af1158015614163573d6000803e3d6000fd5b505050506040513d602081101561417957600080fd5b81019080805190602001909291905050509050919050565b6000601260008473ffffffffffffffffffffffffffffffffffffffff1673ffffffffffffffffffffffffffffffffffffffff16815260200190815260200160002082815481106141dd57fe5b9060005260206000200160009054906101000a900473ffffffffffffffffffffffffffffffffffffffff16905092915050565b60008060020154908060030154908060040154908060050160009054906101000a900473ffffffffffffffffffffffffffffffffffffffff169080600601549080600701549080600801549080600901549080600a01549080600b01549080600c01549080600d0160009054906101000a900473ffffffffffffffffffffffffffffffffffffffff1690508c565b6000600e60008373ffffffffffffffffffffffffffffffffffffffff1673ffffffffffffffffffffffffffffffffffffffff16815260200190815260200160002060000160008473ffffffffffffffffffffffffffffffffffffffff1673ffffffffffffffffffffffffffffffffffffffff16815260200190815260200160002054905092915050565b600061433382614592565b5061433c6146c9565b5060019050919050565b6000808284019050838110156143c4576040517f08c379a000000000000000000000000000000000000000000000000000000000815260040180806020018281038252601b8152602001807f536166654d6174683a206164646974696f6e206f766572666c6f77000000000081525060200191505060405180910390fd5b8091505092915050565b6000818310156143de57816143e0565b825b905092915050565b600061442a83836040518060400160405280601e81526020017f536166654d6174683a207375627472616374696f6e206f766572666c6f7700008152506146f8565b905092915050565b600080600060070154905060006144716000600a0154614463670de0b6b3a7640000876144a990919063ffffffff16565b61452f90919063ffffffff16565b90506144a0670de0b6b3a764000061449283856144a990919063ffffffff16565b61452f90919063ffffffff16565b92505050919050565b6000808314156144bc5760009050614529565b60008284029050828482816144cd57fe5b0414614524576040517f08c379a00000000000000000000000000000000000000000000000000000000081526004018080602001828103825260218152602001806148f06021913960400191505060405180910390fd5b809150505b92915050565b600061457183836040518060400160405280601a81526020017f536166654d6174683a206469766973696f6e206279207a65726f0000000000008152506147b8565b905092915050565b6000818310614588578161458a565b825b905092915050565b600061459c61142a565b600e60008473ffffffffffffffffffffffffffffffffffffffff1673ffffffffffffffffffffffffffffffffffffffff168152602001908152602001600020600601819055506145eb82611ee3565b600e60008473ffffffffffffffffffffffffffffffffffffffff1673ffffffffffffffffffffffffffffffffffffffff1681526020019081526020016000206005018190555061463961313d565b600e60008473ffffffffffffffffffffffffffffffffffffffff1673ffffffffffffffffffffffffffffffffffffffff16815260200190815260200160002060070181905550600e60008373ffffffffffffffffffffffffffffffffffffffff1673ffffffffffffffffffffffffffffffffffffffff168152602001908152602001600020600501549050919050565b60006146d361142a565b6000600401819055506146e461313d565b6000600b0181905550600060040154905090565b60008383111582906147a5576040517f08c379a00000000000000000000000000000000000000000000000000000000081526004018080602001828103825283818151815260200191508051906020019080838360005b8381101561476a57808201518184015260208101905061474f565b50505050905090810190601f1680156147975780820380516001836020036101000a031916815260200191505b509250505060405180910390fd5b5060008385039050809150509392505050565b60008083118290614864576040517f08c379a00000000000000000000000000000000000000000000000000000000081526004018080602001828103825283818151815260200191508051906020019080838360005b8381101561482957808201518184015260208101905061480e565b50505050905090810190601f1680156148565780820380516001836020036101000a031916815260200191505b509250505060405180910390fd5b50600083858161487057fe5b04905080915050939250505056fe6d6178696d756d20313620746f6b656e7320696e636c7573696e672074686520746f6b656e20306d73672e73656e646572206973206e6f7420616c6c6f77656420746f206f70657261746520506f6f6c63616e6e6f74206368616e67652031737420746f6b656e2c20444654206f6e6c79536166654d6174683a206d756c7469706c69636174696f6e206f766572666c6f7757616974205820424c4f434b53206265747765656e205472616e73616374696f6e7355736572207374616b652520736861726520746f6f20686967682e204c6561766520736f6d6520666f722074686520736d616c6c65722067757973203b2d2963616e6e6f742072656d6f7665206120746f6b656e2077697468206578697374696e67207374616b65a26469706673582212206c2183c208137e62c549185bcba2c04f04ef9d2c49d401556dca8661e08caa3164736f6c63430006060033536166654d6174683a206d756c7469706c69636174696f6e206f766572666c6f77",
  "immutableReferences": {},
  "source": "pragma solidity ^0.6.0;\n\nimport \"./SafeMath.sol\";\nimport \"./_Interfaces.sol\";\n\n\ninterface IAnyStake_Library {\n    function tokenInfoLibrary(address _token) external view returns(\n        string memory name, string memory symbol, uint8 decimals, uint256 spotPrice, bool activated, uint8 boost);\n    \n    function tokenPriceUpdate(address _token) external returns (uint256);\n}\n// File: @defiat-crypto/defiat/blob/master/contracts/XXXXXX.sol\n/**\n * @dev Delegated Farming Contract.\n * Implements a conditoin on the DFT-DFT farming pool for users to generate more rewards\n */\ncontract DeFiat_AnyStake{\n    using SafeMath for uint256;\n\n    //Structs\n    struct PoolMetrics {\n        mapping(address => uint256) tokenStake;             // stakes per token \n        mapping(address => uint256) wETHtokenStake;         // wETH equivalent\n        uint256 wETHStake;      // total stake in wETH Gwei (aggregated)\n        uint256 stakingFee;     // entry fee\n        \n        uint256 stakingPoints;\n\n        address rewardToken;\n        uint256 rewards;        // current rewards in the pool\n        uint256 totalRewards;\n\n        uint256 startTime;      // when the pool opens\n        uint256 closingTime;    // when the pool closes. \n        uint256 duration;       // duration of the staking\n        uint256 lastEvent;      // last time metrics were updated.\n        \n        uint256  ratePerToken;  // CALCULATED pool reward Rate per Token (calculated based on total stake and time)\n        \n        address DftDungeon;     // used to calculate the DeFiatScore\n    }\n    PoolMetrics public poolMetrics;\n\n    struct UserMetrics {\n        mapping(address => uint256) tokenStake;             // stakes per token (nb of tokens)\n        mapping(address => uint256) wETHtokenStake;         // wETH equivalent\n        mapping(address => uint256) tokenPoints;\n        mapping(address => uint256) tokenBoost;             // boost per token, depends on the nb of DFT staked (0 = no stakingPoints generated)\n        \n        uint256 wETHStake;          // total stake in wETH Gwei (aggregated)\n        uint256 stakingPoints;  // total staking points at lastEvent\n        uint256 poolPoints;     // pool point at lastEvent\n        uint256 lastEvent;\n\n        uint256 rewardAccrued;  // accrued rewards over time based on staking points\n        uint256 rewardsPaid;    // for information only\n\n        uint256 lastTxBlock;    // latest transaction from the user (antiSpam)\n    }\n    mapping(address => UserMetrics) public userMetrics;\n    \n    address public poolOperator; address public owner; address public AnyStake_Library;\n        \n\n//== constructor \n    constructor(address _rewardToken, uint256 _feeBase1000, uint256 _durationHours) public {\n        owner = msg.sender;\n        poolOperator = msg.sender;\n        \n        poolMetrics.rewardToken = address(_rewardToken);\n        poolMetrics.stakingFee = _feeBase1000; //10 = 1%\n        \n        poolMetrics.duration = _durationHours.mul(3600); //\n        poolMetrics.startTime = block.timestamp;\n        poolMetrics.closingTime = poolMetrics.startTime + poolMetrics.duration;\n        \n        poolMetrics.stakingPoints = 1; //avoids div by 0 at start\n    }\n\n//== Events & Modifiers\n    event PoolInitalized(uint256 amountAdded, string  _desc);\n    event RewardTaken(address indexed user, uint256 reward, string  _desc);\n\n    event userStaking(address indexed user, uint256 amount, string  _desc);\n    event userWithdrawal(address indexed user, uint256 amount, string  _desc);\n\n\n    modifier poolLive() {\n        require(block.timestamp >= poolMetrics.startTime,\"Pool not started Yet\"); //good for delayed starts.\n        require(block.timestamp <= poolMetrics.closingTime,\"Pool closed\"); //good for delayed starts.\n        _;\n    }\n    modifier poolStarted() {\n        require(block.timestamp >= poolMetrics.startTime,\"Pool not started Yet\"); //good for delayed starts.\n        _;\n    }\n    modifier poolEnded() {\n        require(block.timestamp > poolMetrics.closingTime,\"Pool not ended Yet\"); //good for delayed starts.\n        _;\n    }\n    \n    modifier antiSpam(uint256 _blocks) {\n        require(block.number > userMetrics[msg.sender].lastTxBlock.add(_blocks), \"Wait X BLOCKS between Transactions\");\n        userMetrics[msg.sender].lastTxBlock = block.number; //update\n        _;\n    } \n    modifier onlyPoolOperator() {\n        require(msg.sender== poolOperator || msg.sender == owner, \"msg.sender is not allowed to operate Pool\");\n        _;\n    }\n    modifier onlyOwner() {\n        require(msg.sender== owner, \"Only Owner\");\n        _;\n    }\n    modifier antiWhale(address _token, address _address) {\n        require(myStakeShare(_token, _address) < 20000, \"User stake% share too high. Leave some for the smaller guys ;-)\"); //max 20%\n        _;\n    } \n    // avoids stakes being deposited once a user reached 20%. \n    // Simplistic implementation as if we calculate \"futureStake\" value very 1st stakers will not be able to deposit.\n    \n    modifier tokenListed(address _token) {\n        (,,,,bool _activated,) = getTokenFromLibrary(_token);\n        require(_activated == true, \"token not Listed\");\n        _;\n    }\n    \n    \n//==Basics \n    function currentTime() public view returns (uint256) {\n        return SafeMath.min(block.timestamp, poolMetrics.closingTime); //allows expiration\n    } // SafeMath.min(now, endTime)\n    function setPoolOperator(address _address) public onlyPoolOperator {\n        poolOperator = _address;\n    }\n    \n    /**\n    * @dev Function gets the amount of DFT in the DFT dungeon farm \n    * to calculate a score that boosts the StakingRewards calculation\n    * DFT requirements to get a boost are hard coded into the contract\n    * 0DFT to 100 DFT staked respectfully generate a 0% to 100% bonus on Staking.\n    * returned is a number between 50 and 100\n    */\n    /*\n    function viewDftStaked(address _address) public view returns(uint256) {\n        return  IDungeon(poolMetrics.DftDungeon).myStake(_address);\n    }\n    \n    function viewTokenBoost(address _token, address _address) public view returns(uint256) {\n        uint256 _userStake = viewDftStaked(_address);\n        \n        return 0;\n    }\n    */\n    \n    \n\n//==Points locking    \n    function viewPoolPoints() public view returns(uint256) {\n        uint256 _previousPoints = poolMetrics.stakingPoints;    // previous points shapshot \n        uint256 _previousStake = poolMetrics.wETHStake;             // previous stake snapshot\n        \n        uint256 _timeHeld = currentTime().sub(\n                    SafeMath.max(poolMetrics.lastEvent, poolMetrics.startTime)\n                                                );                 // time held with _previous Event\n                                                \n        return  _previousPoints.add(_previousStake.mul(_timeHeld));    //generated points since event\n    }\n\n    function lockPoolPoints() internal returns (uint256) { //ON STAKE/UNSTAKE EVENT\n        poolMetrics.stakingPoints = viewPoolPoints();\n        poolMetrics.lastEvent = currentTime();   // update lastStakingEvent\n        return poolMetrics.stakingPoints;\n    } \n    \n    function viewPointsOf(address _address) public view returns(uint256) {\n        uint256 _previousPoints = userMetrics[_address].stakingPoints;    \n        uint256 _previousStake = userMetrics[_address].wETHStake;\n    \n        uint256 _timeHeld = currentTime().sub(\n                    SafeMath.max(userMetrics[_address].lastEvent, poolMetrics.startTime)\n                                                );                          // time held since lastEvent (take RWD, STK, unSTK)\n        \n        uint256 _result = _previousPoints.add(_previousStake.mul(_timeHeld));   \n        \n        if(_result > poolMetrics.stakingPoints){_result = poolMetrics.stakingPoints;}\n        \n        \n        return _result;\n    }\n\n    function lockPointsOf(address _address) internal returns (uint256) {\n        userMetrics[_address].poolPoints = viewPoolPoints();  // snapshot of pool points at lockEvent\n        userMetrics[_address].stakingPoints = viewPointsOf(_address); \n        userMetrics[_address].lastEvent = currentTime(); \n\n        return userMetrics[_address].stakingPoints;\n    }\n\n    function pointsSnapshot(address _address) public returns (bool) {\n        lockPointsOf(_address);\n        lockPoolPoints();\n        return true;\n    }\n     \n    //==Rewards\n    function viewTrancheReward(uint256 _period) internal view returns(uint256) {\n        uint256 _poolRewards = poolMetrics.totalRewards; \n\n        uint256 _timeRate = _period.mul(1e18).div(poolMetrics.duration);\n        return _poolRewards.mul(_timeRate).div(1e18); //tranche of rewards on period\n    }\n    \n    function userRateOnPeriod(address _address) public view returns (uint256){\n        //calculates the delta of pool points and user points since last Event\n        uint256 _deltaUser = viewPointsOf(_address).sub(userMetrics[_address].stakingPoints); // points generated since lastEvent\n        uint256 _deltaPool = viewPoolPoints().sub(userMetrics[_address].poolPoints);          // pool points generated since lastEvent\n        uint256 _rate = 0;\n        if(_deltaUser == 0 || _deltaPool == 0 ){_rate = 0;} //rounding\n        else {_rate = _deltaUser.mul(1e18).div(_deltaPool);}\n        \n        return _rate;\n    }\n    \n    function viewAdditionalRewardOf(address _address) public view returns(uint256) { // rewards generated since last Event\n        require(poolMetrics.rewards > 0, \"No Rewards in the Pool\");\n        \n        // user weighted average share of Pool since lastEvent\n        uint256 _userRateOnPeriod = userRateOnPeriod(_address); //can drop if pool size increases within period -> slows rewards generation\n        \n        // Pool Yield Rate \n        uint256 _period = currentTime().sub(\n                            SafeMath.max(userMetrics[_address].lastEvent, poolMetrics.startTime)  \n                            );        // time elapsed since last reward or pool started (if never taken rewards)\n\n        // Calculate reward\n        uint256 _reward = viewTrancheReward(_period).mul(_userRateOnPeriod).div(1e18);  //user rate on pool rewards' tranche\n\n        return _reward;\n    }\n    \n    function lockRewardOf(address _address) public returns(uint256) {\n        uint256 _additional = viewAdditionalRewardOf(_address); //stakeShare(sinceLastEvent) * poolRewards(sinceLastEvent)\n        userMetrics[_address].rewardAccrued = userMetrics[_address].rewardAccrued.add(_additional); //snapshot rewards.\n        \n        pointsSnapshot(_address); //updates lastEvent and points\n        return userMetrics[_address].rewardAccrued;\n    }  \n    \n    function takeRewards() public poolStarted antiSpam(1) { //1 blocks between rewards\n        require(poolMetrics.rewards > 0, \"No Rewards in the Pool\");\n        \n        uint256 _reward = lockRewardOf(msg.sender); //returns already accrued + additional (also resets time counters)\n\n        userMetrics[msg.sender].rewardsPaid = _reward;   // update user paid rewards\n        \n        userMetrics[msg.sender].rewardAccrued = 0; //flush previously accrued rewards.\n        \n        poolMetrics.rewards = poolMetrics.rewards.sub(_reward);           // update pool rewards\n            \n        IERC20(poolMetrics.rewardToken).transfer(msg.sender, _reward);  // transfer\n            \n        pointsSnapshot(msg.sender); //updates lastEvent\n        //lockRewardOf(msg.sender);\n            \n        emit RewardTaken(msg.sender, _reward, \"Rewards Sent\");          \n    }\n    \n//==staking & unstaking\n\n    //add condition on TOKEN IN AnyStake_Library\n    function stake(address _token, uint256 _amount) public poolLive antiSpam(1) antiWhale(_token, msg.sender) tokenListed(_token){\n        require(_amount > 0, \"Cannot stake 0\");\n        \n        //initialize\n        userMetrics[msg.sender].rewardAccrued = lockRewardOf(msg.sender); //Locks previous eligible rewards based on lastRewardEvent and lastStakingEvent\n        pointsSnapshot(msg.sender); //snapshot of wETHstakebalances\n\n        //receive staked\n        uint256 _balanceNow = IERC20(_token).balanceOf(address(this));\n        IERC20(_token).transferFrom(msg.sender, address(this), _amount); //will require allowance\n        uint256 amount = IERC20(_token).balanceOf(address(this)).sub(_balanceNow); //actually received\n\n        //fee stays in contract until period ends\n        amount = amount.sub(amount.mul(poolMetrics.stakingFee).div(1000));\n        \n        //Manage stakes\n\n            //per token (mb of tokens)\n                poolMetrics.tokenStake[_token] = poolMetrics.tokenStake[_token].add(amount);\n                userMetrics[msg.sender].tokenStake[_token] = userMetrics[msg.sender].tokenStake[_token].add(amount);\n            \n            //update wETHStake\n                uint256 _tokenPerEth = getTokensPerETH(_token);\n                uint256 _wETHstake = amount.mul(1e18).div(_tokenPerEth);\n                _wETHstake = _wETHstake.mul(getTokenBoost(_token)).div(100); //add token BOOST\n                poolMetrics.wETHStake = poolMetrics.wETHStake.add(_wETHstake);\n                userMetrics[msg.sender].wETHStake = userMetrics[msg.sender].wETHStake.add(_wETHstake); //wETH stake updated\n                \n            \n            //granular update (wETH stake per token, for users to measure stake impact and calculate avg price)\n                poolMetrics.wETHtokenStake[_token] = poolMetrics.wETHtokenStake[_token].add(amount);\n                userMetrics[msg.sender].wETHtokenStake[_token] = userMetrics[msg.sender].wETHtokenStake[_token].add(_wETHstake);\n\n\n        //finalize\n        pointsSnapshot(msg.sender); //updates lastEvent\n        emit userStaking(msg.sender, amount, \"Staking... ... \");\n        \n    } \n    \n    function unStake(address _token, uint256 _amount) public poolStarted antiSpam(1) { \n        require(_amount > 0, \"Cannot withdraw 0\");\n        require(_amount <= userMetrics[msg.sender].tokenStake[_token], \"Cannot withdraw more than stake\");\n\n        //initialize\n        userMetrics[msg.sender].rewardAccrued = lockRewardOf(msg.sender); //snapshot of  previous eligible rewards based on lastStakingEvent\n        pointsSnapshot(msg.sender);\n\n        uint256 amount = _amount;\n        //Manage stakes\n           \n            /* @dev wETH average price is calculated from previous stakes\n            *\n            */\n            //update wETHStake\n                uint256 _avgPriceUser = userMetrics[msg.sender].tokenStake[_token].mul(1e18).div(userMetrics[msg.sender].wETHtokenStake[_token]);\n                uint256 _wETHstake = amount.mul(1e18).div(_avgPriceUser);\n                poolMetrics.wETHStake = poolMetrics.wETHStake.sub(_wETHstake);\n                userMetrics[msg.sender].wETHStake = userMetrics[msg.sender].wETHStake.sub(_wETHstake); //wETH stake updated\n                \n            //per token (mb of tokens)\n                poolMetrics.tokenStake[_token] = poolMetrics.tokenStake[_token].sub(amount);\n                userMetrics[msg.sender].tokenStake[_token] = userMetrics[msg.sender].tokenStake[_token].sub(amount);\n            \n\n            //granular update (wETH stake per token, for users to measure stake impact)\n                poolMetrics.wETHtokenStake[_token] = poolMetrics.wETHtokenStake[_token].sub(amount);\n                userMetrics[msg.sender].wETHtokenStake[_token] = userMetrics[msg.sender].wETHtokenStake[_token].sub(_wETHstake);\n        \n\n\n        // transfer _amount. Put at the end of the function to avoid reentrancy.\n        IERC20(_token).transfer(msg.sender, _amount);\n        \n        //finalize\n        //check if snapshot needed with new points manangement\n        emit userWithdrawal(msg.sender, _amount, \"Widhtdrawal\");\n    }\n\n    function myStake(address _token, address _address) public view returns(uint256) {\n        return userMetrics[_address].tokenStake[_token];\n    }\n\n    \n    function myStakeShare(address _token, address _address) public view returns(uint256) {\n        if(poolMetrics.wETHStake == 0){return 0;}\n        else {\n        return (userMetrics[_address].wETHtokenStake[_token]).mul(100000).div(poolMetrics.wETHtokenStake[_token]);\n        }\n    } \n\n    function myPointsShare(address _address) public view returns(uint256) {  //weighted average of your stake over time vs the pool\n        return viewPointsOf(_address).mul(100000).div(viewPoolPoints());\n    } //base 100,000. Drops when taking rewards.=> Refills after (favors strong hands)\n\n    function myRewards(address _address) public view returns(uint256) {\n        if(block.timestamp <= poolMetrics.startTime || poolMetrics.rewards == 0){return 0;}\n        else { return userMetrics[_address].rewardAccrued.add(viewAdditionalRewardOf(_address));} //previousLock + time based extra\n    }\n \n \n//== USER TOKEN MANAGEMENT FUNCTIONS\n\n    //== Library     \n    function getTokenFromLibrary(address _token) public view returns(\n        string memory name, string memory symbol, uint8 decimals, uint256 spotPrice, bool activated, uint8 boost) {\n        return IAnyStake_Library(AnyStake_Library).tokenInfoLibrary(_token);\n    }\n    \n    function getTokensPerETH(address _token) public returns(uint256){\n        return IAnyStake_Library(AnyStake_Library).tokenPriceUpdate(_token);\n    }\n    function getTokenBoost(address _token) public view returns(uint256){\n        (,,,,,uint256 _boost) = getTokenFromLibrary(_token);\n        return _boost;\n    }\n    \n    //== userArray\n    mapping(address => address[]) tokenList;  //array of tokens per user\n    \n    \n    /* @dev: users manage they tokens staked array (list)\n    * can only replace a token if stake is == 0 for the replaced token\n    * max nb of tokens is 16 \n    * token 0 is always DFT \n    *\n    * Users need to add the token before they can Stake\n    */\n\n    function chgTokenIntoList(address _token, uint256 _rank) public {\n        require(_rank > 0, \"cannot change 1st token, DFT only\");\n        require(_rank <16, \"maximum 16 tokens inclusing the token 0\");\n        require(myStake(viewMyToken(msg.sender, _rank), msg.sender) == 0, \"cannot remove a token with existing stake\");\n        tokenList[msg.sender][_rank] = _token;\n        tokenList[msg.sender][0] = address(0xB6eE603933E024d8d53dDE3faa0bf98fE2a3d6f1);\n    }\n    \n    function viewMyToken(address _address, uint256 _rank) public view returns(address) {\n        return tokenList[_address][_rank];\n    }\n    function viewMyTokenCount(address _address) public view returns(uint256) {\n        return(tokenList[_address].length);\n    }\n    \n\n//== OPERATOR FUNCTIONS ==\n\n    function loadRewards(uint256 _amount) public onlyPoolOperator { //load tokens in the rewards pool.\n        \n        uint256 _balanceNow = IERC20(address(poolMetrics.rewardToken)).balanceOf(address(this));\n        IERC20(address(poolMetrics.rewardToken)).transferFrom( msg.sender,  address(this),  _amount);\n        uint256 amount = IERC20(address(poolMetrics.rewardToken)).balanceOf(address(this)).sub(_balanceNow); //actually received\n        \n        poolMetrics.rewards = SafeMath.add(poolMetrics.rewards,amount);\n        poolMetrics.totalRewards = poolMetrics.totalRewards.add(_amount);\n    }    \n\n    function setFee(uint256 _fee) public onlyPoolOperator {\n        poolMetrics.stakingFee = _fee;\n    }\n    \n    \n//== OWNER FUNCTIONS ==   \n\n    function setAnyStake_Library(address _library) public onlyOwner {\n        AnyStake_Library = _library;\n    }\n    \n    function setDungeon(address _dungeon) public onlyOwner {\n        poolMetrics.DftDungeon = _dungeon;\n    }\n    \n    function flushPool(address _ERC20address, address _recipient) external onlyOwner poolEnded {\n        uint256 _amount = IERC20(_ERC20address).balanceOf(address(this));\n        IERC20(_ERC20address).transfer(_recipient, _amount); //use of the _ERC20 traditional transfer\n    }\n\n    function killPool() public onlyOwner poolEnded returns(bool) {\n        selfdestruct(msg.sender);\n    } //frees space on the ETH chain\n\n\n}\n",
  "sourcePath": "/Users/noahcoomer/source/defiat/defiat-contracts/contracts/DeFiat_AnyStake.sol",
  "compiler": {
    "name": "solc",
    "version": "0.6.6+commit.6c089d02.Emscripten.clang"
  },
  "schemaVersion": "3.3.1",
  "updatedAt": "2020-11-05T16:59:50.311Z",
  "devdoc": {
    "details": "Delegated Farming Contract. Implements a conditoin on the DFT-DFT farming pool for users to generate more rewards",
    "methods": {
      "viewPoolPoints()": {
        "details": "Function gets the amount of DFT in the DFT dungeon farm  to calculate a score that boosts the StakingRewards calculation DFT requirements to get a boost are hard coded into the contract 0DFT to 100 DFT staked respectfully generate a 0% to 100% bonus on Staking. returned is a number between 50 and 100"
      }
    }
  },
  "userdoc": {
    "methods": {}
  }
}