{
  "contractName": "DeFiat_Farming_v15",
  "abi": [
    {
      "inputs": [
        {
          "internalType": "address",
          "name": "_stakedToken",
          "type": "address"
        },
        {
          "internalType": "address",
          "name": "_rewardToken",
          "type": "address"
        },
        {
          "internalType": "uint256",
          "name": "_feeBase1000",
          "type": "uint256"
        },
        {
          "internalType": "uint256",
          "name": "_durationHours",
          "type": "uint256"
        },
        {
          "internalType": "uint256",
          "name": "_delayStartHours",
          "type": "uint256"
        }
      ],
      "stateMutability": "nonpayable",
      "type": "constructor"
    },
    {
      "anonymous": false,
      "inputs": [
        {
          "indexed": false,
          "internalType": "uint256",
          "name": "amountAdded",
          "type": "uint256"
        },
        {
          "indexed": false,
          "internalType": "string",
          "name": "_desc",
          "type": "string"
        }
      ],
      "name": "PoolInitalized",
      "type": "event"
    },
    {
      "anonymous": false,
      "inputs": [
        {
          "indexed": true,
          "internalType": "address",
          "name": "user",
          "type": "address"
        },
        {
          "indexed": false,
          "internalType": "uint256",
          "name": "reward",
          "type": "uint256"
        },
        {
          "indexed": false,
          "internalType": "string",
          "name": "_desc",
          "type": "string"
        }
      ],
      "name": "RewardTaken",
      "type": "event"
    },
    {
      "anonymous": false,
      "inputs": [
        {
          "indexed": true,
          "internalType": "address",
          "name": "user",
          "type": "address"
        },
        {
          "indexed": false,
          "internalType": "uint256",
          "name": "amount",
          "type": "uint256"
        },
        {
          "indexed": false,
          "internalType": "string",
          "name": "_desc",
          "type": "string"
        }
      ],
      "name": "userStaking",
      "type": "event"
    },
    {
      "anonymous": false,
      "inputs": [
        {
          "indexed": true,
          "internalType": "address",
          "name": "user",
          "type": "address"
        },
        {
          "indexed": false,
          "internalType": "uint256",
          "name": "amount",
          "type": "uint256"
        },
        {
          "indexed": false,
          "internalType": "string",
          "name": "_desc",
          "type": "string"
        }
      ],
      "name": "userWithdrawal",
      "type": "event"
    },
    {
      "inputs": [],
      "name": "FullRewards",
      "outputs": [
        {
          "internalType": "bool",
          "name": "",
          "type": "bool"
        }
      ],
      "stateMutability": "view",
      "type": "function"
    },
    {
      "inputs": [],
      "name": "poolMetrics",
      "outputs": [
        {
          "internalType": "address",
          "name": "stakedToken",
          "type": "address"
        },
        {
          "internalType": "uint256",
          "name": "staked",
          "type": "uint256"
        },
        {
          "internalType": "uint256",
          "name": "stakingFee",
          "type": "uint256"
        },
        {
          "internalType": "uint256",
          "name": "stakingPoints",
          "type": "uint256"
        },
        {
          "internalType": "address",
          "name": "rewardToken",
          "type": "address"
        },
        {
          "internalType": "uint256",
          "name": "rewards",
          "type": "uint256"
        },
        {
          "internalType": "uint256",
          "name": "startTime",
          "type": "uint256"
        },
        {
          "internalType": "uint256",
          "name": "closingTime",
          "type": "uint256"
        },
        {
          "internalType": "uint256",
          "name": "duration",
          "type": "uint256"
        },
        {
          "internalType": "uint256",
          "name": "lastEvent",
          "type": "uint256"
        },
        {
          "internalType": "uint256",
          "name": "ratePerToken",
          "type": "uint256"
        }
      ],
      "stateMutability": "view",
      "type": "function"
    },
    {
      "inputs": [],
      "name": "poolOperator",
      "outputs": [
        {
          "internalType": "address",
          "name": "",
          "type": "address"
        }
      ],
      "stateMutability": "view",
      "type": "function"
    },
    {
      "inputs": [
        {
          "internalType": "address",
          "name": "",
          "type": "address"
        }
      ],
      "name": "userMetrics",
      "outputs": [
        {
          "internalType": "uint256",
          "name": "stake",
          "type": "uint256"
        },
        {
          "internalType": "uint256",
          "name": "stakingPoints",
          "type": "uint256"
        },
        {
          "internalType": "uint256",
          "name": "poolPoints",
          "type": "uint256"
        },
        {
          "internalType": "uint256",
          "name": "lastEvent",
          "type": "uint256"
        },
        {
          "internalType": "uint256",
          "name": "rewardAccrued",
          "type": "uint256"
        },
        {
          "internalType": "uint256",
          "name": "rewardsPaid",
          "type": "uint256"
        },
        {
          "internalType": "uint256",
          "name": "lastTxBlock",
          "type": "uint256"
        }
      ],
      "stateMutability": "view",
      "type": "function"
    },
    {
      "inputs": [],
      "name": "currentTime",
      "outputs": [
        {
          "internalType": "uint256",
          "name": "",
          "type": "uint256"
        }
      ],
      "stateMutability": "view",
      "type": "function"
    },
    {
      "inputs": [],
      "name": "viewPoolPoints",
      "outputs": [
        {
          "internalType": "uint256",
          "name": "",
          "type": "uint256"
        }
      ],
      "stateMutability": "view",
      "type": "function"
    },
    {
      "inputs": [
        {
          "internalType": "address",
          "name": "_address",
          "type": "address"
        }
      ],
      "name": "viewPointsOf",
      "outputs": [
        {
          "internalType": "uint256",
          "name": "",
          "type": "uint256"
        }
      ],
      "stateMutability": "view",
      "type": "function"
    },
    {
      "inputs": [
        {
          "internalType": "address",
          "name": "_address",
          "type": "address"
        }
      ],
      "name": "pointsSnapshot",
      "outputs": [
        {
          "internalType": "bool",
          "name": "",
          "type": "bool"
        }
      ],
      "stateMutability": "nonpayable",
      "type": "function"
    },
    {
      "inputs": [
        {
          "internalType": "address",
          "name": "_address",
          "type": "address"
        }
      ],
      "name": "userRateOnPeriod",
      "outputs": [
        {
          "internalType": "uint256",
          "name": "",
          "type": "uint256"
        }
      ],
      "stateMutability": "view",
      "type": "function"
    },
    {
      "inputs": [
        {
          "internalType": "address",
          "name": "_address",
          "type": "address"
        }
      ],
      "name": "viewAdditionalRewardOf",
      "outputs": [
        {
          "internalType": "uint256",
          "name": "",
          "type": "uint256"
        }
      ],
      "stateMutability": "view",
      "type": "function"
    },
    {
      "inputs": [
        {
          "internalType": "address",
          "name": "_address",
          "type": "address"
        }
      ],
      "name": "lockRewardOf",
      "outputs": [
        {
          "internalType": "uint256",
          "name": "",
          "type": "uint256"
        }
      ],
      "stateMutability": "nonpayable",
      "type": "function"
    },
    {
      "inputs": [],
      "name": "takeRewards",
      "outputs": [],
      "stateMutability": "nonpayable",
      "type": "function"
    },
    {
      "inputs": [
        {
          "internalType": "uint256",
          "name": "_amount",
          "type": "uint256"
        }
      ],
      "name": "stake",
      "outputs": [],
      "stateMutability": "nonpayable",
      "type": "function"
    },
    {
      "inputs": [
        {
          "internalType": "uint256",
          "name": "_amount",
          "type": "uint256"
        }
      ],
      "name": "unStake",
      "outputs": [],
      "stateMutability": "nonpayable",
      "type": "function"
    },
    {
      "inputs": [
        {
          "internalType": "address",
          "name": "_address",
          "type": "address"
        }
      ],
      "name": "myStake",
      "outputs": [
        {
          "internalType": "uint256",
          "name": "",
          "type": "uint256"
        }
      ],
      "stateMutability": "view",
      "type": "function"
    },
    {
      "inputs": [
        {
          "internalType": "address",
          "name": "_address",
          "type": "address"
        }
      ],
      "name": "myStakeShare",
      "outputs": [
        {
          "internalType": "uint256",
          "name": "",
          "type": "uint256"
        }
      ],
      "stateMutability": "view",
      "type": "function"
    },
    {
      "inputs": [
        {
          "internalType": "address",
          "name": "_address",
          "type": "address"
        }
      ],
      "name": "myPointsShare",
      "outputs": [
        {
          "internalType": "uint256",
          "name": "",
          "type": "uint256"
        }
      ],
      "stateMutability": "view",
      "type": "function"
    },
    {
      "inputs": [
        {
          "internalType": "address",
          "name": "_address",
          "type": "address"
        }
      ],
      "name": "myRewards",
      "outputs": [
        {
          "internalType": "uint256",
          "name": "",
          "type": "uint256"
        }
      ],
      "stateMutability": "view",
      "type": "function"
    },
    {
      "inputs": [
        {
          "internalType": "address",
          "name": "_address",
          "type": "address"
        }
      ],
      "name": "setPoolOperator",
      "outputs": [],
      "stateMutability": "nonpayable",
      "type": "function"
    },
    {
      "inputs": [
        {
          "internalType": "bool",
          "name": "_bool",
          "type": "bool"
        }
      ],
      "name": "setFullRewards",
      "outputs": [],
      "stateMutability": "nonpayable",
      "type": "function"
    },
    {
      "inputs": [
        {
          "internalType": "uint256",
          "name": "_amount",
          "type": "uint256"
        },
        {
          "internalType": "uint256",
          "name": "_preStake",
          "type": "uint256"
        }
      ],
      "name": "loadRewards",
      "outputs": [],
      "stateMutability": "nonpayable",
      "type": "function"
    },
    {
      "inputs": [
        {
          "internalType": "uint256",
          "name": "_fee",
          "type": "uint256"
        }
      ],
      "name": "setFee",
      "outputs": [],
      "stateMutability": "nonpayable",
      "type": "function"
    },
    {
      "inputs": [
        {
          "internalType": "address",
          "name": "_recipient",
          "type": "address"
        },
        {
          "internalType": "address",
          "name": "_ERC20address",
          "type": "address"
        }
      ],
      "name": "flushPool",
      "outputs": [],
      "stateMutability": "nonpayable",
      "type": "function"
    },
    {
      "inputs": [],
      "name": "killPool",
      "outputs": [
        {
          "internalType": "bool",
          "name": "",
          "type": "bool"
        }
      ],
      "stateMutability": "nonpayable",
      "type": "function"
    }
  ],
  "bytecode": "0x60806040523480156200001157600080fd5b50604051620034a4380380620034a4833981810160405260a08110156200003757600080fd5b81019080805190602001909291908051906020019092919080519060200190929190805190602001909291908051906020019092919050505033600c60006101000a81548173ffffffffffffffffffffffffffffffffffffffff021916908373ffffffffffffffffffffffffffffffffffffffff160217905550846000800160006101000a81548173ffffffffffffffffffffffffffffffffffffffff021916908373ffffffffffffffffffffffffffffffffffffffff16021790555083600060040160006101000a81548173ffffffffffffffffffffffffffffffffffffffff021916908373ffffffffffffffffffffffffffffffffffffffff160217905550826000600201819055506200015e610e1083620001d060201b62002d621790919060201c565b60006008018190555062000183610e1082620001d060201b62002d621790919060201c565b4201600060060181905550600060080154420160006007018190555060016000600301819055506001600c60146101000a81548160ff02191690831515021790555050505050506200025b565b600080831415620001e5576000905062000255565b6000828402905082848281620001f757fe5b041462000250576040517f08c379a0000000000000000000000000000000000000000000000000000000008152600401808060200182810382526021815260200180620034836021913960400191505060405180910390fd5b809150505b92915050565b613218806200026b6000396000f3fe608060405234801561001057600080fd5b50600436106101585760003560e01c80637adaa21a116100c3578063beaa369a1161007c578063beaa369a1461061d578063cf604bc914610675578063d18e81b3146106bf578063d745d3cf146106dd578063fcecc4df1461070d578063ff939f96146107c957610158565b80637adaa21a14610499578063918771cd146104a35780639e05da6a146104fb578063a694fc3a14610553578063ad12101d14610581578063bb2c2556146105b957610158565b80635c6187aa116101155780635c6187aa146103835780635d3eea91146103a157806361546cc0146103cf578063682c93c01461042757806369fe0e2d146104495780637a39b8d81461047757610158565b80631f227e481461015d57806320b9588c146101df5780632612798d146102375780632d2d10081461028f57806335ad1e03146102e757806342819fc41461032b575b600080fd5b61019f6004803603602081101561017357600080fd5b81019080803573ffffffffffffffffffffffffffffffffffffffff169060200190929190505050610825565b6040518088815260200187815260200186815260200185815260200184815260200183815260200182815260200197505050505050505060405180910390f35b610221600480360360208110156101f557600080fd5b81019080803573ffffffffffffffffffffffffffffffffffffffff169060200190929190505050610867565b6040518082815260200191505060405180910390f35b6102796004803603602081101561024d57600080fd5b81019080803573ffffffffffffffffffffffffffffffffffffffff1690602001909291905050506108f3565b6040518082815260200191505060405180910390f35b6102d1600480360360208110156102a557600080fd5b81019080803573ffffffffffffffffffffffffffffffffffffffff169060200190929190505050610a2e565b6040518082815260200191505060405180910390f35b610329600480360360208110156102fd57600080fd5b81019080803573ffffffffffffffffffffffffffffffffffffffff169060200190929190505050610abd565b005b61036d6004803603602081101561034157600080fd5b81019080803573ffffffffffffffffffffffffffffffffffffffff169060200190929190505050610ba7565b6040518082815260200191505060405180910390f35b61038b610cc6565b6040518082815260200191505060405180910390f35b6103cd600480360360208110156103b757600080fd5b8101908080359060200190929190505050610d38565b005b610411600480360360208110156103e557600080fd5b81019080803573ffffffffffffffffffffffffffffffffffffffff16906020019092919050505061125d565b6040518082815260200191505060405180910390f35b61042f61129d565b604051808215151515815260200191505060405180910390f35b6104756004803603602081101561045f57600080fd5b81019080803590602001909291905050506112b0565b005b61047f611363565b604051808215151515815260200191505060405180910390f35b6104a161149e565b005b6104e5600480360360208110156104b957600080fd5b81019080803573ffffffffffffffffffffffffffffffffffffffff1690602001909291905050506118c2565b6040518082815260200191505060405180910390f35b61053d6004803603602081101561051157600080fd5b81019080803573ffffffffffffffffffffffffffffffffffffffff1690602001909291905050506119c0565b6040518082815260200191505060405180910390f35b61057f6004803603602081101561056957600080fd5b8101908080359060200190929190505050611b08565b005b6105b76004803603604081101561059757600080fd5b81019080803590602001909291908035906020019092919050505061234b565b005b61061b600480360360408110156105cf57600080fd5b81019080803573ffffffffffffffffffffffffffffffffffffffff169060200190929190803573ffffffffffffffffffffffffffffffffffffffff16906020019092919050505061273f565b005b61065f6004803603602081101561063357600080fd5b81019080803573ffffffffffffffffffffffffffffffffffffffff1690602001909291905050506129e3565b6040518082815260200191505060405180910390f35b61067d612a2f565b604051808273ffffffffffffffffffffffffffffffffffffffff1673ffffffffffffffffffffffffffffffffffffffff16815260200191505060405180910390f35b6106c7612a55565b6040518082815260200191505060405180910390f35b61070b600480360360208110156106f357600080fd5b81019080803515159060200190929190505050612a6b565b005b610715612b2e565b604051808c73ffffffffffffffffffffffffffffffffffffffff1673ffffffffffffffffffffffffffffffffffffffff1681526020018b81526020018a81526020018981526020018873ffffffffffffffffffffffffffffffffffffffff1673ffffffffffffffffffffffffffffffffffffffff1681526020018781526020018681526020018581526020018481526020018381526020018281526020019b50505050505050505050505060405180910390f35b61080b600480360360208110156107df57600080fd5b81019080803573ffffffffffffffffffffffffffffffffffffffff169060200190929190505050612bb6565b604051808215151515815260200191505060405180910390f35b600b6020528060005260406000206000915090508060000154908060010154908060020154908060030154908060040154908060050154908060060154905087565b6000806006015442111580610880575060008060050154145b1561088e57600090506108ee565b6108eb61089a836108f3565b600b60008573ffffffffffffffffffffffffffffffffffffffff1673ffffffffffffffffffffffffffffffffffffffff16815260200190815260200160002060040154612bd490919063ffffffff16565b90505b919050565b6000806000600501541161096f576040517f08c379a00000000000000000000000000000000000000000000000000000000081526004018080602001828103825260168152602001807f4e6f205265776172647320696e2074686520506f6f6c0000000000000000000081525060200191505060405180910390fd5b600061097a83610ba7565b905060006109e86109d2600b60008773ffffffffffffffffffffffffffffffffffffffff1673ffffffffffffffffffffffffffffffffffffffff16815260200190815260200160002060030154600060060154612c5c565b6109da612a55565b612c7690919063ffffffff16565b90506000610a21670de0b6b3a7640000610a1385610a0586612cc0565b612d6290919063ffffffff16565b612de890919063ffffffff16565b9050809350505050919050565b6000806000600101541415610a465760009050610ab8565b610ab5600060010154610aa7620186a0600b60008773ffffffffffffffffffffffffffffffffffffffff1673ffffffffffffffffffffffffffffffffffffffff16815260200190815260200160002060000154612d6290919063ffffffff16565b612de890919063ffffffff16565b90505b919050565b600c60009054906101000a900473ffffffffffffffffffffffffffffffffffffffff1673ffffffffffffffffffffffffffffffffffffffff163373ffffffffffffffffffffffffffffffffffffffff1614610b63576040517f08c379a00000000000000000000000000000000000000000000000000000000081526004018080602001828103825260298152602001806131386029913960400191505060405180910390fd5b80600c60006101000a81548173ffffffffffffffffffffffffffffffffffffffff021916908373ffffffffffffffffffffffffffffffffffffffff16021790555050565b600080610c07600b60008573ffffffffffffffffffffffffffffffffffffffff1673ffffffffffffffffffffffffffffffffffffffff16815260200190815260200160002060010154610bf9856119c0565b612c7690919063ffffffff16565b90506000610c67600b60008673ffffffffffffffffffffffffffffffffffffffff1673ffffffffffffffffffffffffffffffffffffffff16815260200190815260200160002060020154610c59610cc6565b612c7690919063ffffffff16565b905060008090506000831480610c7d5750600082145b15610c8b5760009050610cbb565b610cb882610caa670de0b6b3a764000086612d6290919063ffffffff16565b612de890919063ffffffff16565b90505b809350505050919050565b60008060006003015490506000806001015490506000610d09610cf3600060090154600060060154612c5c565b610cfb612a55565b612c7690919063ffffffff16565b9050610d30610d218284612d6290919063ffffffff16565b84612bd490919063ffffffff16565b935050505090565b600060060154421015610db3576040517f08c379a00000000000000000000000000000000000000000000000000000000081526004018080602001828103825260148152602001807f506f6f6c206e6f7420737461727465642059657400000000000000000000000081525060200191505060405180910390fd5b6001610e0a81600b60003373ffffffffffffffffffffffffffffffffffffffff1673ffffffffffffffffffffffffffffffffffffffff16815260200190815260200160002060060154612bd490919063ffffffff16565b4311610e61576040517f08c379a00000000000000000000000000000000000000000000000000000000081526004018080602001828103825260228152602001806131826022913960400191505060405180910390fd5b43600b60003373ffffffffffffffffffffffffffffffffffffffff1673ffffffffffffffffffffffffffffffffffffffff1681526020019081526020016000206006018190555060008211610f1e576040517f08c379a00000000000000000000000000000000000000000000000000000000081526004018080602001828103825260118152602001807f43616e6e6f74207769746864726177203000000000000000000000000000000081525060200191505060405180910390fd5b600b60003373ffffffffffffffffffffffffffffffffffffffff1673ffffffffffffffffffffffffffffffffffffffff16815260200190815260200160002060000154821115610fd6576040517f08c379a000000000000000000000000000000000000000000000000000000000815260040180806020018281038252601f8152602001807f43616e6e6f74207769746864726177206d6f7265207468616e207374616b650081525060200191505060405180910390fd5b610fdf336118c2565b600b60003373ffffffffffffffffffffffffffffffffffffffff1673ffffffffffffffffffffffffffffffffffffffff1681526020019081526020016000206004018190555061102e33612bb6565b5061108482600b60003373ffffffffffffffffffffffffffffffffffffffff1673ffffffffffffffffffffffffffffffffffffffff16815260200190815260200160002060000154612c7690919063ffffffff16565b600b60003373ffffffffffffffffffffffffffffffffffffffff1673ffffffffffffffffffffffffffffffffffffffff168152602001908152602001600020600001819055506110e282600060010154612c7690919063ffffffff16565b6000600101819055506000800160009054906101000a900473ffffffffffffffffffffffffffffffffffffffff1673ffffffffffffffffffffffffffffffffffffffff1663a9059cbb33846040518363ffffffff1660e01b8152600401808373ffffffffffffffffffffffffffffffffffffffff1673ffffffffffffffffffffffffffffffffffffffff16815260200182815260200192505050602060405180830381600087803b15801561119657600080fd5b505af11580156111aa573d6000803e3d6000fd5b505050506040513d60208110156111c057600080fd5b8101908080519060200190929190505050503373ffffffffffffffffffffffffffffffffffffffff167ff81475acca41b6158ffa94b90c0570165f1052684e7df9ab735e66ca1f57435f8360405180828152602001806020018281038252600b8152602001807f576964687464726177616c0000000000000000000000000000000000000000008152506020019250505060405180910390a25050565b600061129661126a610cc6565b611288620186a061127a866119c0565b612d6290919063ffffffff16565b612de890919063ffffffff16565b9050919050565b600c60149054906101000a900460ff1681565b600c60009054906101000a900473ffffffffffffffffffffffffffffffffffffffff1673ffffffffffffffffffffffffffffffffffffffff163373ffffffffffffffffffffffffffffffffffffffff1614611356576040517f08c379a00000000000000000000000000000000000000000000000000000000081526004018080602001828103825260298152602001806131386029913960400191505060405180910390fd5b8060006002018190555050565b6000600c60009054906101000a900473ffffffffffffffffffffffffffffffffffffffff1673ffffffffffffffffffffffffffffffffffffffff163373ffffffffffffffffffffffffffffffffffffffff161461140b576040517f08c379a00000000000000000000000000000000000000000000000000000000081526004018080602001828103825260298152602001806131386029913960400191505060405180910390fd5b6000600701544211611485576040517f08c379a00000000000000000000000000000000000000000000000000000000081526004018080602001828103825260128152602001807f506f6f6c206e6f7420656e64656420596574000000000000000000000000000081525060200191505060405180910390fd5b3373ffffffffffffffffffffffffffffffffffffffff16ff5b600060060154421015611519576040517f08c379a00000000000000000000000000000000000000000000000000000000081526004018080602001828103825260148152602001807f506f6f6c206e6f7420737461727465642059657400000000000000000000000081525060200191505060405180910390fd5b600161157081600b60003373ffffffffffffffffffffffffffffffffffffffff1673ffffffffffffffffffffffffffffffffffffffff16815260200190815260200160002060060154612bd490919063ffffffff16565b43116115c7576040517f08c379a00000000000000000000000000000000000000000000000000000000081526004018080602001828103825260228152602001806131826022913960400191505060405180910390fd5b43600b60003373ffffffffffffffffffffffffffffffffffffffff1673ffffffffffffffffffffffffffffffffffffffff168152602001908152602001600020600601819055506000806005015411611688576040517f08c379a00000000000000000000000000000000000000000000000000000000081526004018080602001828103825260168152602001807f4e6f205265776172647320696e2074686520506f6f6c0000000000000000000081525060200191505060405180910390fd5b6000611693336118c2565b905080600b60003373ffffffffffffffffffffffffffffffffffffffff1673ffffffffffffffffffffffffffffffffffffffff168152602001908152602001600020600501819055506000600b60003373ffffffffffffffffffffffffffffffffffffffff1673ffffffffffffffffffffffffffffffffffffffff1681526020019081526020016000206004018190555061173c81600060050154612c7690919063ffffffff16565b600060050181905550600060040160009054906101000a900473ffffffffffffffffffffffffffffffffffffffff1673ffffffffffffffffffffffffffffffffffffffff1663a9059cbb33836040518363ffffffff1660e01b8152600401808373ffffffffffffffffffffffffffffffffffffffff1673ffffffffffffffffffffffffffffffffffffffff16815260200182815260200192505050602060405180830381600087803b1580156117f157600080fd5b505af1158015611805573d6000803e3d6000fd5b505050506040513d602081101561181b57600080fd5b81019080805190602001909291905050505061183633612bb6565b503373ffffffffffffffffffffffffffffffffffffffff167f2fc029baad553950fe705b54adac427ede59ec14428d842ec4f83ee1a090e8fb8260405180828152602001806020018281038252600c8152602001807f526577617264732053656e7400000000000000000000000000000000000000008152506020019250505060405180910390a25050565b6000806118ce836108f3565b905061192581600b60008673ffffffffffffffffffffffffffffffffffffffff1673ffffffffffffffffffffffffffffffffffffffff16815260200190815260200160002060040154612bd490919063ffffffff16565b600b60008573ffffffffffffffffffffffffffffffffffffffff1673ffffffffffffffffffffffffffffffffffffffff1681526020019081526020016000206004018190555061197483612bb6565b50600b60008473ffffffffffffffffffffffffffffffffffffffff1673ffffffffffffffffffffffffffffffffffffffff16815260200190815260200160002060040154915050919050565b600080600b60008473ffffffffffffffffffffffffffffffffffffffff1673ffffffffffffffffffffffffffffffffffffffff1681526020019081526020016000206001015490506000600b60008573ffffffffffffffffffffffffffffffffffffffff1673ffffffffffffffffffffffffffffffffffffffff1681526020019081526020016000206000015490506000611abb611aa5600b60008873ffffffffffffffffffffffffffffffffffffffff1673ffffffffffffffffffffffffffffffffffffffff16815260200190815260200160002060030154600060060154612c5c565b611aad612a55565b612c7690919063ffffffff16565b90506000611ae4611ad58385612d6290919063ffffffff16565b85612bd490919063ffffffff16565b9050600060030154811115611afc5760006003015490505b80945050505050919050565b600060060154421015611b83576040517f08c379a00000000000000000000000000000000000000000000000000000000081526004018080602001828103825260148152602001807f506f6f6c206e6f7420737461727465642059657400000000000000000000000081525060200191505060405180910390fd5b600060070154421115611bfe576040517f08c379a000000000000000000000000000000000000000000000000000000000815260040180806020018281038252600b8152602001807f506f6f6c20636c6f73656400000000000000000000000000000000000000000081525060200191505060405180910390fd5b6001611c5581600b60003373ffffffffffffffffffffffffffffffffffffffff1673ffffffffffffffffffffffffffffffffffffffff16815260200190815260200160002060060154612bd490919063ffffffff16565b4311611cac576040517f08c379a00000000000000000000000000000000000000000000000000000000081526004018080602001828103825260228152602001806131826022913960400191505060405180910390fd5b43600b60003373ffffffffffffffffffffffffffffffffffffffff1673ffffffffffffffffffffffffffffffffffffffff1681526020019081526020016000206006018190555033614e20611d0082610a2e565b10611d56576040517f08c379a000000000000000000000000000000000000000000000000000000000815260040180806020018281038252603f8152602001806131a4603f913960400191505060405180910390fd5b60008311611dcc576040517f08c379a000000000000000000000000000000000000000000000000000000000815260040180806020018281038252600e8152602001807f43616e6e6f74207374616b65203000000000000000000000000000000000000081525060200191505060405180910390fd5b611dd5336118c2565b600b60003373ffffffffffffffffffffffffffffffffffffffff1673ffffffffffffffffffffffffffffffffffffffff16815260200190815260200160002060040181905550611e2433612bb6565b5060008060000160009054906101000a900473ffffffffffffffffffffffffffffffffffffffff1673ffffffffffffffffffffffffffffffffffffffff166370a08231306040518263ffffffff1660e01b8152600401808273ffffffffffffffffffffffffffffffffffffffff1673ffffffffffffffffffffffffffffffffffffffff16815260200191505060206040518083038186803b158015611ec857600080fd5b505afa158015611edc573d6000803e3d6000fd5b505050506040513d6020811015611ef257600080fd5b810190808051906020019092919050505090506000800160009054906101000a900473ffffffffffffffffffffffffffffffffffffffff1673ffffffffffffffffffffffffffffffffffffffff166323b872dd3330876040518463ffffffff1660e01b8152600401808473ffffffffffffffffffffffffffffffffffffffff1673ffffffffffffffffffffffffffffffffffffffff1681526020018373ffffffffffffffffffffffffffffffffffffffff1673ffffffffffffffffffffffffffffffffffffffff1681526020018281526020019350505050602060405180830381600087803b158015611fe457600080fd5b505af1158015611ff8573d6000803e3d6000fd5b505050506040513d602081101561200e57600080fd5b8101908080519060200190929190505050506000612110826000800160009054906101000a900473ffffffffffffffffffffffffffffffffffffffff1673ffffffffffffffffffffffffffffffffffffffff166370a08231306040518263ffffffff1660e01b8152600401808273ffffffffffffffffffffffffffffffffffffffff1673ffffffffffffffffffffffffffffffffffffffff16815260200191505060206040518083038186803b1580156120c757600080fd5b505afa1580156120db573d6000803e3d6000fd5b505050506040513d60208110156120f157600080fd5b8101908080519060200190929190505050612c7690919063ffffffff16565b905060006121406103e861213260006002015485612d6290919063ffffffff16565b612de890919063ffffffff16565b90506121558183612c7690919063ffffffff16565b9150600060040160009054906101000a900473ffffffffffffffffffffffffffffffffffffffff1673ffffffffffffffffffffffffffffffffffffffff166000800160009054906101000a900473ffffffffffffffffffffffffffffffffffffffff1673ffffffffffffffffffffffffffffffffffffffff1614156121f6576121ec81600060050154612bd490919063ffffffff16565b6000600501819055505b61220e82600060010154612bd490919063ffffffff16565b60006001018190555061226c82600b60003373ffffffffffffffffffffffffffffffffffffffff1673ffffffffffffffffffffffffffffffffffffffff16815260200190815260200160002060000154612bd490919063ffffffff16565b600b60003373ffffffffffffffffffffffffffffffffffffffff1673ffffffffffffffffffffffffffffffffffffffff168152602001908152602001600020600001819055506122bb33612bb6565b503373ffffffffffffffffffffffffffffffffffffffff167f167ca5543be7bdd4d64d74a1255ec46c74aa0b2ad274a73b1a5c910f8d65d26f8360405180828152602001806020018281038252600f8152602001807f5374616b696e672e2e2e202e2e2e2000000000000000000000000000000000008152506020019250505060405180910390a2505050505050565b600c60009054906101000a900473ffffffffffffffffffffffffffffffffffffffff1673ffffffffffffffffffffffffffffffffffffffff163373ffffffffffffffffffffffffffffffffffffffff16146123f1576040517f08c379a00000000000000000000000000000000000000000000000000000000081526004018080602001828103825260298152602001806131386029913960400191505060405180910390fd5b60008060040160009054906101000a900473ffffffffffffffffffffffffffffffffffffffff1673ffffffffffffffffffffffffffffffffffffffff166370a08231306040518263ffffffff1660e01b8152600401808273ffffffffffffffffffffffffffffffffffffffff1673ffffffffffffffffffffffffffffffffffffffff16815260200191505060206040518083038186803b15801561249457600080fd5b505afa1580156124a8573d6000803e3d6000fd5b505050506040513d60208110156124be57600080fd5b81019080805190602001909291905050509050600060040160009054906101000a900473ffffffffffffffffffffffffffffffffffffffff1673ffffffffffffffffffffffffffffffffffffffff166323b872dd3330866040518463ffffffff1660e01b8152600401808473ffffffffffffffffffffffffffffffffffffffff1673ffffffffffffffffffffffffffffffffffffffff1681526020018373ffffffffffffffffffffffffffffffffffffffff1673ffffffffffffffffffffffffffffffffffffffff1681526020018281526020019350505050602060405180830381600087803b1580156125b157600080fd5b505af11580156125c5573d6000803e3d6000fd5b505050506040513d60208110156125db57600080fd5b81019080805190602001909291905050505060006126de82600060040160009054906101000a900473ffffffffffffffffffffffffffffffffffffffff1673ffffffffffffffffffffffffffffffffffffffff166370a08231306040518263ffffffff1660e01b8152600401808273ffffffffffffffffffffffffffffffffffffffff1673ffffffffffffffffffffffffffffffffffffffff16815260200191505060206040518083038186803b15801561269557600080fd5b505afa1580156126a9573d6000803e3d6000fd5b505050506040513d60208110156126bf57600080fd5b8101908080519060200190929190505050612c7690919063ffffffff16565b9050600080600501541415612706576126fc60006001015484612bd4565b6000600101819055505b61271560006005015482612bd4565b60006005018190555061273384600d54612bd490919063ffffffff16565b600d8190555050505050565b600c60009054906101000a900473ffffffffffffffffffffffffffffffffffffffff1673ffffffffffffffffffffffffffffffffffffffff163373ffffffffffffffffffffffffffffffffffffffff16146127e5576040517f08c379a00000000000000000000000000000000000000000000000000000000081526004018080602001828103825260298152602001806131386029913960400191505060405180910390fd5b600060070154421161285f576040517f08c379a00000000000000000000000000000000000000000000000000000000081526004018080602001828103825260128152602001807f506f6f6c206e6f7420656e64656420596574000000000000000000000000000081525060200191505060405180910390fd5b60008173ffffffffffffffffffffffffffffffffffffffff166370a08231306040518263ffffffff1660e01b8152600401808273ffffffffffffffffffffffffffffffffffffffff1673ffffffffffffffffffffffffffffffffffffffff16815260200191505060206040518083038186803b1580156128de57600080fd5b505afa1580156128f2573d6000803e3d6000fd5b505050506040513d602081101561290857600080fd5b810190808051906020019092919050505090508173ffffffffffffffffffffffffffffffffffffffff1663a9059cbb84836040518363ffffffff1660e01b8152600401808373ffffffffffffffffffffffffffffffffffffffff1673ffffffffffffffffffffffffffffffffffffffff16815260200182815260200192505050602060405180830381600087803b1580156129a257600080fd5b505af11580156129b6573d6000803e3d6000fd5b505050506040513d60208110156129cc57600080fd5b810190808051906020019092919050505050505050565b6000600b60008373ffffffffffffffffffffffffffffffffffffffff1673ffffffffffffffffffffffffffffffffffffffff168152602001908152602001600020600001549050919050565b600c60009054906101000a900473ffffffffffffffffffffffffffffffffffffffff1681565b6000612a6642600060070154612e32565b905090565b600c60009054906101000a900473ffffffffffffffffffffffffffffffffffffffff1673ffffffffffffffffffffffffffffffffffffffff163373ffffffffffffffffffffffffffffffffffffffff1614612b11576040517f08c379a00000000000000000000000000000000000000000000000000000000081526004018080602001828103825260298152602001806131386029913960400191505060405180910390fd5b80600c60146101000a81548160ff02191690831515021790555050565b60008060000160009054906101000a900473ffffffffffffffffffffffffffffffffffffffff16908060010154908060020154908060030154908060040160009054906101000a900473ffffffffffffffffffffffffffffffffffffffff169080600501549080600601549080600701549080600801549080600901549080600a015490508b565b6000612bc182612e4b565b50612bca612f82565b5060019050919050565b600080828401905083811015612c52576040517f08c379a000000000000000000000000000000000000000000000000000000000815260040180806020018281038252601b8152602001807f536166654d6174683a206164646974696f6e206f766572666c6f77000000000081525060200191505060405180910390fd5b8091505092915050565b600081831015612c6c5781612c6e565b825b905092915050565b6000612cb883836040518060400160405280601e81526020017f536166654d6174683a207375627472616374696f6e206f766572666c6f770000815250612fb1565b905092915050565b600080600d54905060001515600c60149054906101000a900460ff1615151415612cf657612cf360006001015482612e32565b90505b6000612d2a600060080154612d1c670de0b6b3a764000087612d6290919063ffffffff16565b612de890919063ffffffff16565b9050612d59670de0b6b3a7640000612d4b8385612d6290919063ffffffff16565b612de890919063ffffffff16565b92505050919050565b600080831415612d755760009050612de2565b6000828402905082848281612d8657fe5b0414612ddd576040517f08c379a00000000000000000000000000000000000000000000000000000000081526004018080602001828103825260218152602001806131616021913960400191505060405180910390fd5b809150505b92915050565b6000612e2a83836040518060400160405280601a81526020017f536166654d6174683a206469766973696f6e206279207a65726f000000000000815250613071565b905092915050565b6000818310612e415781612e43565b825b905092915050565b6000612e55610cc6565b600b60008473ffffffffffffffffffffffffffffffffffffffff1673ffffffffffffffffffffffffffffffffffffffff16815260200190815260200160002060020181905550612ea4826119c0565b600b60008473ffffffffffffffffffffffffffffffffffffffff1673ffffffffffffffffffffffffffffffffffffffff16815260200190815260200160002060010181905550612ef2612a55565b600b60008473ffffffffffffffffffffffffffffffffffffffff1673ffffffffffffffffffffffffffffffffffffffff16815260200190815260200160002060030181905550600b60008373ffffffffffffffffffffffffffffffffffffffff1673ffffffffffffffffffffffffffffffffffffffff168152602001908152602001600020600101549050919050565b6000612f8c610cc6565b600060030181905550612f9d612a55565b600060090181905550600060030154905090565b600083831115829061305e576040517f08c379a00000000000000000000000000000000000000000000000000000000081526004018080602001828103825283818151815260200191508051906020019080838360005b83811015613023578082015181840152602081019050613008565b50505050905090810190601f1680156130505780820380516001836020036101000a031916815260200191505b509250505060405180910390fd5b5060008385039050809150509392505050565b6000808311829061311d576040517f08c379a00000000000000000000000000000000000000000000000000000000081526004018080602001828103825283818151815260200191508051906020019080838360005b838110156130e25780820151818401526020810190506130c7565b50505050905090810190601f16801561310f5780820380516001836020036101000a031916815260200191505b509250505060405180910390fd5b50600083858161312957fe5b04905080915050939250505056fe6d73672e73656e646572206973206e6f7420616c6c6f77656420746f206f70657261746520506f6f6c536166654d6174683a206d756c7469706c69636174696f6e206f766572666c6f7757616974205820424c4f434b53206265747765656e205472616e73616374696f6e7355736572207374616b652520736861726520746f6f20686967682e204c6561766520736f6d6520666f722074686520736d616c6c65722067757973203b2d29a2646970667358221220d98b5e2dd0e4a5fb64a0e39f2fa8aa4b617356cfd32f19930a2645d1e918722964736f6c63430006060033536166654d6174683a206d756c7469706c69636174696f6e206f766572666c6f77",
  "immutableReferences": {},
  "source": "pragma solidity ^0.6.0;\n\nimport \"./_Interfaces.sol\";\nimport \"./SafeMath.sol\";\nimport \"./Address.sol\";\n\ncontract DeFiat_Farming_v15 {\n    using SafeMath for uint256;\n\n    //Structs\n    struct PoolMetrics {\n        address stakedToken;\n        uint256 staked;             // sum of tokens staked in the contract\n        uint256 stakingFee;         // entry fee\n        \n        uint256 stakingPoints;\n\n        address rewardToken;\n        uint256 rewards;        // current rewards in the pool\n\n        uint256 startTime;      // when the pool opens\n        uint256 closingTime;    // when the pool closes. \n        uint256 duration;       // duration of the staking\n        uint256 lastEvent;   // last time metrics were updated.\n        \n        uint256  ratePerToken;      // CALCULATED pool reward Rate per Token (calculated based on total stake and time)\n    }\n    PoolMetrics public poolMetrics;\n\n    struct UserMetrics {\n        uint256 stake;          // native token stake (balanceOf)\n        uint256 stakingPoints;  // staking points at lastEvent\n        uint256 poolPoints;     // pool point at lastEvent\n        uint256 lastEvent;\n\n        uint256 rewardAccrued;  // accrued rewards over time based on staking points\n        uint256 rewardsPaid;    // for information only\n\n        uint256 lastTxBlock;    // latest transaction from the user (antiSpam)\n    }\n    mapping(address => UserMetrics) public userMetrics;\n\n    address public poolOperator;\n    bool public FullRewards;\n    uint256 totalRewards;\n\n//== constructor \n    constructor(address _stakedToken, address _rewardToken, uint256 _feeBase1000, uint256 _durationHours, uint256 _delayStartHours) public {\n        poolOperator = msg.sender;\n        \n        poolMetrics.stakedToken = address(_stakedToken);\n        poolMetrics.rewardToken = address(_rewardToken);\n        poolMetrics.stakingFee = _feeBase1000; //10 = 1%\n        \n        poolMetrics.duration = _durationHours.mul(3600); //\n        poolMetrics.startTime = block.timestamp + _delayStartHours.mul(3600);\n        poolMetrics.closingTime = block.timestamp + poolMetrics.duration;\n        \n        poolMetrics.stakingPoints = 1; //avoirds div by 0 at start\n        FullRewards = true;\n    }\n\n//==Events\n    event PoolInitalized(uint256 amountAdded, string  _desc);\n    event RewardTaken(address indexed user, uint256 reward, string  _desc);\n\n    event userStaking(address indexed user, uint256 amount, string  _desc);\n    event userWithdrawal(address indexed user, uint256 amount, string  _desc);\n\n    modifier poolLive() {\n        require(block.timestamp >= poolMetrics.startTime,\"Pool not started Yet\"); //good for delayed starts.\n        require(block.timestamp <= poolMetrics.closingTime,\"Pool closed\"); //good for delayed starts.\n        _;\n    }\n\n    modifier poolStarted() {\n        require(block.timestamp >= poolMetrics.startTime,\"Pool not started Yet\"); //good for delayed starts.\n        _;\n    }\n\n    modifier poolEnded() {\n        require(block.timestamp > poolMetrics.closingTime,\"Pool not ended Yet\"); //good for delayed starts.\n        _;\n    }\n\n    modifier antiSpam(uint256 _blocks) {\n        require(block.number > userMetrics[msg.sender].lastTxBlock.add(_blocks), \"Wait X BLOCKS between Transactions\");\n        userMetrics[msg.sender].lastTxBlock = block.number; //update\n        _;\n    }\n\n    //==Basics \n    function currentTime() public view returns (uint256) {\n        return SafeMath.min(block.timestamp, poolMetrics.closingTime); //allows expiration\n    } // SafeMath.min(now, endTime)\n    \n    //==Points locking    \n    function viewPoolPoints() public view returns(uint256) {\n        uint256 _previousPoints = poolMetrics.stakingPoints;    // previous points shapshot \n        uint256 _previousStake = poolMetrics.staked;             // previous stake snapshot\n        \n        uint256 _timeHeld = currentTime().sub(\n                    SafeMath.max(poolMetrics.lastEvent, poolMetrics.startTime)\n                                                );                 // time held with _previous Event\n                                                \n        return  _previousPoints.add(_previousStake.mul(_timeHeld));    //generated points since event\n    }\n\n    function lockPoolPoints() internal returns (uint256) { //ON STAKE/UNSTAKE EVENT\n        poolMetrics.stakingPoints = viewPoolPoints();\n        poolMetrics.lastEvent = currentTime();   // update lastStakingEvent\n        return poolMetrics.stakingPoints;\n    } \n    \n    function viewPointsOf(address _address) public view returns(uint256) {\n        uint256 _previousPoints = userMetrics[_address].stakingPoints;    // snapshot\n        uint256 _previousStake = userMetrics[_address].stake;             // stake before event\n    \n        uint256 _timeHeld = currentTime().sub(\n                    SafeMath.max(userMetrics[_address].lastEvent, poolMetrics.startTime)\n                                                );                          // time held since lastEvent (take RWD, STK, unSTK)\n        \n        uint256 _result = _previousPoints.add(_previousStake.mul(_timeHeld));   \n        \n        if(_result > poolMetrics.stakingPoints){_result = poolMetrics.stakingPoints;}\n        return _result;\n    }\n\n    function lockPointsOf(address _address) internal returns (uint256) {\n        userMetrics[_address].poolPoints = viewPoolPoints();  // snapshot of pool points at lockEvent\n        userMetrics[_address].stakingPoints = viewPointsOf(_address); \n        userMetrics[_address].lastEvent = currentTime(); \n\n        return userMetrics[_address].stakingPoints;\n    }\n\n    function pointsSnapshot(address _address) public returns (bool) {\n        lockPointsOf(_address);lockPoolPoints();\n        return true;\n    }\n    \n    //==Rewards\n    function viewTrancheReward(uint256 _period) internal view returns(uint256) {\n        //uint256 _poolRewards = poolMetrics.rewards; //tokens in the pool. Note: This can be setup to a fixed amount (totalRewards)\n        uint256 _poolRewards = totalRewards; \n        \n        if(FullRewards == false){ _poolRewards = SafeMath.min(poolMetrics.staked, _poolRewards);} \n        // baseline is the min( staked, rewards); avoids ultra_farming > staking pool - EXPERIMENTAL\n        \n        uint256 _timeRate = _period.mul(1e18).div(poolMetrics.duration);\n        return _poolRewards.mul(_timeRate).div(1e18); //tranche of rewards on period\n    }\n    \n    function userRateOnPeriod(address _address) public view returns (uint256){\n        //calculates the delta of pool points and user points since last Event\n        uint256 _deltaUser = viewPointsOf(_address).sub(userMetrics[_address].stakingPoints); // points generated since lastEvent\n        uint256 _deltaPool = viewPoolPoints().sub(userMetrics[_address].poolPoints);          // pool points generated since lastEvent\n        uint256 _rate = 0;\n        if(_deltaUser == 0 || _deltaPool == 0 ){_rate = 0;} //rounding\n        else {_rate = _deltaUser.mul(1e18).div(_deltaPool);}\n        return _rate;\n        \n    }\n    \n    function viewAdditionalRewardOf(address _address) public view returns(uint256) { // rewards generated since last Event\n        require(poolMetrics.rewards > 0, \"No Rewards in the Pool\");\n        \n  \n        // user weighted average share of Pool since lastEvent\n        uint256 _userRateOnPeriod = userRateOnPeriod(_address); //can drop if pool size increases within period -> slows rewards generation\n        \n        // Pool Yield Rate \n        uint256 _period = currentTime().sub(\n                            SafeMath.max(userMetrics[_address].lastEvent, poolMetrics.startTime)  \n                            );        // time elapsed since last reward or pool started (if never taken rewards)\n\n        // Calculate reward\n        uint256 _reward = viewTrancheReward(_period).mul(_userRateOnPeriod).div(1e18);  //user rate on pool rewards' tranche\n\n        return _reward;\n    }\n    \n    function lockRewardOf(address _address) public returns(uint256) {\n        uint256 _additional = viewAdditionalRewardOf(_address); //stakeShare(sinceLastEvent) * poolRewards(sinceLastEvent)\n        userMetrics[_address].rewardAccrued = userMetrics[_address].rewardAccrued.add(_additional); //snapshot rewards.\n        \n        pointsSnapshot(_address); //updates lastEvent and points\n        return userMetrics[_address].rewardAccrued;\n    }  \n    \n    function takeRewards() public poolStarted antiSpam(1) { //1 blocks between rewards\n        require(poolMetrics.rewards > 0, \"No Rewards in the Pool\");\n        \n        uint256 _reward = lockRewardOf(msg.sender); //returns already accrued + additional (also resets time counters)\n\n        userMetrics[msg.sender].rewardsPaid = _reward;   // update user paid rewards\n        \n        userMetrics[msg.sender].rewardAccrued = 0; //flush previously accrued rewards.\n        \n        poolMetrics.rewards = poolMetrics.rewards.sub(_reward);           // update pool rewards\n            \n        IERC20(poolMetrics.rewardToken).transfer(msg.sender, _reward);  // transfer\n            \n        pointsSnapshot(msg.sender); //updates lastEvent\n        //lockRewardOf(msg.sender);\n            \n        emit RewardTaken(msg.sender, _reward, \"Rewards Sent\");          \n    }\n    \n//==staking & unstaking\n\n    modifier antiWhale(address _address) {\n        require(myStakeShare(_address) < 20000, \"User stake% share too high. Leave some for the smaller guys ;-)\"); //max 20%\n        _;\n    } \n    // avoids stakes being deposited once a user reached 20%. \n    // Simplistic implementation as if we calculate \"futureStake\" value very 1st stakers will not be able to deposit.\n    \n    function stake(uint256 _amount) public poolLive antiSpam(1) antiWhale(msg.sender){\n        require(_amount > 0, \"Cannot stake 0\");\n        \n        //initialize\n        userMetrics[msg.sender].rewardAccrued = lockRewardOf(msg.sender); //Locks previous eligible rewards based on lastRewardEvent and lastStakingEvent\n        pointsSnapshot(msg.sender);\n\n        //receive staked\n        uint256 _balanceNow = IERC20(address(poolMetrics.stakedToken)).balanceOf(address(this));\n        IERC20(poolMetrics.stakedToken).transferFrom(msg.sender, address(this), _amount); //will require allowance\n        uint256 amount = IERC20(address(poolMetrics.stakedToken)).balanceOf(address(this)).sub(_balanceNow); //actually received\n        \n        //update pool and user based on stake and fee\n        uint256 _fee = amount.mul(poolMetrics.stakingFee).div(1000);\n        amount = amount.sub(_fee);\n        \n        if(poolMetrics.stakedToken == poolMetrics.rewardToken){poolMetrics.rewards = poolMetrics.rewards.add(_fee);}\n        poolMetrics.staked = poolMetrics.staked.add(amount);\n        userMetrics[msg.sender].stake = userMetrics[msg.sender].stake.add(amount);\n\n        //finalize\n        pointsSnapshot(msg.sender); //updates lastEvent\n        emit userStaking(msg.sender, amount, \"Staking... ... \");\n        \n    } \n    \n    function unStake(uint256 _amount) public poolStarted antiSpam(1) { \n        require(_amount > 0, \"Cannot withdraw 0\");\n        require(_amount <= userMetrics[msg.sender].stake, \"Cannot withdraw more than stake\");\n\n        //initialize\n        userMetrics[msg.sender].rewardAccrued = lockRewardOf(msg.sender); //snapshot of  previous eligible rewards based on lastStakingEvent\n        pointsSnapshot(msg.sender);\n\n        // update metrics\n        userMetrics[msg.sender].stake = userMetrics[msg.sender].stake.sub(_amount);\n        poolMetrics.staked = poolMetrics.staked.sub(_amount);\n\n        // transfer _amount. Put at the end of the function to avoid reentrancy.\n        IERC20(poolMetrics.stakedToken).transfer(msg.sender, _amount);\n        \n        //finalize\n        emit userWithdrawal(msg.sender, _amount, \"Widhtdrawal\");\n    }\n\n    function myStake(address _address) public view returns(uint256) {\n        return userMetrics[_address].stake;\n    }\n    function myStakeShare(address _address) public view returns(uint256) {\n        if(poolMetrics.staked == 0){return 0;}\n        else {\n        return (userMetrics[_address].stake).mul(100000).div(poolMetrics.staked);}\n    } //base 100,000\n    function myPointsShare(address _address) public view returns(uint256) {  //weighted average of your stake over time vs the pool\n        return viewPointsOf(_address).mul(100000).div(viewPoolPoints());\n    } //base 100,000. Drops when taking rewards.=> Refills after (favors strong hands)\n    function myRewards(address _address) public view returns(uint256) {\n        //delayed start obfuscation (avoids disturbances in the force...)\n        if(block.timestamp <= poolMetrics.startTime || poolMetrics.rewards == 0){return 0;}\n        else { return userMetrics[_address].rewardAccrued.add(viewAdditionalRewardOf(_address));} //previousLock + time based extra\n    }\n\n    //== OPERATOR FUNCTIONS ==\n    function setPoolOperator(address _address) public onlyPoolOperator {\n        poolOperator = _address;\n    }\n\n    modifier onlyPoolOperator() {\n        require(msg.sender == poolOperator, \"msg.sender is not allowed to operate Pool\");\n        _;\n    }\n    \n    function setFullRewards(bool _bool) public onlyPoolOperator {\n        FullRewards = _bool;\n    }\n\n    function loadRewards(uint256 _amount, uint256 _preStake) public onlyPoolOperator { //load tokens in the rewards pool.\n        uint256 _balanceNow = IERC20(address(poolMetrics.rewardToken)).balanceOf(address(this));\n        IERC20(address(poolMetrics.rewardToken)).transferFrom( msg.sender,  address(this),  _amount);\n        uint256 amount = IERC20(address(poolMetrics.rewardToken)).balanceOf(address(this)).sub(_balanceNow); //actually received\n        \n        // initialization\n        if(poolMetrics.rewards == 0) {\n            poolMetrics.staked = SafeMath.add(poolMetrics.staked,_preStake);\n        }  // creates baseline for pool. Avoids massive movements on rewards\n        \n        poolMetrics.rewards = SafeMath.add(poolMetrics.rewards,amount);\n        totalRewards = totalRewards.add(_amount);\n    }    \n\n    function setFee(uint256 _fee) public onlyPoolOperator {\n        poolMetrics.stakingFee = _fee;\n    }\n    \n    function flushPool(address _recipient, address _ERC20address) external onlyPoolOperator poolEnded { // poolEnded { // poolEnded returns(bool) {\n        uint256 _amount = IERC20(_ERC20address).balanceOf(address(this));\n        IERC20(_ERC20address).transfer(_recipient, _amount); //use of the _ERC20 traditional transfer\n        //return true;\n    } //get tokens sent by error to contract\n\n    function killPool() public onlyPoolOperator poolEnded returns(bool) {\n        selfdestruct(msg.sender);\n    } //frees space on the ETH chain\n}",
  "sourcePath": "/Users/noahcoomer/source/defiat/defiat-contracts/contracts/DeFiat_Farming.sol",
  "compiler": {
    "name": "solc",
    "version": "0.6.6+commit.6c089d02.Emscripten.clang"
  },
  "schemaVersion": "3.3.1",
  "updatedAt": "2020-11-05T16:59:50.390Z",
  "devdoc": {
    "methods": {}
  },
  "userdoc": {
    "methods": {}
  }
}