{
  "contractName": "TokenTimelock",
  "abi": [
    {
      "inputs": [
        {
          "internalType": "contract IERC20",
          "name": "token",
          "type": "address"
        },
        {
          "internalType": "address",
          "name": "beneficiary",
          "type": "address"
        },
        {
          "internalType": "uint256",
          "name": "timeLockDays",
          "type": "uint256"
        }
      ],
      "stateMutability": "nonpayable",
      "type": "constructor"
    },
    {
      "inputs": [],
      "name": "token",
      "outputs": [
        {
          "internalType": "contract IERC20",
          "name": "",
          "type": "address"
        }
      ],
      "stateMutability": "view",
      "type": "function"
    },
    {
      "inputs": [],
      "name": "beneficiary",
      "outputs": [
        {
          "internalType": "address",
          "name": "",
          "type": "address"
        }
      ],
      "stateMutability": "view",
      "type": "function"
    },
    {
      "inputs": [],
      "name": "releaseTime",
      "outputs": [
        {
          "internalType": "uint256",
          "name": "",
          "type": "uint256"
        }
      ],
      "stateMutability": "view",
      "type": "function"
    },
    {
      "inputs": [],
      "name": "release",
      "outputs": [],
      "stateMutability": "nonpayable",
      "type": "function"
    }
  ],
  "bytecode": "0x608060405234801561001057600080fd5b506040516106013803806106018339818101604052606081101561003357600080fd5b81019080805190602001909291908051906020019092919080519060200190929190505050826000806101000a81548173ffffffffffffffffffffffffffffffffffffffff021916908373ffffffffffffffffffffffffffffffffffffffff16021790555081600160006101000a81548173ffffffffffffffffffffffffffffffffffffffff021916908373ffffffffffffffffffffffffffffffffffffffff160217905550610e10601882020242016002819055504260025411610160576040517f08c379a00000000000000000000000000000000000000000000000000000000081526004018080602001828103825260068152602001807f455252524f52000000000000000000000000000000000000000000000000000081525060200191505060405180910390fd5b50505061048f806101726000396000f3fe608060405234801561001057600080fd5b506004361061004c5760003560e01c806338af3eed1461005157806386d1a69f1461009b578063b91d4001146100a5578063fc0c546a146100c3575b600080fd5b61005961010d565b604051808273ffffffffffffffffffffffffffffffffffffffff1673ffffffffffffffffffffffffffffffffffffffff16815260200191505060405180910390f35b6100a3610137565b005b6100ad6103d1565b6040518082815260200191505060405180910390f35b6100cb6103db565b604051808273ffffffffffffffffffffffffffffffffffffffff1673ffffffffffffffffffffffffffffffffffffffff16815260200191505060405180910390f35b6000600160009054906101000a900473ffffffffffffffffffffffffffffffffffffffff16905090565b600254421015610192576040517f08c379a00000000000000000000000000000000000000000000000000000000081526004018080602001828103825260328152602001806104056032913960400191505060405180910390fd5b60008060009054906101000a900473ffffffffffffffffffffffffffffffffffffffff1673ffffffffffffffffffffffffffffffffffffffff166370a08231306040518263ffffffff1660e01b8152600401808273ffffffffffffffffffffffffffffffffffffffff1673ffffffffffffffffffffffffffffffffffffffff16815260200191505060206040518083038186803b15801561023257600080fd5b505afa158015610246573d6000803e3d6000fd5b505050506040513d602081101561025c57600080fd5b81019080805190602001909291905050509050600081116102c8576040517f08c379a00000000000000000000000000000000000000000000000000000000081526004018080602001828103825260238152602001806104376023913960400191505060405180910390fd5b6000809054906101000a900473ffffffffffffffffffffffffffffffffffffffff1673ffffffffffffffffffffffffffffffffffffffff1663a9059cbb600160009054906101000a900473ffffffffffffffffffffffffffffffffffffffff16836040518363ffffffff1660e01b8152600401808373ffffffffffffffffffffffffffffffffffffffff1673ffffffffffffffffffffffffffffffffffffffff16815260200182815260200192505050602060405180830381600087803b15801561039257600080fd5b505af11580156103a6573d6000803e3d6000fd5b505050506040513d60208110156103bc57600080fd5b81019080805190602001909291905050505050565b6000600254905090565b60008060009054906101000a900473ffffffffffffffffffffffffffffffffffffffff1690509056fe546f6b656e54696d656c6f636b3a2063757272656e742074696d65206973206265666f72652072656c656173652074696d65546f6b656e54696d656c6f636b3a206e6f20746f6b656e7320746f2072656c65617365a2646970667358221220b3657ab1c45a1b04eac0314c5d1f13edfde2ff54b960f9397ea08c16042df5c864736f6c63430006060033",
  "immutableReferences": {},
  "source": "// SPDX-License-Identifier: MIT\n\n// File: @openzeppelin/contracts/token/ERC20/IERC20.sol\npragma solidity ^0.6.0;\n\nimport \"./_Interfaces.sol\";\n\n/**\n * @dev A token holder contract that will allow a beneficiary to extract the\n * tokens after a given release time.\n *\n * Useful for simple vesting schedules like \"advisors get all of their tokens\n * after 1 year\".\n */\ncontract TokenTimelock {\n\n    // ERC20 basic token contract being held\n    IERC20 private _token;\n\n    // beneficiary of tokens after they are released\n    address private _beneficiary;\n\n    // timestamp when token release is enabled\n    uint256 private _releaseTime;\n\n    constructor (IERC20 token, address beneficiary, uint256 timeLockDays) public {\n        // solhint-disable-next-line not-rely-on-time\n        _token = token;\n        _beneficiary = beneficiary;\n        _releaseTime = block.timestamp + (timeLockDays*24*3600);\n        require(_releaseTime > block.timestamp, \"ERRROR\");\n    }\n\n    /**\n     * @return the token being held.\n     */\n    function token() public view returns (IERC20) {\n        return _token;\n    }\n\n    /**\n     * @return the beneficiary of the tokens.\n     */\n    function beneficiary() public view returns (address) {\n        return _beneficiary;\n    }\n\n    /**\n     * @return the time when the tokens are released.\n     */\n    function releaseTime() public view returns (uint256) {\n        return _releaseTime;\n    }\n\n    /**\n     * @notice Transfers tokens held by timelock to beneficiary.\n     */\n    function release() public virtual {\n        // solhint-disable-next-line not-rely-on-time\n        require(block.timestamp >= _releaseTime, \"TokenTimelock: current time is before release time\");\n\n        uint256 amount = _token.balanceOf(address(this));\n        require(amount > 0, \"TokenTimelock: no tokens to release\");\n\n        _token.transfer(_beneficiary, amount);\n    }\n}",
  "sourcePath": "/Users/noahcoomer/source/defiat/defiat-contracts/contracts/DeFiat_LockUp.sol",
  "compiler": {
    "name": "solc",
    "version": "0.6.6+commit.6c089d02.Emscripten.clang"
  },
  "schemaVersion": "3.3.1",
  "updatedAt": "2020-11-05T16:59:50.403Z",
  "devdoc": {
    "details": "A token holder contract that will allow a beneficiary to extract the tokens after a given release time. * Useful for simple vesting schedules like \"advisors get all of their tokens after 1 year\".",
    "methods": {}
  },
  "userdoc": {
    "methods": {
      "release()": {
        "notice": "Transfers tokens held by timelock to beneficiary."
      }
    }
  }
}