{
  "contractName": "Uni_Price_v2",
  "abi": [
    {
      "inputs": [
        {
          "internalType": "address",
          "name": "_UNIfactory",
          "type": "address"
        },
        {
          "internalType": "address",
          "name": "_wETHaddress",
          "type": "address"
        }
      ],
      "stateMutability": "nonpayable",
      "type": "constructor"
    },
    {
      "inputs": [],
      "name": "UNIfactory",
      "outputs": [
        {
          "internalType": "address",
          "name": "",
          "type": "address"
        }
      ],
      "stateMutability": "view",
      "type": "function"
    },
    {
      "inputs": [],
      "name": "kill",
      "outputs": [],
      "stateMutability": "nonpayable",
      "type": "function"
    },
    {
      "inputs": [
        {
          "internalType": "address",
          "name": "_address",
          "type": "address"
        },
        {
          "internalType": "bool",
          "name": "_bool",
          "type": "bool"
        }
      ],
      "name": "manageAllowed",
      "outputs": [],
      "stateMutability": "nonpayable",
      "type": "function"
    },
    {
      "inputs": [],
      "name": "owner",
      "outputs": [
        {
          "internalType": "address",
          "name": "",
          "type": "address"
        }
      ],
      "stateMutability": "view",
      "type": "function"
    },
    {
      "inputs": [],
      "name": "uniSymbol",
      "outputs": [
        {
          "internalType": "string",
          "name": "",
          "type": "string"
        }
      ],
      "stateMutability": "view",
      "type": "function"
    },
    {
      "inputs": [],
      "name": "wETHaddress",
      "outputs": [
        {
          "internalType": "address",
          "name": "",
          "type": "address"
        }
      ],
      "stateMutability": "view",
      "type": "function"
    },
    {
      "inputs": [
        {
          "internalType": "address",
          "name": "_token",
          "type": "address"
        }
      ],
      "name": "withdrawAnyToken",
      "outputs": [
        {
          "internalType": "bool",
          "name": "",
          "type": "bool"
        }
      ],
      "stateMutability": "nonpayable",
      "type": "function"
    },
    {
      "inputs": [
        {
          "internalType": "address",
          "name": "_token",
          "type": "address"
        }
      ],
      "name": "isUniLiquidityToken",
      "outputs": [
        {
          "internalType": "bool",
          "name": "",
          "type": "bool"
        }
      ],
      "stateMutability": "view",
      "type": "function"
    },
    {
      "inputs": [
        {
          "internalType": "address",
          "name": "_token",
          "type": "address"
        }
      ],
      "name": "getUniPrice",
      "outputs": [
        {
          "internalType": "uint256",
          "name": "",
          "type": "uint256"
        }
      ],
      "stateMutability": "view",
      "type": "function"
    },
    {
      "inputs": [
        {
          "internalType": "address",
          "name": "_token",
          "type": "address"
        }
      ],
      "name": "getTokenInfo",
      "outputs": [
        {
          "internalType": "string",
          "name": "name",
          "type": "string"
        },
        {
          "internalType": "string",
          "name": "symbol",
          "type": "string"
        },
        {
          "internalType": "uint8",
          "name": "decimals",
          "type": "uint8"
        },
        {
          "internalType": "address",
          "name": "uniPair",
          "type": "address"
        },
        {
          "internalType": "uint256",
          "name": "tokensPerETH",
          "type": "uint256"
        }
      ],
      "stateMutability": "view",
      "type": "function"
    }
  ],
  "bytecode": "0x60806040523480156200001157600080fd5b5060405162001b8038038062001b80833981810160405260408110156200003757600080fd5b81019080805190602001909291908051906020019092919050505033600360006101000a81548173ffffffffffffffffffffffffffffffffffffffff021916908373ffffffffffffffffffffffffffffffffffffffff16021790555081600160006101000a81548173ffffffffffffffffffffffffffffffffffffffff021916908373ffffffffffffffffffffffffffffffffffffffff16021790555080600260006101000a81548173ffffffffffffffffffffffffffffffffffffffff021916908373ffffffffffffffffffffffffffffffffffffffff1602179055506040518060400160405280600681526020017f554e492d5632000000000000000000000000000000000000000000000000000081525060049080519060200190620001629291906200016b565b5050506200021a565b828054600181600116156101000203166002900490600052602060002090601f016020900481019282601f10620001ae57805160ff1916838001178555620001df565b82800160010185558215620001df579182015b82811115620001de578251825591602001919060010190620001c1565b5b509050620001ee9190620001f2565b5090565b6200021791905b8082111562000213576000816000905550600101620001f9565b5090565b90565b611956806200022a6000396000f3fe608060405234801561001057600080fd5b506004361061009e5760003560e01c80636ffc7cf1116100665780636ffc7cf1146103465780637892766c146103905780638da5cb5b146103ec578063939acd8814610436578063ec0b08001461048e5761009e565b80631f69565f146100a3578063260eb0e11461021357806341c0e1b51461026f5780635f9be6d61461027957806367b52f54146102fc575b600080fd5b6100e5600480360360208110156100b957600080fd5b81019080803573ffffffffffffffffffffffffffffffffffffffff1690602001909291905050506104de565b6040518080602001806020018660ff1660ff1681526020018573ffffffffffffffffffffffffffffffffffffffff1673ffffffffffffffffffffffffffffffffffffffff168152602001848152602001838103835288818151815260200191508051906020019080838360005b8381101561016d578082015181840152602081019050610152565b50505050905090810190601f16801561019a5780820380516001836020036101000a031916815260200191505b50838103825287818151815260200191508051906020019080838360005b838110156101d35780820151818401526020810190506101b8565b50505050905090810190601f1680156102005780820380516001836020036101000a031916815260200191505b5097505050505050505060405180910390f35b6102556004803603602081101561022957600080fd5b81019080803573ffffffffffffffffffffffffffffffffffffffff16906020019092919050505061080a565b604051808215151515815260200191505060405180910390f35b6102776109d5565b005b610281610ac1565b6040518080602001828103825283818151815260200191508051906020019080838360005b838110156102c15780820151818401526020810190506102a6565b50505050905090810190601f1680156102ee5780820380516001836020036101000a031916815260200191505b509250505060405180910390f35b610304610b5f565b604051808273ffffffffffffffffffffffffffffffffffffffff1673ffffffffffffffffffffffffffffffffffffffff16815260200191505060405180910390f35b61034e610b85565b604051808273ffffffffffffffffffffffffffffffffffffffff1673ffffffffffffffffffffffffffffffffffffffff16815260200191505060405180910390f35b6103d2600480360360208110156103a657600080fd5b81019080803573ffffffffffffffffffffffffffffffffffffffff169060200190929190505050610bab565b604051808215151515815260200191505060405180910390f35b6103f4610d52565b604051808273ffffffffffffffffffffffffffffffffffffffff1673ffffffffffffffffffffffffffffffffffffffff16815260200191505060405180910390f35b6104786004803603602081101561044c57600080fd5b81019080803573ffffffffffffffffffffffffffffffffffffffff169060200190929190505050610d78565b6040518082815260200191505060405180910390f35b6104dc600480360360408110156104a457600080fd5b81019080803573ffffffffffffffffffffffffffffffffffffffff169060200190929190803515159060200190929190505050610dc9565b005b60608060008060008573ffffffffffffffffffffffffffffffffffffffff166306fdde036040518163ffffffff1660e01b815260040160006040518083038186803b15801561052c57600080fd5b505afa158015610540573d6000803e3d6000fd5b505050506040513d6000823e3d601f19601f82011682018060405250602081101561056a57600080fd5b810190808051604051939291908464010000000082111561058a57600080fd5b838201915060208201858111156105a057600080fd5b82518660018202830111640100000000821117156105bd57600080fd5b8083526020830192505050908051906020019080838360005b838110156105f15780820151818401526020810190506105d6565b50505050905090810190601f16801561061e5780820380516001836020036101000a031916815260200191505b506040525050508673ffffffffffffffffffffffffffffffffffffffff166395d89b416040518163ffffffff1660e01b815260040160006040518083038186803b15801561066b57600080fd5b505afa15801561067f573d6000803e3d6000fd5b505050506040513d6000823e3d601f19601f8201168201806040525060208110156106a957600080fd5b81019080805160405193929190846401000000008211156106c957600080fd5b838201915060208201858111156106df57600080fd5b82518660018202830111640100000000821117156106fc57600080fd5b8083526020830192505050908051906020019080838360005b83811015610730578082015181840152602081019050610715565b50505050905090810190601f16801561075d5780820380516001836020036101000a031916815260200191505b506040525050508773ffffffffffffffffffffffffffffffffffffffff1663313ce5676040518163ffffffff1660e01b815260040160206040518083038186803b1580156107aa57600080fd5b505afa1580156107be573d6000803e3d6000fd5b505050506040513d60208110156107d457600080fd5b81019080805190602001909291905050506107ee89610eef565b6107f78a610d78565b9450945094509450945091939590929450565b6000600460405180828054600181600116156101000203166002900480156108695780601f10610847576101008083540402835291820191610869565b820191906000526020600020905b815481529060010190602001808311610855575b505091505060405180910390208273ffffffffffffffffffffffffffffffffffffffff166395d89b416040518163ffffffff1660e01b815260040160006040518083038186803b1580156108bc57600080fd5b505afa1580156108d0573d6000803e3d6000fd5b505050506040513d6000823e3d601f19601f8201168201806040525060208110156108fa57600080fd5b810190808051604051939291908464010000000082111561091a57600080fd5b8382019150602082018581111561093057600080fd5b825186600182028301116401000000008211171561094d57600080fd5b8083526020830192505050908051906020019080838360005b83811015610981578082015181840152602081019050610966565b50505050905090810190601f1680156109ae5780820380516001836020036101000a031916815260200191505b506040525050508051906020012014156109cb57600190506109d0565b600090505b919050565b600115156000806109e461103f565b73ffffffffffffffffffffffffffffffffffffffff1673ffffffffffffffffffffffffffffffffffffffff16815260200190815260200160002060009054906101000a900460ff16151514610aa1576040517f08c379a000000000000000000000000000000000000000000000000000000000815260040180806020018281038252600b8152602001807f6f6e6c79416c6c6f77656400000000000000000000000000000000000000000081525060200191505060405180910390fd5b610aa961103f565b73ffffffffffffffffffffffffffffffffffffffff16ff5b60048054600181600116156101000203166002900480601f016020809104026020016040519081016040528092919081815260200182805460018160011615610100020316600290048015610b575780601f10610b2c57610100808354040283529160200191610b57565b820191906000526020600020905b815481529060010190602001808311610b3a57829003601f168201915b505050505081565b600160009054906101000a900473ffffffffffffffffffffffffffffffffffffffff1681565b600260009054906101000a900473ffffffffffffffffffffffffffffffffffffffff1681565b600060011515600080610bbc61103f565b73ffffffffffffffffffffffffffffffffffffffff1673ffffffffffffffffffffffffffffffffffffffff16815260200190815260200160002060009054906101000a900460ff16151514610c79576040517f08c379a000000000000000000000000000000000000000000000000000000000815260040180806020018281038252600b8152602001807f6f6e6c79416c6c6f77656400000000000000000000000000000000000000000081525060200191505060405180910390fd5b60008273ffffffffffffffffffffffffffffffffffffffff166370a08231306040518263ffffffff1660e01b8152600401808273ffffffffffffffffffffffffffffffffffffffff1673ffffffffffffffffffffffffffffffffffffffff16815260200191505060206040518083038186803b158015610cf857600080fd5b505afa158015610d0c573d6000803e3d6000fd5b505050506040513d6020811015610d2257600080fd5b81019080805190602001909291905050509050610d47610d4061103f565b8483611047565b506001915050919050565b600360009054906101000a900473ffffffffffffffffffffffffffffffffffffffff1681565b600080600080610d8785611117565b8093508194505050610d9885611651565b9050610dbf82610db1838661176990919063ffffffff16565b6117ef90919063ffffffff16565b9350505050919050565b60011515600080610dd861103f565b73ffffffffffffffffffffffffffffffffffffffff1673ffffffffffffffffffffffffffffffffffffffff16815260200190815260200160002060009054906101000a900460ff16151514610e95576040517f08c379a000000000000000000000000000000000000000000000000000000000815260040180806020018281038252600b8152602001807f6f6e6c79416c6c6f77656400000000000000000000000000000000000000000081525060200191505060405180910390fd5b806000808473ffffffffffffffffffffffffffffffffffffffff1673ffffffffffffffffffffffffffffffffffffffff16815260200190815260200160002060006101000a81548160ff0219169083151502179055505050565b6000610efa8261080a565b15610f075781905061103a565b600160009054906101000a900473ffffffffffffffffffffffffffffffffffffffff1673ffffffffffffffffffffffffffffffffffffffff1663e6a4390583600260009054906101000a900473ffffffffffffffffffffffffffffffffffffffff166040518363ffffffff1660e01b8152600401808373ffffffffffffffffffffffffffffffffffffffff1673ffffffffffffffffffffffffffffffffffffffff1681526020018273ffffffffffffffffffffffffffffffffffffffff1673ffffffffffffffffffffffffffffffffffffffff1681526020019250505060206040518083038186803b158015610ffc57600080fd5b505afa158015611010573d6000803e3d6000fd5b505050506040513d602081101561102657600080fd5b810190808051906020019092919050505090505b919050565b600033905090565b60008273ffffffffffffffffffffffffffffffffffffffff1663a9059cbb85846040518363ffffffff1660e01b8152600401808373ffffffffffffffffffffffffffffffffffffffff1673ffffffffffffffffffffffffffffffffffffffff16815260200182815260200192505050602060405180830381600087803b1580156110d057600080fd5b505af11580156110e4573d6000803e3d6000fd5b505050506040513d60208110156110fa57600080fd5b810190808051906020019092919050505050600190509392505050565b60008060008060006111288661080a565b156113f9578573ffffffffffffffffffffffffffffffffffffffff16630dfe16816040518163ffffffff1660e01b815260040160206040518083038186803b15801561117357600080fd5b505afa158015611187573d6000803e3d6000fd5b505050506040513d602081101561119d57600080fd5b81019080805190602001909291905050509250600260009054906101000a900473ffffffffffffffffffffffffffffffffffffffff1673ffffffffffffffffffffffffffffffffffffffff168373ffffffffffffffffffffffffffffffffffffffff1614156112a9578573ffffffffffffffffffffffffffffffffffffffff16630902f1ac6040518163ffffffff1660e01b815260040160606040518083038186803b15801561124c57600080fd5b505afa158015611260573d6000803e3d6000fd5b505050506040513d606081101561127657600080fd5b81019080805190602001909291908051906020019092919080519060200190929190505050508093508192505050611348565b8573ffffffffffffffffffffffffffffffffffffffff16630902f1ac6040518163ffffffff1660e01b815260040160606040518083038186803b1580156112ef57600080fd5b505afa158015611303573d6000803e3d6000fd5b505050506040513d606081101561131957600080fd5b810190808051906020019092919080519060200190929190805190602001909291905050505080925081935050505b61136c6002826dffffffffffffffffffffffffffff1661176990919063ffffffff16565b8673ffffffffffffffffffffffffffffffffffffffff166318160ddd6040518163ffffffff1660e01b815260040160206040518083038186803b1580156113b257600080fd5b505afa1580156113c6573d6000803e3d6000fd5b505050506040513d60208110156113dc57600080fd5b81019080805190602001909291905050509450945050505061164c565b600061140487610eef565b90508073ffffffffffffffffffffffffffffffffffffffff16630dfe16816040518163ffffffff1660e01b815260040160206040518083038186803b15801561144c57600080fd5b505afa158015611460573d6000803e3d6000fd5b505050506040513d602081101561147657600080fd5b81019080805190602001909291905050509350600260009054906101000a900473ffffffffffffffffffffffffffffffffffffffff1673ffffffffffffffffffffffffffffffffffffffff168473ffffffffffffffffffffffffffffffffffffffff161415611582578073ffffffffffffffffffffffffffffffffffffffff16630902f1ac6040518163ffffffff1660e01b815260040160606040518083038186803b15801561152557600080fd5b505afa158015611539573d6000803e3d6000fd5b505050506040513d606081101561154f57600080fd5b81019080805190602001909291908051906020019092919080519060200190929190505050508094508193505050611621565b8073ffffffffffffffffffffffffffffffffffffffff16630902f1ac6040518163ffffffff1660e01b815260040160606040518083038186803b1580156115c857600080fd5b505afa1580156115dc573d6000803e3d6000fd5b505050506040513d60608110156115f257600080fd5b810190808051906020019092919080519060200190929190805190602001909291905050505080935081945050505b826dffffffffffffffffffffffffffff16826dffffffffffffffffffffffffffff1695509550505050505b915091565b6000808273ffffffffffffffffffffffffffffffffffffffff1663313ce5676040518163ffffffff1660e01b815260040160206040518083038186803b15801561169a57600080fd5b505afa1580156116ae573d6000803e3d6000fd5b505050506040513d60208110156116c457600080fd5b8101908080519060200190929190505050905060128160ff161115611751576040517f08c379a000000000000000000000000000000000000000000000000000000000815260040180806020018281038252601c8152602001807f4f766572466c6f77207269736b2c206e6f7420737570706f727465640000000081525060200191505060405180910390fd5b60008160ff16602403905080600a0a92505050919050565b60008083141561177c57600090506117e9565b600082840290508284828161178d57fe5b04146117e4576040517f08c379a00000000000000000000000000000000000000000000000000000000081526004018080602001828103825260218152602001806119006021913960400191505060405180910390fd5b809150505b92915050565b600061183183836040518060400160405280601a81526020017f536166654d6174683a206469766973696f6e206279207a65726f000000000000815250611839565b905092915050565b600080831182906118e5576040517f08c379a00000000000000000000000000000000000000000000000000000000081526004018080602001828103825283818151815260200191508051906020019080838360005b838110156118aa57808201518184015260208101905061188f565b50505050905090810190601f1680156118d75780820380516001836020036101000a031916815260200191505b509250505060405180910390fd5b5060008385816118f157fe5b04905080915050939250505056fe536166654d6174683a206d756c7469706c69636174696f6e206f766572666c6f77a26469706673582212207709e55fb9074eff3a8d150d048c3239834b10fca8a61dd455deea3f5059718d64736f6c63430006060033",
  "immutableReferences": {},
  "source": "//SPDX-License-Identifier: stupid\n\n\npragma solidity >= 0.6;\n\nimport \"./SafeMath.sol\";\nimport \"./_Interfaces.sol\";\nimport \"./_ERC20.sol\";\nimport \"./ERC20_Utils.sol\";\n\n// oracle for on-chain uniswap prices w/ support for LP tokens\ncontract Uni_Price_v2 is ERC20_Utils {\n    using SafeMath for uint112;\n    using SafeMath for uint256;\n    \n    address public UNIfactory;\n    address public wETHaddress;\n    address public owner;\n    string public uniSymbol;\n \n    modifier onlyOwner {\n        require(msg.sender == owner, \"only owner\");\n        _;\n    }\n    \n    constructor(address _UNIfactory, address _wETHaddress) public {\n        owner = msg.sender;\n        UNIfactory = _UNIfactory; \n        //0x5C69bEe701ef814a2B6a3EDD4B1652CB9cc5aA6f; MAINNET ETH\n        //0x5c69bee701ef814a2b6a3edd4b1652cb9cc5aa6f; RINKEBY ETH\n\n        wETHaddress = _wETHaddress; \n        //0xc02aaa39b223fe8d0a0e5c4f27ead9083c756cc2; MAINNET ETH\n        //0xc778417E063141139Fce010982780140Aa0cD5Ab; RINKEBY ETH\n        uniSymbol = \"UNI-V2\";\n    }\n\n    function isUniLiquidityToken(address _token) public view returns (bool) {\n        if (keccak256(bytes(_ERC20(_token).symbol())) == keccak256(bytes(uniSymbol))) {\n            return true;\n        }\n        return false;\n    }\n    \n    function getUniPair(address _token) internal view returns(address) {\n        if (isUniLiquidityToken(_token)) {\n            return _token;\n        }\n        return IUniswapV2Factory(UNIfactory).getPair(_token, wETHaddress);\n    }\n\n    function _getUint256Reserves(address _token) internal view returns(uint256 rToken, uint256 rWETH) {\n        address _token0;\n        uint112 _rTKN;\n        uint112 _rWETH;\n\n        if (isUniLiquidityToken(_token)) {\n            _token0 = IUniswapV2Pair(_token).token0();\n\n            if(_token0 == wETHaddress) {\n                (_rWETH, _rTKN, ) = IUniswapV2Pair(_token).getReserves(); //returns r0, r1, time\n            }\n            else {\n                (_rTKN, _rWETH, ) = IUniswapV2Pair(_token).getReserves();\n            }\n            // formula for eth price of lp tokens in WETH is 2 * wethReserves / totalSupplyLpTokens()\n            return (_rWETH.mul(2), _ERC20(_token).totalSupply());\n        } else {\n            address _UNIpair = getUniPair(_token);\n            _token0 = IUniswapV2Pair(_UNIpair).token0();\n            if(_token0 == wETHaddress) {\n                (_rWETH, _rTKN, ) = IUniswapV2Pair(_UNIpair).getReserves(); //returns r0, r1, time\n            }\n            else {\n                (_rTKN, _rWETH, ) = IUniswapV2Pair(_UNIpair).getReserves();\n            }\n            return (uint256(_rTKN),uint256(_rWETH)); //price in gwei, needs to be corrected by nb of decimals of _token\n            //price of 1 token in GWEI\n        }\n    }  \n    \n    function adjuster(address _token) internal view returns(uint256) {\n        uint8 _decimals = _ERC20(_token).decimals();\n        require(_decimals <= 18,\"OverFlow risk, not supported\");\n        uint256 _temp = 36 - uint256(_decimals);\n        return 10**_temp;\n    }\n    \n    function getUniPrice(address _token) public view returns(uint) {\n\n        uint256 rToken; uint256 rWETH; uint256 _adjuster;\n        (rToken, rWETH) = _getUint256Reserves(_token);\n        _adjuster = adjuster(_token);\n        \n\n        return ( (rToken).mul(_adjuster) ).div(rWETH);       //IN GWEI\n    }\n    \n    function getTokenInfo(address _token) public view returns(\n        string memory name, string memory symbol, uint8 decimals, address uniPair, uint256 tokensPerETH) {\n        return(\n            _ERC20(_token).name(), \n            _ERC20(_token).symbol(), \n            _ERC20(_token).decimals(), \n            getUniPair(_token), \n            getUniPrice(_token)\n        ); //normalized as if every token is 18 decimals\n    }\n}\n\n",
  "sourcePath": "/Users/noahcoomer/source/defiat/defiat-contracts/contracts/Uni_Price_v2.sol",
  "compiler": {
    "name": "solc",
    "version": "0.6.6+commit.6c089d02.Emscripten.clang"
  },
  "schemaVersion": "3.3.1",
  "updatedAt": "2020-11-05T16:59:50.469Z",
  "devdoc": {
    "methods": {}
  },
  "userdoc": {
    "methods": {}
  }
}